:1000000000180020C100000039220000FD2100007E
:10001000FD210000FD210000FD210000FD21000068
:10002000FD210000FD210000FD210000392200001B
:1000300039220000FD210000413200001133000090
:100040003922000039220000392200003922000044
:100050003922000039220000392200003922000034
:100060003922000039220000392200003922000024
:1000700011250000E9250000C126000039220000FA
:100080003922000039220000392200003922000004
:1000900039220000392200008D330000392200008F
:1000A000A529000039220000392200003922000071
:1000B000392200006D310000392200003922000091
:1000C000F8B502F0BDF80821474A484B1A60484A83
:1000D000484B1A60484A494B1A60494B1A780A4201
:1000E00002D01A780A431A702A22464B46481A70E0
:1000F00000234649464C1A188A4203D2E558043375
:100100001560F8E70021434B434A934201D202C3F2
:10011000FBE70023414A424958589446985004331B
:10012000C02BF9D100210326FF2580248A083D4BEE
:100130009200D2180B002F003340DB009F40106864
:100140000131B84307002000984003003B4313608F
:100150002029EBD16246344B1A608A22334B1A7045
:10016000334B663A5A707C321A709E3A9979114232
:10017000FCD0102299791142FCD10C209A792C499B
:100180000240082AFAD1053A0A713D324A71203AF2
:1001900099791142FCD0402299791142FCD0C021BA
:1001A000244A890511602021214A117014399A7955
:1001B0000A400C2AFBD1204A204B1A60204A214BCE
:1001C0001A600022204B1A60204B07321A60204A26
:1001D000204B1A6062B602F023F903F0E9FA02F04C
:1001E00035F803F075F9FEE7300004F03480044080
:1001F000823F0000388004400100000F3C80044032
:1002000002D0074000E0074030020020DC0D002053
:100210003C4A0000DC0D00200C12002000F9FF1FFA
:100220000000000000E400E008ED00E0005006409F
:100230000040064044800440C0000505048004409E
:10024000BF5D000014E000E018E000E010E000E016
:100250000000202020ED00E0FFFFFFFFFFFFFFFF79
:10026000FFFFFFFFFFFFFFFFFFFFFFFFFFFFFFFF9E
:10027000FFFFFFFFFFFFFFFFFFFFFFFFFFFFFFFF8E
:10028000FFFFFFFFFFFFFFFFFFFFFFFFFFFFFFFF7E
:10029000FFFFFFFFFFFFFFFFFFFFFFFFFFFFFFFF6E
:1002A000FFFFFFFFFFFFFFFFFFFFFFFFFFFFFFFF5E
:1002B000FFFFFFFFFFFFFFFFFFFFFFFFFFFFFFFF4E
:1002C000FFFFFFFFFFFFFFFFFFFFFFFFFFFFFFFF3E
:1002D000FFFFFFFFFFFFFFFFFFFFFFFFFFFFFFFF2E
:1002E000FFFFFFFFFFFFFFFFFFFFFFFFFFFFFFFF1E
:1002F000FFFFFFFFFFFFFFFFFFFFFFFFFFFFFFFF0E
:10030000FFFFFFFFFFFFFFFFFFFFFFFFFFFFFFFFFD
:10031000FFFFFFFFFFFFFFFFFFFFFFFFFFFFFFFFED
:10032000FFFFFFFFFFFFFFFFFFFFFFFFFFFFFFFFDD
:10033000FFFFFFFFFFFFFFFFFFFFFFFFFFFFFFFFCD
:10034000FFFFFFFFFFFFFFFFFFFFFFFFFFFFFFFFBD
:10035000FFFFFFFFFFFFFFFFFFFFFFFFFFFFFFFFAD
:10036000FFFFFFFFFFFFFFFFFFFFFFFFFFFFFFFF9D
:10037000FFFFFFFFFFFFFFFFFFFFFFFFFFFFFFFF8D
:10038000FFFFFFFFFFFFFFFFFFFFFFFFFFFFFFFF7D
:10039000FFFFFFFFFFFFFFFFFFFFFFFFFFFFFFFF6D
:1003A000FFFFFFFFFFFFFFFFFFFFFFFFFFFFFFFF5D
:1003B000FFFFFFFFFFFFFFFFFFFFFFFFFFFFFFFF4D
:1003C000FFFFFFFFFFFFFFFFFFFFFFFFFFFFFFFF3D
:1003D000FFFFFFFFFFFFFFFFFFFFFFFFFFFFFFFF2D
:1003E000FFFFFFFFFFFFFFFFFFFFFFFFFFFFFFFF1D
:1003F000FFFFFFFFFFFFFFFFFFFFFFFFFFFFFFFF0D
:10040000FFFFFFFFFFFFFFFFFFFFFFFFDEF9FFFF23
:1004100010B5064C2378002B07D1054B002B02D0DA
:10042000044800E000BF0123237010BDDC0D002054
:10043000000000003C4A0000084B10B5002B03D020
:100440000749084800E000BF07480368002B00D1B7
:1004500010BD064B002BFBD09847F9E700000000C9
:10046000E00D00203C4A0000DC0D002000000000F0
:1004700070B5174C174B1B78002B25D0062002F0C7
:1004800005FA154E022803D9013C002C13D115E0C2
:1004900002F0F2FD051EF7D0002434700C260F493F
:1004A0003200083003F066FC06202E80290002F09E
:1004B0003BFA20000AE03378002B02D0012333708E
:1004C00002E003F013F8D5E70120404270BDC046BA
:1004D000B51E00004F110020F80D0020CC110020A7
:1004E000F0B507000C00164E85B033680293029BEE
:1004F0000193144B01201B78002B1AD002F0ACF9A9
:10050000051E0BD13368019A0393039B9B1AA342E8
:1005100011D8002C10D002F0E9FFEAE70100082210
:100520000831380003F026FC280002F0C3FD082043
:1005300003E0404201E000E0200005B0F0BDC0460D
:10054000B80E00204F110020002332220360828069
:10055000837170478180704713B583798B420DD0CA
:10056000074A046813680093009B1B1B8488A342FE
:1005700004D3136881710193019B0360807916BDD8
:10058000B80E00200139C9B210B5572900D99FE033
:10059000504B4F290CD9012050398840002A03D0F4
:1005A0009A7A104398728DE09A7A82439A7289E01F
:1005B000012047290BD948398840002A03D05A7AAC
:1005C000104358727EE05A7A82435A727AE03F2989
:1005D0000BD940398840002A03D01A7A1043187288
:1005E00070E01A7A82431A726CE037290BD93839D5
:1005F0008840002A03D0DA791043D87162E0DA79B2
:100600008243DA715EE02F290BD930398840002A05
:1006100003D09A791043987154E09A7982439A7181
:1006200050E027290BD928398840002A03D05A796D
:100630001043587146E05A7982435A7142E01F29AB
:100640000BD920398840002A03D01A791043187139
:1006500038E01A7982431A7134E017290BD9183916
:100660008840002A03D0DA781043D8702AE0DA787C
:100670008243DA7026E00F290BD910398840002A0E
:1006800003D09A78104398701CE09A7882439A704D
:1006900018E007290CD9012008398840002A03D026
:1006A0005A78104358700DE05A7882435A7009E026
:1006B0008840002A03D01A781043187002E01A7894
:1006C00082431A70044B1B78002B01D1FFF7D0FE38
:1006D00010BDC046CC110020080E0020074A10B5FE
:1006E000C30004001068C018FFF736FF421E904197
:1006F0002100C2B20248FFF745FF10BD9C0E00204A
:10070000790E0020802370B5181A094B7F31094AF1
:100710000D001978D07216001C00002901D1FFF7D6
:10072000A7FE23783573002B01D1FFF7A1FE70BD22
:10073000080E0020CC11002070B5094B094A0D00AD
:100740001978507316001C00002901D1FFF790FEA4
:100750002378B573002B01D1FFF78AFE70BDC04628
:10076000080E0020CC1100200A4B70B51D008142FC
:1007700000D201005973084B1A781C00002A01D1DD
:10078000FFF776FE0023AB732378002B01D1FFF730
:100790006FFE70BDCC110020080E002010B50C00BB
:1007A000C1B20E48FFF7D8FE002C05D00238C0B207
:1007B0000B4B0E2805D906E00138C0B2072802D835
:1007C000084B1B5601E001235B42074AD373074BDA
:1007D0001B78002B01D1FFF74BFE10BD2C0E002023
:1007E000D4470000E3470000CC110020080E002091
:1007F000064B10B5C0B25870054B5877054B1B78A7
:10080000002B01D1FFF734FE10BDC0467A0E002048
:10081000CC110020080E002010B50020FFF7E8FFE3
:1008200000210800FFF76EFF00210800FFF7B6FF68
:1008300000210800FFF780FF0124E0B2002101340D
:10084000FFF74CFF262CF8D1FF22044B1A70044B03
:10085000FE3A1A700022034B1A6010BD34020020C9
:10086000AD0E0020A00E002037B501F05BFC022485
:10087000E0B20221013401F05FFD0A2CF8D13221EF
:100880001C48FFF767FE1C4C1E2120688830FFF7CC
:1008900061FE20681E219030FFF75CFE0122174B9D
:1008A0001A70FFF7B9FF164D21222800002103F02E
:1008B000EBFA02220021134803F0E6FA124C002161
:1008C0002122200003F0E0FAA52300222B702370E0
:1008D0000E4B1A7001F066FD0D4B18600D4B1B6836
:1008E0000193019A0C4B1A6001F05CFD0B4B1860F0
:1008F00037BDC0462C0E00209C0E0020080E0020A4
:100900007A0E0020AB0E0020090E0020F90D002009
:10091000040E0020B80E0020000E0020FC0D002068
:1009200037B593781400012B35D1D378022B23D11E
:10093000254B1B78002B3FD101F0D0FA03280FD1B3
:10094000224D11236B70207901F0B9FBA8706079FA
:1009500001F0B5FBE870A07901F0B1FB28712BE044
:100960001B4B1C4D5B78092BEBD02379AB70637963
:10097000EB70A3792B711FE0032B1DD1154B5A7817
:10098000042A19D0124A5278092A15D02279DA712C
:1009900062791A7210E0082B0ED10E4A5378042B9C
:1009A0000AD00B4B5B78092B06D0E37821791B0228
:1009B0000B4353711B0A9371074B1B680193019AF8
:1009C000064B1A6037BDC046AD0E0020090E002050
:1009D000340E00207A0E0020B80E0020000E0020F9
:1009E000F0B5314A87B01378002B5AD02F4E304FD4
:1009F0003568002D3BD101F071FA032807D12D4B4A
:100A000002A8D97F02F044FD2B4C112309E02B4CA6
:100A100002A8E17F02F03CFD6378294C092B1BD131
:100A200008336370073BA370E3702371290002A8A9
:100A300002F04AFDA070049B012B04D9012102A8F9
:100A400002F042FDE070049B022B08D9022102A8AB
:100A500002F03AFD207102E0A570E570257102A850
:100A600002F0C6FC3B680293029B336019E03B68CE
:100A70000193019B5D1B134B9D4212D900200A2359
:100A8000112110700C4A51709370D3701371507211
:100A90000A4A5278092A04D1094A51709370D370D6
:100AA000137107B0F0BDC046AD0E0020A00E0020AF
:100AB000B80E0020580E0020090E0020340E002031
:100AC0007A0E00209F0F000010B5012001F08EFC6F
:100AD00010BDFFFFF8B5E54C00212000FFF700FD39
:100AE00081B2002903D022000120FFF719FF01F095
:100AF000F5F90400022801D100F0B1FC032801D16E
:100B000000F04EFD012801D001F0FEF8D84D212261
:100B10002900D84801F0FEF9FFF762FF6878FFF777
:100B200067FEA9796879FFF7EDFDA9782000C9096A
:100B3000FFF7D4FDA978022089092140FFF7CEFDF7
:100B4000A978032049092140FFF7C8FDA9780420AE
:100B500009092140FFF7C2FDE9780520C909FFF71F
:100B6000BDFDE978062089092140FFF7B7FDE97846
:100B7000072049092140FFF7B1FDE97809208908DC
:100B80002140FFF7ABFD29790B20C9082140FFF771
:100B9000A5FD29790C2089082140FFF79FFDE97800
:100BA0000F20C9082140FFF799FDE9781020214066
:100BB000FFF794FDEB79B04E33706B78092B29D099
:100BC000E978082009092140FFF788FDE9780A2023
:100BD00049082140FFF782FD29790D20490821406D
:100BE000FFF77CFD29790E2049092140FFF776FDAA
:100BF00000217156112001314B425941C9B2FFF712
:100C00006DFD00217156122001394B425941C9B284
:100C1000FFF764FD02226B789343042B6ED101240D
:100C2000297A1320C9082140FFF758FD297A14209A
:100C300009092140FFF752FD297A15204909214071
:100C4000FFF74CFDA97A16202140FFF747FDA97A4E
:100C50001720E1402140FFF741FDA97A18208908BB
:100C60002140FFF73BFDA97A1920C9082140FFF771
:100C700035FDA97A1A2009092140FFF72FFDA97A2D
:100C80001B2049092140FFF729FDA97A1C20890969
:100C90002140FFF723FDA97A1D20C909FFF71EFD9A
:100CA000E97A1E202140FFF719FDE97A1F20E14073
:100CB0002140FFF713FDE97A202089082140FFF742
:100CC0000DFDE97A2120C9082140FFF707FDE97AE7
:100CD000222009092140FFF701FDE97A2320490973
:100CE0002140FFF7FBFCE97A242089092140FFF726
:100CF000F5FCE97A2520C909FFF7F0FC6B78062B93
:100D000005D1697A26200907C90FFFF7E7FC0F24F0
:100D1000A87800212040FFF741FD6B78092B00D017
:100D20009AE3EB780021DB0605D5E97BA143103976
:100D30004B425941C9B20820FFF7D0FC2B79002162
:100D40007F2B06D90F23E97B994310394B42594138
:100D5000C9B21320FFF7C2FCEB7800219B0706D530
:100D60000F23E97B994310394B425941C9B20A20FC
:100D7000FFF7B4FC2B7900215B0606D50F23E97B36
:100D8000994310394B425941C9B21420FFF7A6FCD0
:100D9000EB780021DB0606D50F23E97B9943203948
:100DA0004B425941C9B22120FFF798FC2B79002111
:100DB0007F2B06D90F23E97B994320394B425941B8
:100DC000C9B22220FFF78AFCEB7800219B0706D5E9
:100DD0000F23E97B994320394B425941C9B2232063
:100DE000FFF77CFC2B7900215B0606D50F23E97BFE
:100DF000994320394B425941C9B22420FFF76EFC78
:100E0000EB780021DB0606D50F23E97B99433039C7
:100E10004B425941C9B22520FFF760FC2B790021D4
:100E20007F2B06D90F23E97B994330394B42594137
:100E3000C9B22620FFF752FCEB7800219B0706D5AC
:100E40000F23E97B994330394B425941C9B22720DE
:100E5000FFF744FC2B7900215B060FD50F23E97BBC
:100E6000994330394B425941C9B207E0A40E0020E2
:100E7000340E00207A0E0020550E00202820FFF7A7
:100E80002DFCEB780021DB0606D50F23E97B994387
:100E900040394B425941C9B22920FFF71FFC2B7939
:100EA00000217F2B06D90F23E97B994340394B4220
:100EB0005941C9B22A20FFF711FCEB7800219B07AA
:100EC00006D50F23E97B994340394B425941C9B2BA
:100ED0002B20FFF703FC2B7900215B0606D50F239F
:100EE000E97B994340394B425941C9B22C20FFF765
:100EF000F5FBEB780021DB0606D50F23E97B994350
:100F000050394B425941C9B22D20FFF7E7FB2B79ED
:100F100000217F2B06D90F23E97B994350394B429F
:100F20005941C9B22E20FFF7D9FBEB7800219B076E
:100F300006D50F23E97B994350394B425941C9B239
:100F40002F20FFF7CBFB2B7900215B0606D50F2363
:100F5000E97B994350394B425941C9B23020FFF7E0
:100F6000BDFBEB780021DB0606D50F23E97B994317
:100F700060394B425941C9B23120FFF7AFFB2B79A1
:100F800000217F2B06D90F23E97B994360394B421F
:100F90005941C9B23220FFF7A1FBEB7800219B0732
:100FA00006D50F23E97B994360394B425941C9B2B9
:100FB0003320FFF793FB2B7900215B0606D50F2327
:100FC000E97B994360394B425941C9B23420FFF75C
:100FD00085FBEB780021DB0606D50F23E97B9943DF
:100FE00070394B425941C9B23520FFF777FB2B7955
:100FF00000217F2B06D90F23E97B994370394B429F
:101000005941C9B23620FFF769FBEB7800219B07F5
:1010100006D50F23E97B994370394B425941C9B238
:101020003720FFF75BFBB64C002123795B0606D522
:101030000F23E17B994370394B425941C9B23820A3
:10104000FFF74CFBE3780021DB0606D50F23E17B9D
:10105000994380394B425941C9B23920FFF73EFBD1
:10106000237900217F2B06D90F23E17B9943803917
:101070004B425941C9B23A20FFF730FBE3780021D7
:101080009B0706D50F23E17B994380394B42594199
:10109000C9B23B20FFF722FB237900215B0606D56E
:1010A0000F23E17B994380394B425941C9B23C201F
:1010B000FFF714FBE3780021DB0606D50F23E17B65
:1010C000994390394B425941C9B23D20FFF706FB85
:1010D000237900217F2B06D90F23E17B9943903997
:1010E0004B425941C9B23E20FFF7F8FAE37800219C
:1010F0009B0706D50F23E17B994390394B42594119
:10110000C9B23F20FFF7EAFA237900215B0606D532
:101110000F23E17B994390394B425941C9B240209A
:10112000FFF7DCFAE3780021DB0606D50F23E17B2D
:101130009943A0394B425941C9B24120FFF7CEFA39
:10114000237900217F2B06D90F23E17B9943A03916
:101150004B425941C9B24220FFF7C0FAE37800215F
:101160009B0706D50F23E17B9943A0394B42594198
:10117000C9B24320FFF7B2FA237900215B0606D5F6
:101180000F23E17B9943A0394B425941C9B2442016
:10119000FFF7A4FAE3780021DB0606D50F23E17BF5
:1011A0009943B0394B425941C9B24520FFF796FAED
:1011B000237900217F2B06D90F23E17B9943B03996
:1011C0004B425941C9B24620FFF788FAE378002123
:1011D0009B0706D50F23E17B9943B0394B42594118
:1011E000C9B24720FFF77AFA237900215B0606D5BA
:1011F0000F23E17B9943B0394B425941C9B2482092
:10120000FFF76CFAE3780021DB0606D50F23E17BBC
:101210009943C0394B425941C9B24920FFF75EFAA0
:10122000237900217F2B06D90F23E17B9943C03915
:101230004B425941C9B24A20FFF750FAE3780021E6
:101240009B0706D50F23E17B9943C0394B42594197
:10125000C9B24B20FFF742FA237900215B0606D57D
:101260000F23E17B9943C0394B425941C9B24C200D
:10127000FFF734FA21790E208907C90FFFF72EFAFC
:101280000F23A27B1F4D1340022B10D16379002B3B
:101290000DD100231C49EB560A78D318FF2B01DD32
:1012A000FF2302E0DA43D21713400B700CE02978D9
:1012B0001120C909FFF712FA002169561220CB1735
:1012C000591AC90FFFF70AFA0F23A27B1A40637954
:1012D000012A02D0022A04D018E0A179D843C943D8
:1012E0000BE0FF20084A98431278FF2A02D001320F
:1012F00050430012FF21A3799943FFF735FA0AE022
:10130000340E0020550E002034020020A179D8436D
:10131000C943FFF711FA0F23E27B00211340012B91
:1013200003D122795209934319001520FFF7D6F90A
:101330000F23E27B00211340022B03D123790131DB
:101340005B0999431620FFF7C9F90F23E27B0021BF
:101350001340032B03D1237901315B0999431720F3
:10136000FFF7BCF90F23E27B00211340042B03D1CC
:10137000237901315B0999431820FFF7AFF90F2357
:10138000E27B00211340052B03D1237901315B0956
:1013900099431920FFF7A2F90F23E27B00211340A4
:1013A000062B03D1237901315B0999431A20FFF7FA
:1013B00095F90F23E27B00211340072B03D12379FA
:1013C00001315B0999431B20FFF788F90F23E27B6A
:1013D00000211340082B03D1237901315B09994384
:1013E0001C20FFF77BF96A4C0F23E27B002113409E
:1013F000092B03D1237901315B0999431D20FFF7A4
:101400006DF90F23E27B002113400A2B03D12379CE
:1014100001315B0999431E20FFF760F90F23E27B3E
:10142000002113400B2B03D1237901315B09994330
:101430001F20FFF753F90F23E27B002113400C2BF1
:1014400003D1237901315B0999432020FFF746F945
:1014500000210800FFF756F9022400F05CFC4D4D16
:101460004D4F020029000023380000F097FD0720AF
:10147000FFF7BEF9FFF7B4FA484B0126987800F061
:10148000F3FD2200387041232900380000F086FD6A
:101490001E23287801211840FFF780F929780D20B4
:1014A0003140FFF71BF93D4BD87800F0DDFD2200FD
:1014B000230038702900380000F070FD29780B20D7
:1014C0003140FFF70BF92978052089083140FFF7F3
:1014D00005F929780E20C9083140FFF7FFF829786F
:1014E000062009093140FFF7F9F82C4B187900F074
:1014F000BBFD4423220038702900380000F04EFD67
:1015000029780F203140FFF7E9F829780920F140C8
:101510003140FFF7E3F829780A2089083140FFF7C6
:10152000DDF829780820C9083140FFF7D7F8297875
:10153000072009093140FFF7D1F8184A174B907975
:101540005B790002184300F0A3FD082322003870E5
:101550002900380000F022FD297810203140FFF7E3
:10156000BDF829783000F1403140FFF7B7F829780D
:10157000200089083140FFF7B1F829780320C90815
:101580003140FFF7ABF829780420090931405DE7C5
:10159000340E0020560E0020AB0E00207A0E0020E4
:1015A0000F260127E14D21222900E14800F02EFD00
:1015B000FFF716FA6878FFF71BF9A878002130408A
:1015C000FFF7ECF8A9780120C909FFF787F8A97897
:1015D000022089093940FFF781F8A97820004909DC
:1015E0003940FFF77BF8A978042009093940FFF753
:1015F00075F8E9780520C909FFF770F8E978062041
:1016000089093940FFF76AF8E97807204909394024
:10161000FFF764F8E978092089083940FFF75EF898
:10162000EB782C000021DB0605D5E97BB1431039AE
:101630004B425941C9B20820FFF750F823790021E5
:101640007F2B06D90F23E17B994310394B42594137
:10165000C9B21320FFF742F8E37800219B0706D5B3
:101660000F23E17B994310394B425941C9B20A20FB
:10167000FFF734F8237900215B0606D50F23E17BC1
:10168000994310394B425941C9B21420FFF726F84B
:10169000E3780021DB0606D50F23E17B994320394F
:1016A0004B425941C9B22120FFF718F82379002194
:1016B0007F2B06D90F23E17B994320394B425941B7
:1016C000C9B22220FFF70AF8E37800219B0706D56C
:1016D0000F23E17B994320394B425941C9B2232062
:1016E000FEF7FCFF237900215B0606D50F23E17B83
:1016F000994320394B425941C9B22420FEF7EEFFED
:10170000E3780021DB0606D50F23E17B99433039CE
:101710004B425941C9B22520FEF7E0FF2379002151
:101720007F2B06D90F23E17B994330394B42594136
:10173000C9B22620FEF7D2FFE37800219B0706D529
:101740000F23E17B994330394B425941C9B22720DD
:10175000FEF7C4FF237900215B0606D50F23E17B4A
:10176000994330394B425941C9B22820FEF7B6FFA0
:10177000E3780021DB0606D50F23E17B994340394E
:101780004B425941C9B22920FEF7A8FF2379002115
:101790007F2B06D90F23E17B994340394B425941B6
:1017A000C9B22A20FEF79AFFE37800219B0706D5ED
:1017B0000F23E17B994340394B425941C9B22B2059
:1017C000FEF78CFF237900215B0606D50F23E17B12
:1017D000994340394B425941C9B22C20FEF77EFF54
:1017E000E3780021DB0606D50F23E17B99435039CE
:1017F0004B425941C9B22D20FEF770FF23790021D9
:101800007F2B06D90F23E17B994350394B42594135
:10181000C9B22E20FEF762FFE37800219B0706D5B0
:101820000F23E17B994350394B425941C9B22F20D4
:10183000FEF754FF237900215B0606D50F23E17BD9
:10184000994350394B425941C9B23020FEF746FF07
:10185000E3780021DB0606D50F23E17B994360394D
:101860004B425941C9B23120FEF738FF237900219C
:101870007F2B06D90F23E17B994360394B425941B5
:10188000C9B23220FEF72AFFE37800219B0706D574
:101890000F23E17B994360394B425941C9B2332050
:1018A000FEF71CFF237900215B0606D50F23E17BA1
:1018B000994360394B425941C9B23420FEF70EFFBB
:1018C000E3780021DB0606D50F23E17B99437039CD
:1018D0004B425941C9B23520FEF700FF2379002160
:1018E0007F2B06D90F23E17B994370394B42594135
:1018F000C9B23620FEF7F2FEE37800219B0706D539
:101900000F23E17B994370394B425941C9B23720CB
:10191000FEF7E4FE237900215B060BD50F23E17B64
:10192000994370394B425941C9B203E0580E002027
:10193000090E00203820FEF7D1FEE3780021DB06F7
:1019400006D50F23E17B994380394B425941C9B2F7
:101950003920FEF7C3FE237900217F2B06D90F2300
:10196000E17B994380394B425941C9B23A20FEF795
:10197000B5FEE37800219B0706D50F23E17B994351
:1019800080394B425941C9B23B20FEF7A7FEDB4CE0
:10199000002123795B0606D50F23E17B994380392B
:1019A0004B425941C9B23C20FEF798FEE378002132
:1019B000DB0606D50F23E17B994390394B42594111
:1019C000C9B23D20FEF78AFE237900217F2B06D97C
:1019D0000F23E17B994390394B425941C9B23E20D4
:1019E000FEF77CFEE37800219B0706D50F23E17B01
:1019F000994390394B425941C9B23F20FEF76EFEE0
:101A0000237900215B0606D50F23E17B99439039AA
:101A10004B425941C9B24020FEF760FEE3780021F5
:101A2000DB0606D50F23E17B9943A0394B42594190
:101A3000C9B24120FEF752FE237900217F2B06D93F
:101A40000F23E17B9943A0394B425941C9B242204F
:101A5000FEF744FEE37800219B0706D50F23E17BC8
:101A60009943A0394B425941C9B24320FEF736FE93
:101A7000237900215B0606D50F23E17B9943A0392A
:101A80004B425941C9B24420FEF728FEE3780021B9
:101A9000DB0606D50F23E17B9943B0394B42594110
:101AA000C9B24520FEF71AFE237900217F2B06D903
:101AB0000F23E17B9943B0394B425941C9B24620CB
:101AC000FEF70CFEE37800219B0706D50F23E17B90
:101AD0009943B0394B425941C9B24720FEF7FEFD48
:101AE000237900215B0606D50F23E17B9943B039AA
:101AF0004B425941C9B24820FEF7F0FDE37800217E
:101B0000DB0606D50F23E17B9943C0394B4259418F
:101B1000C9B24920FEF7E2FD237900217F2B06D9C7
:101B20000F23E17B9943C0394B425941C9B24A2046
:101B3000FEF7D4FDE37800219B0706D50F23E17B58
:101B40009943C0394B425941C9B24B20FEF7C6FDFB
:101B5000237900215B0606D50F23E17B9943C03929
:101B60004B425941C9B201254C20FEF7B7FD2179FE
:101B70000C2089082940FEF7B1FD21790E20E940AB
:101B80002940FEF7ABFDE1780F20C9082940FEF798
:101B9000A5FDE17810202940FEF7A0FD07210F23C5
:101BA0006156574D2970A27B1340022B0ED16379E9
:101BB000002B0BD1534A13785918FF2901DDFF215F
:101BC00002E0CB43DB17194011700BE0C90F112065
:101BD000FEF784FD002169561220CB17591AC90F50
:101BE000FEF77CFD0F23A27B1A406379012A02D005
:101BF000022A04D012E0A179D843C9430BE0FF20A8
:101C0000404A98431278FF2A02D001325043001212
:101C1000FF21A3799943FEF7A7FD04E0A179D843FA
:101C2000C943FEF789FD0F23E27B00211340012BFE
:101C300003D122795209934319001520FEF74EFD76
:101C40000F23E27B00211340022B03D123790131C2
:101C50005B0999431620FEF741FD0F23E27B00212B
:101C60001340032B03D1237901315B0999431720DA
:101C7000FEF734FD0F23E27B00211340042B03D138
:101C8000237901315B0999431820FEF727FD0F23C3
:101C9000E27B00211340052B03D1237901315B093D
:101CA00099431920FEF71AFD0F23E27B0021134010
:101CB000062B03D1237901315B0999431A20FEF7E2
:101CC0000DFD0F23E27B00211340072B03D1237965
:101CD00001315B0999431B20FEF700FD0F23E27BD6
:101CE00000211340082B03D1237901315B0999436B
:101CF0001C20FEF7F3FCFFF777FBC046580E0020D0
:101D0000550E002034020020FEF786FD0A2000F068
:101D10006DFBFFF7A1FB200000F0FCFA41424141BE
:101D2000200001344B30C9B2C0B2E4B2FEF7D6FC99
:101D30000A2CF0D100F036FB074C2368984208D3F8
:101D4000C01A064B984204D9FEF792FB00F02AFB1A
:101D50002060FEF7B9FEF8BDFC0D002087130000DF
:101D6000B22070B5800001F0BBFBB2230500040077
:101D70009B00C61820000834FEF7E6FBB442F9D1F8
:101D8000024B03481D60FEF7DFFB70BD9C0E002078
:101D90002C0E002010B5084C2368002B08D072B61A
:101DA000064A246813682340054C2360136062B61A
:101DB000044BD870597010BD9011002080E100E0F4
:101DC0009411002000600740044B98711A7852B2B9
:101DD000002AFBDA014B9879C0B2704700600740D7
:101DE000044B1B68002B03D0034B1A68034B1A608B
:101DF0007047C046901100209411002000E100E0DF
:101E000003004118FF2010B5044C8B4204D01A780F
:101E100001335040205CF8E710BDC0463502002079
:101E2000F8B502242B4B59781878FFF7B3FF00213F
:101E30000A2000F04FFA284B1B68DB0001D0013B61
:101E4000FDD10020FFF7C0FF0500522807D1202652
:101E50000020013EFFF7B8FF002EF9D129E0D2287B
:101E600007D13F260020013EFFF7AEFF002EF9D13B
:101E70001FE0E0281DD000281BD0232700260020CB
:101E8000FFF7A2FFA52E02D109280CD103E0522EA4
:101E900009D1842807D11F250020013DFFF794FFB9
:101EA000002DF9D104E0013F0600002FE7D100E04A
:101EB000350001210A2000F00DFAFFF791FF5023B1
:101EC000013BFDD1013C002CACD10A2000F08EFA80
:101ED0002800F8BDAF0E00204003002010B50C4CC8
:101EE0002378002B12D1FFF79BFF0323A5280CD0EA
:101EF00002D8522806D007E0D22803D00223E028D7
:101F000003D001E0012300E000232370207810BDFE
:101F1000AE0E0020F7B5561E07000C00F1B201927C
:101F2000FFF76EFF7B1CD8771A4B0025597818787D
:101F3000FFF730FF00210A2000F0CCF9019B9D4201
:101F400005DA785DFFF740FF60550135F6E70121BE
:101F50000A2000F0BFF9FFF743FF7F2322781340E8
:101F6000522B0ED123001A1B964207DD1A7851001E
:101F70005A78D2090A431A700133F4E7A35D5B0073
:101F8000A355012223789343A42B02D00022024BB5
:101F90001A70F7BDAF0E0020AE0E0020F7B5060098
:101FA0000F000225019243700024154B59781878D0
:101FB000FFF7F0FE00210A2000F08CF9114B1B689E
:101FC000DB00A34201D0013BFDD1019B9C4205DA1D
:101FD000305DFFF7F9FE38550134F6E701210A209C
:101FE000013D00F077F9FFF7FBFE002DDCD173789F
:101FF000002B04D13B78E02B01D0034B1D70F7BDC3
:10200000AF0E002040030020AE0E0020F8B50E00F9
:10201000511E0500C9B21700FFF7F2FE6B1CD877FE
:102020000F4B002459781878FFF7B4FE00210A20DE
:1020300000F050F9BC4205DA285DFFF7C5FE3055C7
:102040000134F7E701210A2000F044F9FFF7C8FE48
:102050003378A52B02D00022024B1A70F8BDC0467F
:10206000AF0E0020AE0E00200100002270B510005F
:10207000C9430125054C0B001341165D2B40B340AD
:1020800001321843C0B2082AF5D170BD35030020D3
:10209000C0225200FF23104200D0103B60221042A9
:1020A00000D0AF231822104200D0BF2306221042D6
:1020B00000D0FE23C20700D5AE23180070470300EE
:1020C0005220502B2DD014D829380F2B29D006D8C8
:1020D0002838062B25D00630834222D020E000206D
:1020E0003F2B1ED003304F2B1BD02530392B17D15F
:1020F00017E005206D2B14D009D803385B2B10D0C6
:102100000230662B0DD04A30542B09D109E006204D
:102110007D2B06D002307F2B03D001306F2B00D0F7
:102120000A20704710B501210A2000F005F90121AD
:102130000A2000F0CFF801F029FA2022014B5A7052
:1021400010BDC04600600740502200215420054BBE
:102150001A70403A59709A70034B187059709A70FF
:102160007047C046AF0E0020B20E00201B4B1C4A29
:1021700019781C4B082901D1002102E00A2903D15A
:102180002E311160132206E00C2901D1283100E024
:102190003C21116012221A60134B1A78134B002A4B
:1021A00001D0002200E001221A60114B1A78114B75
:1021B000012A01D880220CE0042A01D8842208E0F8
:1021C000082A01D8852204E0102A01D8862200E0DE
:1021D00087221A600122084B1A70704744030020BE
:1021E00008B003400CB00340B60E002020B00340FE
:1021F0004503002024B00340B50E002070B58025B3
:102200008026ED02F6000B4C23682B4201D000F033
:10221000C9FB2368334201D000F07AF923681B051B
:1022200001D500F0E1F92368DB04ECD500F048FAB1
:10223000E9E7C0463480044010B5FFF7DFFFFFFF39
:102240000022014B1A607047008104407047FFFF75
:102250000A49030010B50868002B0DD06A46084CE7
:10226000C3181219934206D301F09CFA0C230360A1
:102270000120404200E00B6010BDC0464803002032
:1022800000FEFFFFF8B506000D001700002439001E
:10229000300001F053FA0B003733DBB2092901D8C3
:1022A0003031CBB230002B55390001F0C1F9061E98
:1022B00001D00134EBE72B1958702B005A1B9442C4
:1022C00006DD1A78295D19702A550133013CF5E7BE
:1022D0002800F8BD10B51A2818D80C2358430C4A0A
:1022E000835810181C7D027A224205D0002901D0A3
:1022F0001A710BE01A7209E043681A68002902D0CB
:1023000003210A4301E002218A431A6010BDC0463E
:10231000EC47000000231A280AD80C335843054A1A
:1023200083581018007A1B7C0340581E8341DBB28F
:1023300018007047EC470000F0B51A282FD80C227F
:1023400017004743164CE5196B682600012901D098
:10235000042911D1504334583018257D027A2020A9
:102360002A432275A22252001A601A68042901D158
:10237000024313E0824311E038592C7A027DA243D4
:1023800002758022002908D0022902D10422FF32DE
:1023900004E00022032901D1812252001A60F0BD1D
:1023A000EC47000072B60C4B1A680C4B18680C4BCB
:1023B0001B6862B65B0104D5322393429B415B42AA
:1023C000C018084B9A1A084B5A43FA239B005843EB
:1023D000920D10187047C04618E000E0B80E0020BB
:1023E00004ED00E0BF5D0000ABAA020070B5040080
:1023F000FFF7D8FF0500002C0FD0FFF7D3FF074BE6
:10240000401B984206D9013C002C06D0FA239B00C1
:10241000ED18F2E701F06AF8EFE770BDE70300009E
:1024200080221E4BD20510B51A60802200201206B1
:102430001A601B4B1B4918601B4B1C4A1960282350
:1024400013601B4A1B4C13601B4A13601B4A13602A
:102450001B4A13601B4A1360092222601A4C206039
:102460001A4C21601A4C23601A4C23601A4C2260CB
:102470001A4C20601A4801601A490B601A490B6017
:102480001A4B1A60FFF772FE1920FFF7AFFF00F03A
:102490009BFD1420FF30FFF7A9FF10BD00E100E015
:1024A00004800340FFBF0000088003400C8003400D
:1024B00014800340008003401C80034024800340BC
:1024C0002C80034034800340049003400890034074
:1024D0000C900340149003400090034004A003407C
:1024E00008A003400CA0034014A0034000A0034038
:1024F000054B1878054BC0B21A78D3B2984200D277
:102500004030C01A7047C0463F0F0020BD0E00206B
:1025100030B5234A13799B0611D5224BD47918780C
:1025200019000130E4B200233F2800DC03001E48FC
:102530000078834203D01D48C454DBB20B70D178BD
:102540001748C9B24BB2002B17DA03795BB2002BE4
:1025500013DA174B174C1D782378DBB29D4202D15A
:102560006C23C37009E001333F2B00D900231248CC
:10257000C05CDBB2C0B2D0712370402319420ED0D0
:10258000117919420BD000210C4B19700C4B1B68B0
:102590008B4202D00B49097819722C23D37030BDBD
:1025A00000A006403F0F0020BD0E0020FE0E0020C0
:1025B000480F0020400F0020BE0E0020BC0E00205F
:1025C000440F00203E0F0020054B1878054BC0B289
:1025D0001A78D3B2984200D24030C01A7047C04631
:1025E000B40F00204A0F002030B5234A13799B0610
:1025F00011D5224BD479187819000130E4B20023A8
:102600003F2800DC03001E480078834203D01D48A9
:10261000C454DBB20B70D1781748C9B24BB2002B4F
:1026200017DA03795BB2002B13DA174B174C1D78BE
:102630002378DBB29D4202D16C23C37009E00133E1
:10264000272B00D900231248C05CDBB2C0B2D07186
:102650002370402319420ED0117919420BD000216A
:102660000C4B19700C4B1B688B4202D00B4909783C
:1026700019722C23D37030BD00B00640B40F002077
:102680004A0F0020730F0020BC0F0020B50F002060
:102690004B0F0020490F0020B80F0020B30F00207F
:1026A000054B1878054BC0B21A78D3B2984200D2C5
:1026B0004030C01A7047C04630100020C50F0020BF
:1026C00030B52C4A13799B0623D52B4BD479187837
:1026D00019000130E4B200233F2800DC0300274842
:1026E0000078834203D02648C454D8B208702549E4
:1026F000086800280DD024490978C9B28B4201D35B
:102700005B1A01E05B1A4033272B02DD1F4B1B785D
:102710000371D1781748C9B24BB2002B17DA03798D
:102720005BB2002B13DA1A4B174C1D782378DBB2FF
:102730009D4202D16C23C37009E00133272B00D9DD
:1027400000231448C05CDBB2C0B2D07123704023B8
:1027500019420ED0117919420BD000210E4B19707D
:102760000E4B1B688B4202D00D49097819722C233D
:10277000D37030BD00C0064030100020C50F0020CF
:10278000EF0F0020C00F002031100020EE0F0020BE
:1027900038100020C60F0020C40F00203410002085
:1027A0002F10002030B585B072B670224121154B34
:1027B0001A70154A1170154A3239117080221A7038
:1027C0001A7852B2002AFBDA114B186862B6114B24
:1027D000984201D80A23584301AC0A222100FFF78E
:1027E00051FD00230C48E15C0500002905D05A008A
:1027F0008218013351800A2BF5D101335B002B7015
:1028000005B030BD00000240070002400600024053
:10281000080002407F969800780500200223F0B55A
:102820000A4A0B4E1478C8272343DB00F51868606A
:1028300008480578002D00D1403F09040F43F750A8
:1028400001235D405C4005701470F0BDC010002095
:1028500000F8FF1F50110020431E10B50020062B6A
:102860000ED872B6074A99008858002807D04468E5
:102870005B008C50044904885A5A121B5A5262B6A3
:1028800010BDC046A4100020EC110020431E002003
:10289000062B09D872B6054A9B009B58002B02D024
:1028A00001305B68FAE762B67047C0460411002049
:1028B000F8B572B60123174A082594461E0016493A
:1028C00064465A1EA25C2A421AD05F017C589A00C4
:1028D000002C05D1CB1908305860104BCB5109E0C2
:1028E0003243D2005458002C0AD18B18083058605B
:1028F0000B4B8B500B4A1378013B137062B608E008
:102900000133082BDCD162B60022064B1A7000F0AE
:10291000D1FBF8BD3049000000F8FF1F88004000DF
:10292000C800400046110020421E10B5062A30D8CB
:10293000022380001843174BC0001B1872B6164CB8
:10294000A05C03280BD800F05FFE160402070520E8
:1029500012E0083302200FE0083304200CE00F4897
:10296000920014580E4B002C01D1115001E09858E0
:10297000416099500CE00320A0540A0008325A60CC
:10298000C822180700D4403A098809040A431A608B
:1029900062B610BD00F8FF1F5C100020041100207B
:1029A00020110020F7B5BB4B1C781D000423E4B2B6
:1029B0001C421DD0B84B1B78002B16D0B74A137899
:1029C000DBB2002B05D0013BDBB21370002B00D132
:1029D00000BEB34A1378DBB2002B06D0013BDBB25A
:1029E0001370002B01D100F09DFB0422A94B1A703B
:1029F0000822224000D177E2AA4BAB4F1B78DBB212
:102A00009C08E4001D093C19002D00D0FDE123685D
:102A100065689806000F01380C2800D9F1E100F034
:102A2000FDFDA401A401F001F001F001F001F001AD
:102A3000F001CD01F001F001F0010D006B689B4E3B
:102A40009B49736000230B6001219A482A6820602B
:102A5000994C32602170994C92B23B61BB610190FC
:102A6000A2421BD8D020C000824200D3F0E08120D7
:102A70004000824200D1CDE006D8802A00D1B2E0E9
:102A8000822A00D1B4E000E18D4B9A4200D1D0E01F
:102A9000FF33FF339A4200D13EE1F6E0894882429B
:102AA00000D139E111D890231B019A421AD0864BEC
:102AB0009A4200D156E1A13B9A4200D0E5E0764B24
:102AC000824C1B7823700B0028E181498A4200D197
:102AD000D3E0804B9A4200D11EE17F4B9A4200D056
:102AE000D3E03FE13C00B2786B4B7D1C1A70203480
:102AF000FF3580222368134203D06068083800F055
:102B0000D9FA0834AC42F4D100242500734BE058C4
:102B1000002805D04368009300F0CCFA0098F7E74E
:102B20006E4B18516E4BE0506E4BE058002805D0AC
:102B30004368009300F0BEFA0098F7E7694B6A4AD1
:102B400018516A4BE0506B00D052694BE85C023878
:102B5000032807D800F058FD02040204002200E018
:102B600001225A5501350434072DCFD10023012409
:102B7000604D2B70604B6149621EE3188A5C9B00BC
:102B80001A7008231A4220D000F076FA6301002858
:102B900005D0FA1808305060594AFA5003E0F8504E
:102BA0002B7801332B7000F067FA0122A300134346
:102BB000DB00002805D0FA1808305060019AFA505E
:102BC00003E0F8502B789B182B7002210023A20001
:102BD0001143C9007B5003210A438A400134BB5092
:102BE000082CC7D199E0394C23706370022395E01B
:102BF0007F22B0880240072A47D8344C92002370C5
:102C00006370404BD218022312781A4200D185E03B
:102C1000217083E07F23B2881A40072A35D8738851
:102C2000002B32D10220374992005218117881438B
:102C300029E07F23B2881A40072A26D87388002B00
:102C400023D102202F4992005218117801431AE033
:102C50007288B1882C4B5C68002C16D01888904282
:102C600009D15888884206D1120A032A01D1237853
:102C700054E01B8952E00C33EDE7244A1168244AE2
:102C80001160B178234A117047E00F221D4B1A7072
:102C900068E0C046802007404F110020C11000208E
:102CA000521100209020074000F8FF1F3C11002027
:102CB0003C100020C8004000501100208106000098
:102CC00002030000210A0000210900004711002032
:102CD000212200002123000021200000A410002058
:102CE0004010002004110020EC11002020110020D1
:102CF0005C1000204611002030C80110304900004F
:102D000088004000C020074038490000B80E00206D
:102D1000041200205C11002000231C00F5889D4255
:102D200000D91D002E00402D00D940262000310082
:102D3000FFF774FDA419AD1B03D12F00402E04D062
:102D400010E04027AF4200D92F0020003900FFF7E4
:102D500065FDE419ED1B01D1402F03D17E4B1C60B2
:102D60007E4B1D8001227E4B4AE07E4E7E4B328898
:102D70009A4211D100237D4AE95CD1540133072BDB
:102D8000FAD113680735862B02D10F22784B1A70BF
:102D900000210800FFF742FD764B32689A420AD1C3
:102DA000754B72689A4206D100212A78734B08004D
:102DB0001A70FFF733FD724B236022E0664F3E68C6
:102DC000002E13D0654B1C882500402C00D94025CF
:102DD00029003000FFF722FD641B604BA4B21C8069
:102DE000002C01D1402D00D174193C60A0225D4B14
:102DF000D2001988914204D100225A709A78614B0E
:102E00001A700122564B1A706AE008226068013D70
:102E10000838EDB2134037D000F04CF95A49A800F9
:102E200042585A4B002A1CD0566846501100585D33
:102E30000831616003280BD800F0E6FB02040608A5
:102E4000032104E0022102E0052100E0042159559C
:102E50000821C8230C4200D1403B128812041343BE
:102E60003DE0585D032808D800F0CEFB3A3A020452
:102E7000002200E001225A5532E008221440621E6E
:102E8000944102345C552BE02268110C8AB2028016
:102E900000291ED03E4943804360AB005F583D4E41
:102EA000002F01D1585001E0F15848603A496D00B7
:102EB000F0506B5AD2186A5200F0DEF8002802D0A7
:102EC0000830606005E0354A2060137801331370E4
:102ED00006E008231C4201D1314B00E0284B23605F
:102EE0000822304B1A705EE5012004421ED00223F6
:102EF0001B492B4C0B702C4B2C4E1A702C4B1C600E
:102F00009C602C4C1A61DC600D249A615E602A4B37
:102F10001C70FF23294C23701A4C2B702270284AF6
:102F200013709F22274B1A70087013E063B2002BB6
:102F300004DA0D22204B1A7080232B7002221442D7
:102F400004D01E490B78DBB20B702A7010231C4290
:102F500000D02B70F7BDC0463C100020441100206B
:102F6000942007403C11002021200000FC1100208B
:102F7000C1100020210900020200010051110020AF
:102F8000C800400098200740041100205C10002079
:102F9000A410002040100020EC1100204611002059
:102FA0008800400080200740C010002064100020EE
:102FB00000F8FF1FC4100020C020074088200740F1
:102FC0008C2007408420074010B5FFF7EBFB002260
:102FD00011001B4BD150981808324160E82AF9D1F2
:102FE00080201849C0020A6802430A601A0A16497A
:102FF000D2B20A701A0C1549D2B20A70144A1B0ECA
:103000001370FF23134A00201370134A13491370DF
:10301000134A137001220A701249087012490A708B
:10302000124A116899430B0070210B4313608022F0
:103030000F4B52041A6010220E4B1A7010BDC0467E
:1030400000F8FF1F348004409C200740B020074058
:10305000B420074080200740882007409420074084
:1030600010200740002107408420074018E400E0BA
:1030700000E100E00821074070B572B60B4D2C68E6
:10308000200000F061FB1D2802DD62B600200CE08C
:1030900080231B06C3409C432C6062B648235843E0
:1030A000034B181800230360436070BD9005002097
:1030B000C0F9FF1F10B504000E484821201A00F087
:1030C000B7FA1D2814D80C4B1B78002B07D00B4BDC
:1030D0001B78002B03D02000FFF7EAFB08E072B654
:1030E00080231B06C340064A11680B43136062B677
:1030F00010BDC046C0F9FF1F461100204F1100202F
:1031000090050020054B9888054B1A68002A03D0CB
:10311000138852889B1AC0187047C046EC110020D3
:103120005811002070B50E4B1C78E4B2002C15D15C
:103130000C4D2968002906D04B8804200B80FFF72E
:10314000F3FB2C600AE0FFF797FF011E03D0042079
:10315000FFF7EAFB02E00122034B1A7070BDC04684
:103160005311002054110020521100208021184AD0
:10317000F8B5136849040B4301211360154A164D35
:1031800013680B431360154B2E681C68002C12D07B
:10319000237A002B0DD0236820001B682F689847E6
:1031A0002B68E188DB1B1B099AB2A2808B4200D9F5
:1031B000E2806469EAE72B68094A9B1B1B0999B204
:1031C0001180084A1088834200D91180F8BDC0469A
:1031D000FCED00E0001000E0041000E060110020B1
:1031E0006611002064110020EFF3108072B6434294
:1031F0005841C0B27047002800D062B67047FFFF48
:1032000010B5FFF7F1FF0C4A1468002C10D0636969
:103210001360002B02D000229A6101E0074A13607C
:10322000FFF7E9FF002320006377A3689847E8E7EA
:10323000FFF7E1FF10BDC046681100206C110020AF
:1032400010B5FFF7DDFF10BD164930B50B68002B38
:1032500002D18360C36009E004681A68944207D20F
:103260000025121B8360C560D8601A60086016E0F4
:1032700002681C689968121B026000290CD00C6857
:103280000B00A242F4D28160C968A21AC160D86062
:10329000C16888601A6002E08160C36098600223A0
:1032A000037530BD7011002070B5174D2C68002CCF
:1032B00019D02368002B02D0013B236013E0A268E1
:1032C000002A00D0D360002120692A60036821759C
:1032D0001B68220098476368002BE7D0236020001A
:1032E000FFF7B2FFE2E7FFF77FFF0022074B1C6802
:1032F0001A60FFF780FF002C05D0A5682000FFF7BB
:10330000A3FF2C00F7E770BD701100208011002092
:1033100010B5034A136801331360FFF7C5FF10BDF2
:10332000B80E00207047704770477047026830B58C
:10333000002A1ED00F4B1049D3181B110F4D9C00B3
:103340006550002191600E4AFF31D15411785378B5
:103350000C4C0D4A994205D8236809041A400A43C7
:10336000226004E021681B040A4013432360002309
:10337000036030BD008FFCBF980500202B33000098
:103380009405002014E400E0FFFF00FF094B10B596
:103390001A68002A04D001221A60074B1B6898475C
:1033A000064B1A68002A04D001221A60024B5B689F
:1033B000984710BD0C710340980500201C71034014
:1033C00010B50400FFF7B2FF200010BD002310B5B8
:1033D0000448054A036005498033037100F0D2F9BF
:1033E00010BDC0468411002030020020C13300000F
:1033F00010B50400006800F009FA200010BD70B597
:1034000004000D000068013100F088FD031E01D0AA
:10341000012028C470BD436810B504008B4208D257
:10342000FFF7EDFF002805D0A368002B01D122682B
:103430001370012010BDF8B504000F00151E05D152
:103440000368002B00D01A7000230CE01100FFF776
:10345000E2FF061E09D12068002802D000F0D6F94C
:10346000266000236360A36004E0A5603900206843
:1034700000F060FF2000F8BD70B5050008000C00EA
:1034800000F060FF210002002800FFF7D4FF70BDAC
:1034900013B5002304000A2223606360A360237332
:1034A000080001A900F0C8FF01A92000FFF7E4FF10
:1034B000200016BD826800238A4203D902689A421E
:1034C00000D0535C1800704710B5FFF7F3FF10BD34
:1034D00010B5FDF7C9F9FDF7FDFA00F007F8FAE7B6
:1034E00010B500F089F910BD7047FFFF70B5234C8F
:1034F0002378002B40D101332370FFF703FE00280F
:1035000001D0FFF7F1FFFEF7F3FF002801D0FFF72E
:1035100009FFFFF759F8002801D0FFF704FFFFF774
:10352000BFF8002801D0FFF7FFFE00232370EFF360
:103530000583002B20D1EFF3108272B6104D28685E
:10354000002803D00F4C2178002903D0002A13D182
:1035500062B611E00123237043692B60002B01D078
:10356000996101E008490B60002A00D162B600258C
:10357000836845779847257070BDC0468D1100203F
:10358000781100207C110020741100208021154A40
:10359000C90313680B4313605022134BDA700022E7
:1035A0009A701B78114B1B78DA0703D49021104ACC
:1035B000890002E080210F4A890011608022920078
:1035C000990701D40C4900E00C490A605B0703D459
:1035D00090220B4B920002E080220A4B92001A606C
:1035E0007047C04634800440006007408C110020C2
:1035F00018B0044008C004401CB004400CC0044093
:1036000014B0044004C0044002B4714649084900A3
:10361000095C49008E4402BC7047C04603B4714641
:10362000490840004900095A49008E4403BC7047CC
:10363000002243088B4274D303098B425FD3030AF1
:103640008B4244D3030B8B4228D3030C8B420DD304
:10365000FF22090212BA030C8B4202D31212090292
:1036600065D0030B8B4219D300E0090AC30B8B42D0
:1036700001D3CB03C01A5241830B8B4201D38B037E
:10368000C01A5241430B8B4201D34B03C01A524123
:10369000030B8B4201D30B03C01A5241C30A8B4266
:1036A00001D3CB02C01A5241830A8B4201D38B0251
:1036B000C01A5241430A8B4201D34B02C01A5241F5
:1036C000030A8B4201D30B02C01A5241CDD2C30967
:1036D0008B4201D3CB01C01A524183098B4201D3E3
:1036E0008B01C01A524143098B4201D34B01C01ACE
:1036F000524103098B4201D30B01C01A5241C30846
:103700008B4201D3CB00C01A524183088B4201D3B4
:103710008B00C01A524143088B4201D34B00C01AA0
:103720005241411A00D20146524110467047FFE70C
:1037300001B5002000F006F802BDC0460029F7D010
:1037400076E770477047C0461C2101231B0498424E
:1037500001D3000C10391B0A984201D3000A083922
:103760001B09984201D30009043902A2105C4018D9
:103770007047C0460403020201010101000000007D
:10378000000000000B0010B50100180000F002F866
:1037900010BDC04610B513000A000100022000F061
:1037A0004FFE10BD014B18687047C046C809002085
:1037B00070B50D4E0D4D0024AD1BAD1005D0A3000E
:1037C000F35801349847A542F9D101F025F9084E84
:1037D000084D0024AD1BAD1005D0A300F3580134F3
:1037E0009847A542F9D170BD244A0000244A000040
:1037F000244A0000384A000010B5034B0100186845
:1038000000F00EF810BDC046C809002010B5034BEB
:103810000100186800F0FCFE10BDC046C809002079
:10382000F0B55F464D4656464446F0B40D000B35A4
:1038300083B00700162D00D8A8E007239D4300D5CC
:10384000CEE0A94200D9CBE000F064FBF823FF33BF
:103850009D4200D884E26B0A00D1C5E0042B00D958
:103860006CE13823A9099C460133984688444346B5
:103870008C445900C94E890071180839CC68A1429E
:1038800017D0032362689A431300521B0F2A00DDEE
:10389000B0E00320002A09DB8DE0636883435A1BF4
:1038A0000F2A00DDA6E0002A00DB84E0E468A142E4
:1038B000F3D143460093320034690832944200D178
:1038C0008FE10323616899430B00481B0F2800DD3B
:1038D00076E172613261002871DAB14A914200D911
:1038E00034E10123C8088210934072681A43C30070
:1038F0009B1998687260E360A0609C601300C460CC
:10390000012000998A109040984200D975E0034246
:103910000CD1032291430A1D40000092034205D1BD
:10392000009A4000043200920342F9D003239846E3
:10393000009AD3009946B144CC4692466346DC686F
:10394000A44507D14FE1002A00DB5FE1E468A4450C
:1039500000D148E14246636893435A1B0F2AF2DDC7
:10396000012163190D436560E068A5680836E860C9
:1039700011438560F360B3603800DE609E6059607B
:103980009A5000F0C9FA2000083022E0102927D808
:10399000380000F0BFFA1025062302217F4E9B005D
:1039A000F3181A005C68083A944200D127E1032317
:1039B00062689A431300E268A168CA6091600122BC
:1039C000E318596838000A435A6000F0A5FA20004D
:1039D000083003B03CBC90469946A246AB46F0BDC9
:1039E0000C2300203B60F4E740239846013B8021F4
:1039F0009C463FE7634600935DE70323B468626833
:103A00009A439046AA4203D3521B0F2A00DD87E057
:103A100023004344634A0193634B93461B68126837
:103A2000EB18013200D157E1604A944663441B0B06
:103A30001B0300930099380000F06AFC03008146E4
:103A4000013361D0019B834200D9FDE0584B009ABD
:103A50009A461B689C46534662441A60019B1100BB
:103A60004B4500D143E15B461B68013300D14FE178
:103A70004B46019A9B1A59185346196007234A4628
:103A8000134000D117E1082189464A49D21A9144CE
:103A9000C91A009B38004B441B051B0DCB1A19009B
:103AA0009B4600F035FC431C00D135E14B46C01A63
:103AB00001235844184353461B685B44190053467E
:103AC00019604B46B3605860B44213D043460F2B85
:103AD00000D8E1E04346072260680C3B9343063A76
:103AE000024005201A436260E218506090600F2B7C
:103AF00000D915E1304B1A68914200D919602F4B5B
:103B00001A68914200D919600323B46862689A4325
:103B10001300521B9D4200D9C1E00F2A00DCBEE019
:103B20000123290065191943134361603800B5600A
:103B30006B6000F0F1F9200008304AE7142B74D9CB
:103B4000542B00D9B0E0290B6E238CE64A0A042AD4
:103B500074D9142A00D9C2E010005C325B305200E4
:103B6000082149428C469200B218944462469268F9
:103B70000B318846944500D1A0E041465068884307
:103B8000834202D292689445F7D1D3689C46736809
:103B90006146A260E1608C60D460B1E6CC0900208F
:103BA000FF010000D80D0020A01100200F10000020
:103BB000A4110020081000009C1100209811002082
:103BC000012163190D430143656073613361DA605C
:103BD0009A6059601850380000F09EF920000830B3
:103BE000F7E673688CE608239B46073BDC449B465C
:103BF000DA4443465246134200D09FE633E0DC6885
:103C00008A1C0092A34200D155E6D0E60122E318B7
:103C1000596838000A435A60E368A268D3609A6022
:103C200000F07AF920000830D3E65B229446013296
:103C3000904698449C44434659001BE68A0910006C
:103C40003932383052008BE7B44200D05CE7FDE6F1
:103C5000009B013B009308235B429C46E1444B469A
:103C60009B6899457AD14346009A1342F0D1736814
:103C7000834373604000984200D9BEE6002800D11B
:103C8000BBE6034270D152460092009A40000432D3
:103C900000920342F9D04BE601234A4653603800B4
:103CA00000F03AF9002094E6AA22520093420DD87F
:103CB000E90B7723D7E580214901EAE6012380104B
:103CC0008340726813437360624661E7284A9342F7
:103CD00018D8A90C7C23C6E510330093AAE6542A11
:103CE00026D80A0B10006F326E30520038E71B05E1
:103CF00000D0B8E6009BB268434418000123034398
:103D00005360F7E67F239846013BFE219C46B1E5D0
:103D10005B464A461A60B1E6002301209B46CAE68C
:103D200021003800083100F073FC53461968E1E6C1
:103D3000AA204000824205D8CA0B100078327730A2
:103D400052000DE70A48824205D88A0C10007D32E5
:103D50007C30520004E7FE227E2001E7736889E789
:103D6000E9084B1C5B0019E653460093E0E5C046AA
:103D70005405000070B50F2A32D90C0004430B0023
:103D8000A40731D115000400103D2D0901352D0186
:103D900049191E6826605E6866609E68A660DE68D7
:103DA0001033E66010349942F3D10F2345191340C4
:103DB000032B1BD91C1F0023A4080134A400CE58D8
:103DC000EE5004339C42FAD103232D1909191A40ED
:103DD00005D00023CC5CEC5401339A42FAD170BD7B
:103DE0000500002AF5D1FAE70500F2E71A00F8E726
:103DF00070B588420BD98B18984208D2991A531E75
:103E0000002A03D0CA5CC254013BFBD270BD0F2A0A
:103E100009D80500002AF9D00023CC5CEC5401330A
:103E20009A42FAD1F2E70C0004430B00A40726D112
:103E300015000400103D2D0901352D0149191E689A
:103E400026605E6866609E68A660DE681033E66085
:103E500010349942F3D10F2445191440032C10D982
:103E60000023043CA4080134A400CE58EE500433CF
:103E70009C42FAD103232D1909191A40CAE70500FB
:103E8000CAE72200C6E7C04670B583073FD0541E7C
:103E9000002A3BD0CEB20300032503E0621E002CB3
:103EA00034D0140001335A1E16702B42F6D1032C65
:103EB00024D9FF250D402A0215432A0415430F2C4F
:103EC00011D92600103E3609013636011A009B1919
:103ED000156055609560D56010329342F8D10F227D
:103EE0001440032C0AD9261FB6080136B6001A0062
:103EF0009B1920C29342FCD103221440002C05D010
:103F0000C9B21C19197001339C42FBD170BD140059
:103F10000300CCE77047C0467047C04610B5044B5D
:103F20000A001B680100180000F004F810BDC0462C
:103F3000C8090020F0B556464D4644465F46F0B4E9
:103F4000804685B00E1E914600D1CBE03700083F79
:103F5000FFF7E0FF7A684D46032314000B35BA469D
:103F60009C43162D4AD810231025A9454AD89C42B7
:103F70007BDAD349381989680190884200D1ECE096
:103F8000406801000290012003900800012188434D
:103F9000019984468B46DC44614601204968014210
:103FA00000D17CE00121114231D049464046FFF763
:103FB00037FC8146002800D19CE10123020079688A
:103FC000083A99437F18BA4200D13CE1221F242AC3
:103FD00000D929E10300132A00D90BE1320011684E
:103FE00019605168596092689A603100404600F04B
:103FF0000FFB4046FFF790FF484649E004339D43DE
:104000002B1EB2DA0C2342460020136040E03A68CF
:10401000BA1A934659460322496891430A00A218E6
:1040200001929A42C1DB5B465A465F469268DB6862
:104030000837D3609A60221F242A00D910E13B0080
:10404000132A09D95B46316899607168D9601B2AC7
:1040500000D921E1103308363268DA461A607268F6
:10406000019C5A60B2683E009A60631B0F2B24D8F3
:104070005346012152465B680B40234353602200A4
:1040800052445368194351604046FFF745FF3000E2
:1040900005B03CBC90469946A246AB46F0BD032114
:1040A00002988C468843011999421FDB019A0C0043
:1040B000D3689268D3609A60D7E752465046511948
:1040C00001224068104005435046456018001043E7
:1040D000CB1848605868083102435A60404600F0E7
:1040E00097FAD1E71100FFF79BFBD1E701201042BF
:1040F00000D05AE760463A68BA1A9346526882433B
:1041000089180291994200DA89E7019A5F46D368DB
:1041100092680837D3609A605B465A46DB689268BB
:10412000D3609A60221F242A00D991E03B00132A11
:1041300009D95B46316899607168D9601B2A00D93A
:1041400096E0103308363268029C1A607268DA46CC
:104150005A60B2683E009A6087E70320019984465E
:1041600049688143280009191030019081424BDAD7
:10417000D20700D519E760463A68BA1A93465268E2
:104180008243019851180291884200DD47E75B465F
:104190005A465F469268DB680837D3609A60221FF0
:1041A000242A00D997E03B00132A09D95B463168DD
:1041B00099607168D9601B2A00D991E010330836E4
:1041C00032681A6072685A60B2689A605B46591920
:1041D0003B4B40469960029B5A1B01231A434A609D
:1041E0005A46526813401D435B465D60FFF794FEDC
:1041F00038004DE731680160716841601B2A17D8AB
:10420000320008330832EAE62D4B7A199A6001230E
:10421000491B194351607A68404613401D437D6035
:10422000FFF77AFE300033E73100FFF7E1FDDCE60F
:10423000B16803008160F168C160242A22D0320095
:1042400010331032CBE6536803229343E4180CE793
:1042500031003800FFF7CCFD3E00029CDA4604E74F
:1042600031003800FFF7C4FD3E00019CDA46FCE651
:104270005B46B1681961F1685961242A16D0183378
:10428000103660E732690300026101003200706994
:10429000183318324861A2E65B46B1681961F168CB
:1042A0005961242A0ED018331036D5E65B463269A0
:1042B0009A615A4671692033D161183643E7C04686
:1042C000CC0900205B4632699A615A4671692033F5
:1042D000D1611836C0E631003800FFF789FD75E777
:1042E0005B46B1681961F1685961242A07D0183317
:1042F000103665E74046FFF70FFE0020C8E65B4634
:1043000032699A615A4671692033D161183657E78C
:10431000002370B5064C050008002360FDF798FFE8
:10432000431C00D070BD2368002BFBD02B60F9E745
:1043300008120020031C0A7801311A700133002A88
:10434000F9D1704710B5830727D00378002B26D00A
:104350000300032102E01A78002A1CD001330B422B
:10436000F9D119680F4A104C8A188A4322420FD19A
:10437000043319680B4A8A188A43224208D104334D
:104380001968084A8A188A432242F1D000E00133B2
:104390001A78002AFBD1181A10BD0300E1E70020AB
:1043A000FAE7C046FFFEFEFE80808080F0B55746EB
:1043B00045464E46E0B48AB090466A461D4B0D0015
:1043C000060013CB13C213CB13C213CB13C21B783B
:1043D000EA4613704346023B2F000024222B01D9EA
:1043E00024E04C46631C300041469946FFF7A6F98D
:1043F00053465B5C30003B704146FFF719F90137CB
:10440000061EEED14B46E8540023002C07D0EA5C90
:10441000295DE9542A550133013CA342F7DB28000A
:104420000AB01CBC90469946A246F0BD2C700020F4
:10443000F6E7C046F049000010B5FFF7B7FF10BD22
:10444000F8B544465F4656464D469B462F4BF0B462
:104450001C68A4235B000500E0580E00904600286D
:104460004BD043681F2B0DDC5C1C002D21D1023387
:104470009B0044601E5000203CBC90469946A246DA
:10448000AB46F8BD224B002B3CD0C8204000FFF7C4
:10449000B3F9002836D0A42200235200A15843606B
:1044A0000160A05040328350043283500124002D1B
:1044B000DDD09A0091468144424688214F467A5089
:1044C000C42252009046804442468739994012687F
:1044D0008A460A4394464246614611608422494610
:1044E0005F4652008F50022DC1D1020055468D32D9
:1044F000FF3211680D431560B9E720004D30FF30E1
:10450000E050AEE701204042B6E7C046EC4900006B
:10451000F9370000034B10B5002B02D0024800F021
:1045200005F810BD000000003D45000010B5010079
:10453000002300220020FFF783FF10BD70B5094B58
:10454000094CE41AA41009D0084AA518AD00ED18CA
:104550002B68013C9847043D002CF9D100F06CFA1F
:1045600070BDC0460000000000000000FFFFFF3FDC
:10457000F8B50C000600FFF7CDFC204FBB685D6866
:1045800003239D431E4B2C1B9C466444240B1D4B54
:10459000013C24039C4207DD00213000FFF7B8FEF8
:1045A000BB685B19984204D03000FFF7B5FC0020CF
:1045B000F8BD61423000FFF7ABFE431C0DD0012374
:1045C0002D1BBA681D43104B55601A683000141B30
:1045D0001C60FFF7A1FC0120EAE700213000FFF793
:1045E00097FEBB68C21A0F2ADEDD08490968401A27
:1045F0000549086001210A435A60D5E7CC0900202B
:10460000EF0F0000FF0F0000A4110020D80D0020C4
:10461000F0B54746050080B40C1E3ED0FFF77AFC8B
:1046200001232100984608394E6842463300032092
:104630009343CC186268824360488768BC425AD072
:104640004746626037420BD10827BC460E68844457
:10465000891B9B198E68664566D0CF68F760BE607F
:104660000126A7187F68374236D0554A1E434E6050
:10467000CB50934214D8DB08FF3A9C10FF3AA2407B
:104680004468DB002243426018188368C8608B606E
:104690008160D9602800FFF73FFC04BC9046F0BD64
:1046A0005A0A042A4FD89C09260039343836640047
:1046B000A4000419083CA268032794424AD0506819
:1046C000B843834202D292689442F8D1D468CC6055
:1046D0008A60A160D160DDE79B183A4FA268BA42B8
:1046E00040D0E4681E43D460A260354A4E60CB508F
:1046F0009342D5D8BFE79B184246324206D10A689A
:10470000891A8C689B18CA68E260946001242E4A5A
:104710001C4312684C6081609342BBD32B4B280032
:104720001968FFF725FFB5E74646A01840683042F4
:104730003ED1A068D318E268C260906042461A4336
:104740004A60CB50A6E7142A14D816005C325B36B8
:104750005400ADE70123B610B340426813434360F1
:104760002200B4E71E43D1609160CA608A604E6047
:10477000CB508FE7542A05D81C0B26006F346E36B9
:10478000640095E7AA246400A24205D8DC0B260049
:104790007834773664008BE70D4CA24205D89C0C28
:1047A00026007D347C36640082E7FE247E267FE787
:1047B00042461A434A60CB506CE7C046CC09002001
:1047C000FF010000D4090020D40D0020A01100201A
:1047D0005405000002FF00FFFFFF04FFFFFFFFFF83
:1047E000FFFF060006FF02FFFFFF04FF420000F884
:1047F00040A0044001000000420000F844A0044032
:1048000002000000C00000F800C0044001000000E9
:10481000000000F80490044002000000000000F8CE
:104820000890044004000000C00000F81CC00440D0
:1048300080000000C00000F810C00440100000001C
:10484000C00000F808C0044004000000C00000F8E8
:104850000CC0044008000000800000F80CB00440C8
:1048600008000000800000F810B0044010000000B4
:10487000800000F818B0044040000000800000F8FC
:104880001CB0044080000000800000F814B0044018
:1048900020000000C00000F804C004400200000036
:1048A000800000F800B0044001000000400000F863
:1048B00000A0044001000000400000F804A00440F3
:1048C00002000000400000F80CA0044008000000B6
:1048D000400000F808A0044004000000C00000F8F8
:1048E00014C0044020000000C00000F818C00440BC
:1048F00040000000800000F804B004400200000006
:10490000800000F808B0044004000000020100F834
:1049100050D0044010000000020100F854D00440C0
:1049200020000000030100F878D00440400000009F
:1049300015151915151515FF00010000A00300201D
:104940001200000000020000CA030020AF000000B7
:1049500000220200790400203F0000000021020034
:104960001E04002009000000002203004C03002068
:10497000540000000021030037040020090000005B
:1049800000220400B80400205500000000210400AB
:104990005004002009000000002205000D05002041
:1049A0002800000000210500690400200900000023
:1049B000000300007405002000000000010309044A
:1049C000B2030020000000000203090436050020A5
:1049D0000000000003030904780500200000000027
:1049E000000000000000000000000000A005002002
:1049F0003031323334353637383961626364656655
:104A00006768696A6B6C6D6E6F70717273747576BE
:104A10007778797A00000000F8B5C046F8BC08BC89
:104A20009E4670471545000039040000611D0000D6
:084A300049210000CD33000014
:044A3800F8B5C046C7
:104A3C0000000000FF005EBCE2613FDD83C29C7E93
:104A4C0020A3FD1F419DC3217FFCA2401E5F01E3FB
:104A5C00BD3E6082DC237D9FC1421CFEA0E1BF5D98
:104A6C000380DE3C62BEE0025CDF81633D7C22C0E1
:104A7C009E1D43A1FF4618FAA427799BC584DA38FA
:104A8C0066E5BB5907DB856739BAE406581947A5B3
:104A9C00FB7826C49A653BD987045AB8E6A7F91B5C
:104AAC0045C6987A24F8A6441A99C7257B3A648699
:104ABC00D85B05E7B98CD2306EEDB3510F4E10F2C6
:104ACC00AC2F7193CD114FADF3702ECC92D38D6F63
:104ADC0031B2EC0E50AFF1134DCE90722C6D33D130
:104AEC008F0C52B0EE326C8ED0530DEFB1F0AE4C49
:104AFC001291CF2D73CA947628ABF517490856B48A
:104B0C00EA6937D58B5709EBB536688AD495CB292A
:104B1C0077F4AA4816E9B7550B88D6346A2B7597E3
:104B2C00C94A14F6A8742AC896154BA9F7B6E80A10
:104B3C0054D7896B350604000205070103000000F9
:104B4C00050000000A0400000C12002005010902F7
:104B5C00A1018501050919012908150025019508F0
:104B6C007501810205010930093109381581257F4C
:104B7C00750895038106050C0A38021581257F7589
:104B8C000895018106C005010902A10185020501F4
:104B9C0009300931150026FF7F751095028102C07E
:104BAC0012011001EF020140C016870473020102CA
:104BBC00030118035400650065006E007300790052
:104BCC006400750069006E006F000902AF000601F9
:104BDC0000C032080B0002020201040904000001AB
:104BEC000202010005240010010524010101042426
:104BFC000206052406000107058203100040090483
:104C0C000100020A0000000705030240000007052E
:104C1C008402400000090402000103010100092183
:104C2C0011010001223F000705810308000109045E
:104C3C0003000103000000092111010001225400AE
:104C4C0007058503080002090404000103000000A5
:104C5C00092111010001225500070586030C0001F2
:104C6C0009040500010300000009211101000122C3
:104C7C0028000705870308000405010906A1017532
:104C8C00019508050719E029E71500250181029512
:104C9C000175088103950575010508190129059110
:104CAC0002950175039103950675081500257F057E
:104CBC00071900297F8100C005010904A101150015
:104CCC00250175019520050919012920810215007E
:104CDC0025073500463B017504950165140501094E
:104CEC0039814205010901A100150026FF03750A4F
:104CFC00950409300931093209358102C0150026A5
:104D0C00FF03750A9502093609368102C0050C09A4
:104D1C0001A101750A950419002A9C021500269C14
:104D2C00028100050175089503190029B7150026A5
:104D3C00B7008100C0003E0353006500720069009B
:104D4C0061006C002F004B006500790062006F0061
:104D5C006100720064002F004D006F00750073003D
:104D6C0065002F004A006F00790073007400690021
:104D7C0063006B00040309040C0300000000000036
:104D8C000000000000000000000000000000000017
:104D9C00FFFFFFFFFFFF00002B3300002B33000051
:104DAC00000000008C080020F40800205C090020A2
:104DBC0000000000000000000000000000000000E7
:104DCC0000000000000000000000000000000000D7
:104DDC0000000000000000000000000000000000C7
:104DEC0000000000000000000000000000000000B7
:104DFC0000000000000000000000000000000000A7
:104E0C000000000000000000000000000000000096
:104E1C000000000000000000000000000000000086
:104E2C000000000000000000000000000000000076
:104E3C000000000000000000000000000000000066
:104E4C000000000000000000010000000000000055
:104E5C000E33CDAB34126DE6ECDE05000B0000001A
:104E6C000000000000000000000000000000000036
:104E7C000000000000000000000000000000000026
:104E8C000000000000000000000000000000000016
:104E9C000000000000000000000000000000000006
:1051CC000000000000000000A0050020000000000E
:1051DC0000000000CC090020CC090020D4090020DC
:1051EC00D4090020DC090020DC090020E40900209F
:1051FC00E4090020EC090020EC090020F40900204F
:10520C00F4090020FC090020FC090020040A0020FD
:10521C00040A00200C0A00200C0A0020140A0020AA
:10522C00140A00201C0A00201C0A0020240A00205A
:10523C00240A00202C0A00202C0A0020340A00200A
:10524C00340A00203C0A00203C0A0020440A0020BA
:10525C00440A00204C0A00204C0A0020540A00206A
:10526C00540A00205C0A00205C0A0020640A00201A
:10527C00640A00206C0A00206C0A0020740A0020CA
:10528C00740A00207C0A00207C0A0020840A00207A
:10529C00840A00208C0A00208C0A0020940A00202A
:1052AC00940A00209C0A00209C0A0020A40A0020DA
:1052BC00A40A0020AC0A0020AC0A0020B40A00208A
:1052CC00B40A0020BC0A0020BC0A0020C40A00203A
:1052DC00C40A0020CC0A0020CC0A0020D40A0020EA
:1052EC00D40A0020DC0A0020DC0A0020E40A00209A
:1052FC00E40A0020EC0A0020EC0A0020F40A00204A
:10530C00F40A0020FC0A0020FC0A0020040B0020F8
:10531C00040B00200C0B00200C0B0020140B0020A5
:10532C00140B00201C0B00201C0B0020240B002055
:10533C00240B00202C0B00202C0B0020340B002005
:10534C00340B00203C0B00203C0B0020440B0020B5
:10535C00440B00204C0B00204C0B0020540B002065
:10536C00540B00205C0B00205C0B0020640B002015
:10537C00640B00206C0B00206C0B0020740B0020C5
:10538C00740B00207C0B00207C0B0020840B002075
:10539C00840B00208C0B00208C0B0020940B002025
:1053AC00940B00209C0B00209C0B0020A40B0020D5
:1053BC00A40B0020AC0B0020AC0B0020B40B002085
:1053CC00B40B0020BC0B0020BC0B0020C40B002035
:1053DC00C40B0020CC0B0020CC0B0020D40B0020E5
:1053EC00D40B0020DC0B0020DC0B0020E40B002095
:1053FC00E40B0020EC0B0020EC0B0020F40B002045
:10540C00F40B0020FC0B0020FC0B0020040C0020F3
:10541C00040C00200C0C00200C0C0020140C0020A0
:10542C00140C00201C0C00201C0C0020240C002050
:10543C00240C00202C0C00202C0C0020340C002000
:10544C00340C00203C0C00203C0C0020440C0020B0
:10545C00440C00204C0C00204C0C0020540C002060
:10546C00540C00205C0C00205C0C0020640C002010
:10547C00640C00206C0C00206C0C0020740C0020C0
:10548C00740C00207C0C00207C0C0020840C002070
:10549C00840C00208C0C00208C0C0020940C002020
:1054AC00940C00209C0C00209C0C0020A40C0020D0
:1054BC00A40C0020AC0C0020AC0C0020B40C002080
:1054CC00B40C0020BC0C0020BC0C0020C40C002030
:1054DC00C40C0020CC0C0020CC0C0020D40C0020E0
:1054EC00D40C0020DC0C0020DC0C0020E40C002090
:1054FC00E40C0020EC0C0020EC0C0020F40C002040
:10550C00F40C0020FC0C0020FC0C0020040D0020EE
:10551C00040D00200C0D00200C0D0020140D00209B
:10552C00140D00201C0D00201C0D0020240D00204B
:10553C00240D00202C0D00202C0D0020340D0020FB
:10554C00340D00203C0D00203C0D0020440D0020AB
:10555C00440D00204C0D00204C0D0020540D00205B
:10556C00540D00205C0D00205C0D0020640D00200B
:10557C00640D00206C0D00206C0D0020740D0020BB
:10558C00740D00207C0D00207C0D0020840D00206B
:10559C00840D00208C0D00208C0D0020940D00201B
:1055AC00940D00209C0D00209C0D0020A40D0020CB
:1055BC00A40D0020AC0D0020AC0D0020B40D00207B
:1055CC00B40D0020BC0D0020BC0D0020C40D00202B
:0C55DC00C40D002000000200FFFFFFFFD4
:00000001FF
