:1000000000180020C1000000A92700006D27000093
:100010006D2700006D2700006D2700006D27000090
:100020006D2700006D2700006D270000A927000044
:10003000A92700006D270000C5390000953A00008F
:10004000A9270000A9270000A9270000A927000070
:10005000A9270000A9270000A9270000A927000060
:10006000A9270000A9270000A9270000A927000050
:100070007D2A0000552B00002D2C0000A927000030
:10008000A9270000A9270000A9270000A927000030
:10009000A9270000A9270000113B0000A9270000A4
:1000A000112F0000A9270000A9270000A9270000A0
:1000B000A9270000F1380000A9270000A9270000A7
:1000C000F8B502F075FB0821474A484B1A60484AC8
:1000D000484B1A60484A494B1A60494B1A780A4201
:1000E00002D01A780A431A702A22464B46481A70E0
:1000F00000234649464C1A188A4203D2E558043375
:100100001560F8E70021434B434A934201D202C3F2
:10011000FBE70023414A424958589446985004331B
:10012000C02BF9D100210326FF2580248A083D4BEE
:100130009200D2180B002F003340DB009F40106864
:100140000131B84307002000984003003B4313608F
:100150002029EBD16246344B1A608A22334B1A7045
:10016000334B663A5A707C321A709E3A9979114232
:10017000FCD0102299791142FCD10C209A792C499B
:100180000240082AFAD1053A0A713D324A71203AF2
:1001900099791142FCD0402299791142FCD0C021BA
:1001A000244A890511602021214A117014399A7955
:1001B0000A400C2AFBD1204A204B1A60204A214BCE
:1001C0001A600022204B1A60204B07321A60204A26
:1001D000204B1A6062B602F0D9FB04F045F802F039
:1001E000EDFA03F0AEFEFEE7300004F03480044088
:1001F000823F0000388004400100000F3C80044032
:1002000002D0074000E0074080000020AC0B002037
:1002100024570000AC0B0020C00F002000F9FF1F86
:100220000000000000E400E008ED00E0005006409F
:100230000040064044800440C0000505048004409E
:10024000BF5D000014E000E018E000E010E000E016
:100250000000202020ED00E0FFFFFFFFFFFFFFFF79
:10026000FFFFFFFFFFFFFFFFFFFFFFFFFFFFFFFF9E
:10027000FFFFFFFFFFFFFFFFFFFFFFFFFFFFFFFF8E
:10028000FFFFFFFFFFFFFFFFFFFFFFFFFFFFFFFF7E
:10029000FFFFFFFFFFFFFFFFFFFFFFFFFFFFFFFF6E
:1002A000FFFFFFFFFFFFFFFFFFFFFFFFFFFFFFFF5E
:1002B000FFFFFFFFFFFFFFFFFFFFFFFFFFFFFFFF4E
:1002C000FFFFFFFFFFFFFFFFFFFFFFFFFFFFFFFF3E
:1002D000FFFFFFFFFFFFFFFFFFFFFFFFFFFFFFFF2E
:1002E000FFFFFFFFFFFFFFFFFFFFFFFFFFFFFFFF1E
:1002F000FFFFFFFFFFFFFFFFFFFFFFFFFFFFFFFF0E
:10030000FFFFFFFFFFFFFFFFFFFFFFFFFFFFFFFFFD
:10031000FFFFFFFFFFFFFFFFFFFFFFFFFFFFFFFFED
:10032000FFFFFFFFFFFFFFFFFFFFFFFFFFFFFFFFDD
:10033000FFFFFFFFFFFFFFFFFFFFFFFFFFFFFFFFCD
:10034000FFFFFFFFFFFFFFFFFFFFFFFFFFFFFFFFBD
:10035000FFFFFFFFFFFFFFFFFFFFFFFFFFFFFFFFAD
:10036000FFFFFFFFFFFFFFFFFFFFFFFFFFFFFFFF9D
:10037000FFFFFFFFFFFFFFFFFFFFFFFFFFFFFFFF8D
:10038000FFFFFFFFFFFFFFFFFFFFFFFFFFFFFFFF7D
:10039000FFFFFFFFFFFFFFFFFFFFFFFFFFFFFFFF6D
:1003A000FFFFFFFFFFFFFFFFFFFFFFFFFFFFFFFF5D
:1003B000FFFFFFFFFFFFFFFFFFFFFFFFFFFFFFFF4D
:1003C000FFFFFFFFFFFFFFFFFFFFFFFFFFFFFFFF3D
:1003D000FFFFFFFFFFFFFFFFFFFFFFFFFFFFFFFF2D
:1003E000FFFFFFFFFFFFFFFFFFFFFFFFFFFFFFFF1D
:1003F000FFFFFFFFFFFFFFFFFFFFFFFFFFFFFFFF0D
:10040000FFFFFFFFFFFFFFFFFFFFFFFFDEF9FFFF23
:1004100010B5064C2378002B07D1054B002B02D0DA
:10042000044800E000BF0123237010BDAC0B002086
:100430000000000024570000084B10B5002B03D02B
:100440000749084800E000BF07480368002B00D1B7
:1004500010BD064B002BFBD09847F9E700000000C9
:10046000B00B002024570000AC0B0020000000005F
:1004700070B5174C174B01201B78002B25D002F0CC
:10048000BBFC154E022803D9013C002C13D115E00A
:1004900003F084F8051EF7D00024347020260F499D
:1004A0003200083004F0C2F901202E80290002F049
:1004B000F1FC20000AE03378002B03D00123012057
:1004C000337002E003F06EFDD4E7404270BDC046D9
:1004D000B51E0000030F0020C80B0020840F002071
:1004E000F0B507000C00164E85B033680293029BEE
:1004F0000193144B01201B78002B1AD002F062FCF0
:10050000051E0BD13368019A0393039B9B1AA342E8
:1005100011D8002C10D003F045FDEAE701000822B5
:100520000831380004F082F9280003F055F808205B
:1005300003E0404201E000E0200005B0F0BDC0460D
:100540008C0C0020030F00200023322203608280E5
:10055000837170478180704713B583798B420DD0CA
:10056000074A046813680093009B1B1B8488A342FE
:1005700004D3136881710193019B0360807916BDD8
:100580008C0C002010B5084C2368002B08D072B6E4
:10059000064A246813682340054C2360136062B642
:1005A000044BD870597010BD480F002080E100E066
:1005B0004C0F00200060074070B5040008000D00DB
:1005C00004F01CFC2368020029005B6820009847A7
:1005D00070BD10B5FFF7F0FF10BDD2B210B5002A04
:1005E00003D103681B68984713E00A2A01D0012A47
:1005F00003D1002203F0DAFA0BE0102A02D103F053
:1006000003FB06E0022A02D103F014FB01E003F031
:1006100024FB10BD70B50500FFF7CEFF04002800D5
:1006200003F0B2FA001970BD70B50400FFF7D5FFF2
:100630000500200003F0A8FA281870BD044B98713B
:100640001A7852B2002AFBDA014B9879C0B270478F
:1006500000600740044B1B68002B03D0034B1A6853
:10066000034B1A607047C046480F00204C0F002013
:1006700000E100E003004118FF2010B5044C8B425C
:1006800004D01A7801335040205CF8E710BDC04612
:10069000840000200223F7B50093514B5978187855
:1006A000FFF770FF00210A2002F0DCF84D4B1B68B9
:1006B000DB0001D0013BFDD10020FFF7BFFF0500AB
:1006C000494C4A492000FFF784FF102229002000EE
:1006D000FFF7AAFF522D14D145492000FFF79AFFDA
:1006E00020260020FFF7AAFF102201002000FFF7BC
:1006F00074FF013E3F492000FFF76BFF002EF0D151
:1007000015E0D22D17D13C492000FFF783FF3F268B
:100710000020FFF793FF102201002000FFF75DFF8C
:10072000013E34492000FFF754FF002EF0D1200095
:1007300003F02AFA3FE0E02D3DD0002D3BD02F49B9
:100740002000FFF767FF2323002601930020FFF717
:1007500075FF07002A492000FFF73BFF10223900F0
:100760002000FFF761FFA52E02D1092F1DD103E064
:10077000522E1AD1842F18D122492000FFF74AFFA8
:100780001F250020FFF75AFF102201002000FFF76D
:1007900024FF013D17492000FFF71BFF002DF0D17A
:1007A000200003F0F1F9350005E0019B3E00013B1C
:1007B0000193002BCAD101210A2002F053F8FFF760
:1007C00049FF5023013BFDD1009B013B0093002BCF
:1007D00000D062E70A2002F0BFF82800FEBDC04644
:1007E000CA0B00208C010020600300200053000091
:1007F0000C530000E0530000325300006A53000025
:10080000785300008F53000030B51A4C89B023781C
:10081000002B2CD1FFF73EFF0323A5280CD002D8D4
:10082000522806D007E0D22803D00223E02803D0C4
:1008300001E0012300E000230F496846237003F024
:100840008DFA694604A803F0C3FA217804A803F0DE
:1008500044FB0A4D0100280003F074F9280003F05E
:1008600093F904A803F036FA684603F033FA2078C7
:1008700009B030BDC90B0020B55300006003002053
:10088000F7B5561EF3B207000C00F1B200920193C7
:10089000FFF7F0FE7B1CD8772E4B0025597818788F
:1008A000FFF770FE00210A2001F0DCFF009B9D4253
:1008B00005DA785DFFF7C2FE60550135F6E70121E4
:1008C0000A2001F0CFFFFFF7C5FE7F2322781340F7
:1008D000522B18D1204D21492800FFF77AFE2178AC
:1008E00010222800FFF7A0FE23001A1B964207DD06
:1008F0001A7851005A78D2090A431A700133F4E782
:10090000A35D5B00A35501992000FFF7B3FEFE2312
:10091000671CFA7F06000340934212D00E4D104927
:100920002800FFF756FE1022F97F2800FFF755FE3A
:100930000C492800FFF74DFE102231002800FFF778
:1009400073FE012223789343A42B02D00022064B8E
:100950001A70F7BDCA0B002060030020C9530000C5
:10096000E2530000EC530000C90B0020F7B506006D
:100970000F000225019243700024154B5978187816
:10098000FFF700FE00210A2001F06CFF114B1B68ED
:10099000DB00A34201D0013BFDD1019B9C4205DA63
:1009A000305DFFF74BFE38550134F6E701210A2090
:1009B000013D01F057FFFFF74DFE002DDCD17378AC
:1009C000002B04D13B78E02B01D0034B1D70F7BD09
:1009D000CA0B00208C010020C90B0020F7B5561E61
:1009E000F6B207000D0031000192FFF743FE7B1CB9
:1009F000D8771E4B002459781878FFF7C3FD0021E3
:100A00000A2001F02FFF019B9C4205DA385DFFF7B9
:100A100015FE28550134F6E701210A2001F022FFD6
:100A2000FFF718FE31002800FFF724FE6F1CFB7F44
:100A30000600834212D00E4C0E492000FFF7C9FD7C
:100A40001022F97F2000FFF7C8FD0B492000FFF7B7
:100A5000C0FD102231002000FFF7E6FD2B78A52B0A
:100A600002D00022054B1A70F7BDC046CA0B002009
:100A700060030020E2530000EC530000C90B00208B
:100A80000100002270B51000C9430125054C0B0080
:100A90001341165D2B40B34001321843C0B2082AFF
:100AA000F5D170BD84010020C0225200FF23104206
:100AB00000D0103B6022104200D0AF231822104219
:100AC00000D0BF230622104200D0FE23C20700D56B
:100AD000AE231800704703005220502B2DD014D89D
:100AE00029380F2B29D006D82838062B25D00630D8
:100AF000834222D020E000203F2B1ED003304F2B1A
:100B00001BD02530392B17D117E005206D2B14D0C1
:100B100009D803385B2B10D00230662B0DD04A3039
:100B2000542B09D109E006207D2B06D002307F2B03
:100B300003D001306F2B00D00A20704710B501217F
:100B40000A2001F0AFFE01210A2001F08BFE03F024
:100B500079FA2022014B5A7010BDC0460060074050
:100B6000502200215420054B1A70403A59709A7057
:100B7000034B187059709A707047C046CA0B00201A
:100B8000CD0B002070B5040002F0DCFF0500200052
:100B900002F0FAFF281870BD0139C9B210B5572903
:100BA00000D99FE0504B4F290CD901205039884083
:100BB000002A03D09A7A104398728DE09A7A824381
:100BC0009A7289E0012047290BD948398840002AC8
:100BD00003D05A7A104358727EE05A7A82435A728E
:100BE0007AE03F290BD940398840002A03D01A7A8D
:100BF0001043187270E01A7A82431A726CE0372937
:100C00000BD938398840002A03D0DA791043D871DB
:100C100062E0DA798243DA715EE02F290BD930394C
:100C20008840002A03D09A791043987154E09A7949
:100C300082439A7150E027290BD928398840002A2D
:100C400003D05A791043587146E05A7982435A7159
:100C500042E01F290BD920398840002A03D01A7995
:100C60001043187138E01A7982431A7134E0172959
:100C70000BD918398840002A03D0DA781043D8708D
:100C80002AE0DA788243DA7026E00F290BD910398E
:100C90008840002A03D09A78104398701CE09A7814
:100CA00082439A7018E007290CD90120083988403E
:100CB000002A03D05A78104358700DE05A788243C6
:100CC0005A7009E08840002A03D01A78104318703F
:100CD00002E01A7882431A70044B1B78002B01D172
:100CE000FFF7C6FB10BDC046840F0020E00B0020BC
:100CF000074A10B5C30004001068C018FFF72CFCA9
:100D0000421E90412100C2B20248FFF745FF10BDCC
:100D1000740C0020500C0020802370B5181A094B69
:100D20007F31094A0D001978D07216001C00002985
:100D300001D1FFF79DFB23783573002B01D1FFF71D
:100D400097FB70BDE00B0020840F002070B5094BAD
:100D5000094A0D001978507316001C00002901D1B2
:100D6000FFF786FB2378B573002B01D1FFF780FBDB
:100D700070BDC046E00B0020840F00200A4B70B508
:100D80001D00814200D201005973084B1A781C00E3
:100D9000002A01D1FFF76CFB0023AB732378002BF3
:100DA00001D1FFF765FB70BD840F0020E00B002030
:100DB00010B50C00C1B20E48FFF7CEFB002C05D0D9
:100DC0000238C0B20B4B0E2805D906E00138C0B27C
:100DD000072802D8084B1B5601E001235B42074A53
:100DE000D373074B1B78002B01D1FFF741FB10BDDC
:100DF000480C0020F153000000540000840F002034
:100E0000E00B0020064B10B5C0B25870054B587768
:100E1000054B1B78002B01D1FFF72AFB10BDC04604
:100E2000510C0020840F0020E00B002010B50020A2
:100E3000FFF7E8FF00210800FFF76EFF0021080020
:100E4000FFF7B6FF00210800FFF780FF0124E0B2A2
:100E500000210134FFF74CFF262CF8D1FF22044B70
:100E60001A70044BFE3A1A700022034B1A6010BD30
:100E700090010020870C00207C0C002037B5FFF784
:100E80005DFE32212648FFF765FB264C1E212068B7
:100E90008830FFF75FFB20681E219030FFF75AFB78
:100EA0000122214B1A70FFF7C1FF204D21220021A2
:100EB000280003F045FD022200211D4803F040FDFB
:100EC0001C4C21220021200003F03AFDA523002222
:100ED0002370194C2B70194B194920001A70642586
:100EE000FFF798FB642001F037FD013D1549200014
:100EF000FFF76FFB002DF5D113492000FFF78AFBA8
:100F000001F006FD114B1860114B1B680193019A0B
:100F1000104B1A6001F0FCFC0F4B186037BDC04647
:100F2000480C0020740C0020E00B0020510C002025
:100F3000780C0020E10B002060030020D00B002083
:100F4000085400007653000012540000DC0B00200F
:100F50008C0C0020D80B0020D40B0020F0B5937827
:100F600089B005000E001400012B00D098E0D37862
:100F7000022B74D17E4B1B78002B00D0F0E0FFF7E2
:100F800043FC7C4F7C4D032832D111237B4E737080
:100F90002079FFF7A0FDB0706079FFF79CFDF0703D
:100FA000A079FFF798FD3900307104A802F0D6FE51
:100FB00004A9280002F0C6FD04A802F08BFE2179E6
:100FC00010222800FFF709FB6D4E28003100FFF7C3
:100FD00000FB617910222800FFF7FFFA310028009A
:100FE000FFF7F7FAA17910222800FFF7F6FAB4E02C
:100FF000644B654E5B78092B0ED1083373702079F2
:10100000FFF769FDB0706079FFF765FDF070A079BA
:10101000FFF761FD307105E02379B3706379F370F8
:10102000A37933713900684602F098FE694604A836
:1010300002F0CEFE544C04A8A17802F048FF504EB6
:10104000310002F036FFE17802F041FF310002F09A
:1010500030FF217902F03BFF0100280042E0032B22
:1010600049D1494D6B78042B07D0464B5B78092B4F
:1010700003D01379EB7153792B724449684602F01F
:101080006DFE694604A802F0A3FEE97904A802F007
:101090001EFF3B4902F00DFF297A02F018FF1FE006
:1010A000082B28D1384D6B78042B0AD0354B5B7850
:1010B000092B06D0D37812791B0213436B711B0ADC
:1010C000AB713349684602F049FE694604A802F054
:1010D0007FFEA9796B790902194304A802F0FDFE8D
:1010E00001002548FFF74EFD04A802F0F3FD684615
:1010F00002F0F0FD34E06378142B31D025496846C6
:1011000002F02CFE694604A802F062FE290004A841
:1011100002F0DDFE204902F0CCFE310002F0DDFEDF
:101120001E4902F0C6FE144D0100280002F00AFD1F
:1011300004A802F0CFFD684602F0CCFD27003B1B5F
:101140009E420ADD397810222800FFF746FA0C4942
:101150002800FFF73EFA0137F1E7280002F014FDFE
:101160000F4B1B680493049A0E4B1A6009B0F0BD34
:10117000870C00203154000060030020E10B0020A8
:10118000E0530000020C0020510C00203F540000EE
:101190004D5400005B54000071540000795400006D
:1011A0008C0C0020D80B0020F0B5314A87B01378A2
:1011B000002B5AD02F4E304F3568002D3BD1FFF712
:1011C00023FB032807D12D4B02A8D97F02F0E6FDAF
:1011D0002B4C112309E02B4C02A8E17F02F0DEFD2D
:1011E0006378294C092B1BD108336370073BA3702C
:1011F000E3702371290002A802F085FEA070049B11
:10120000012B04D9012102A802F07DFEE070049BAD
:10121000022B08D9022102A802F075FE207102E01B
:10122000A570E570257102A802F054FD3B68029399
:10123000029B336019E03B680193019B5D1B134BDC
:101240009D4212D900200A23112110700C4A5170BE
:101250009370D370137150720A4A5278092A04D1DC
:10126000094A51709370D370137107B0F0BDC04636
:10127000870C00207C0C00208C0C0020260C002009
:10128000E10B0020020C0020510C00209F0F0000F9
:1012900010B5012001F060FB10BDFFFFF0B5EA4C76
:1012A000002189B02000FFF71BF981B2002903D08B
:1012B00022000120FFF752FEFFF7A6FA06000228DF
:1012C00001D100F0C6FC032801D100F06BFD01281C
:1012D00001D001F067F9DD4C21222100DC48FFF745
:1012E000CFFAFFF761FFDB4DDB492800FFF771F90B
:1012F0000026A15D10222800FFF76FF90136D749BB
:101300002800FFF766F9212EF3D12800012502F00D
:101310003BFC6078FFF776FDA1796079FFF7FCFC74
:10132000A1780120C909FFF7E3FCA178022089090F
:101330002940FFF7DDFCA178032049092940FFF788
:10134000D7FCA178042009092940FFF7D1FCE178F6
:101350000520C909FFF7CCFCE1780620890929405E
:10136000FFF7C6FCE178072049092940FFF7C0FCD8
:10137000E178092089082940FFF7BAFC21790B2080
:10138000C9082940FFF7B4FC21790C2089082940BD
:10139000FFF7AEFCE1780F20C9082940FFF7A8FC51
:1013A000E17810202940FFF7A3FCE379AC4E3370BD
:1013B0006378092B29D0E178082009092940FFF733
:1013C00097FCE1780A20E9402940FFF791FC217958
:1013D0000D20E9402940FFF78BFC21790E204909B7
:1013E0002940FFF785FC00217156112049194A4216
:1013F0004A41D1B2FFF77CFC00217156122001391D
:101400004A424A41D1B2FFF773FC02226378934308
:10141000042B6ED10125217A1320C9082940FFF73A
:1014200067FC217A142009092940FFF761FC217A21
:10143000152049092940FFF75BFCA17A16202940B5
:10144000FFF756FCA17A1720E9402940FFF750FC2E
:10145000A17A182089082940FFF74AFCA17A1920AF
:10146000C9082940FFF744FCA17A1A20090929403C
:10147000FFF73EFCA17A1B2049092940FFF738FC01
:10148000A17A1C2089092940FFF732FCA17A1D208E
:10149000C909FFF72DFCE17A1E202940FFF728FC3F
:1014A000E17A1F20E9402940FFF722FCE17A202061
:1014B00089082940FFF71CFCE17A2120C90829404E
:1014C000FFF716FCE17A222009092940FFF710FCFA
:1014D000E17A232049092940FFF70AFCE17A242018
:1014E00089092940FFF704FCE17A2520C909FFF7A3
:1014F000FFFB6378062B05D1617A26200907C90F07
:10150000FFF7F6FB0F25A07800212840FFF750FCDD
:101510006378092B01D001F04AF8E3780021DB065B
:1015200005D5E17BA94310394A424A41D1B208208E
:10153000FFF7DEFB237900217F2B06D90F23E17B08
:10154000994310394A424A41D1B21320FFF7D0FBE8
:10155000E37800219B0706D50F23E17B99431039DF
:101560004A424A41D1B20A20FFF7C2FB2379002147
:101570005B0606D50F23E17B994310394A424A4165
:10158000D1B21420FFF7B4FBE3780021DB0606D5C7
:101590000F23E17B994320394A424A41D1B22120AD
:1015A000FFF7A6FB237900217F2B06D90F23E17BD0
:1015B000994320394A424A41D1B22220FFF798FB91
:1015C000E37800219B0706D50F23E17B994320395F
:1015D0004A424A41D1B22320FFF78AFB23790021F6
:1015E0005B0606D50F23E17B994320394A424A41E5
:1015F000D1B22420FFF77CFBE3780021DB0606D57F
:101600000F23E17B994330394A424A41D1B2252028
:10161000FFF76EFB237900217F2B06D90F23E17B97
:10162000994330394A424A41D1B22620FFF760FB44
:10163000E37800219B0715D50F23E17B99433039CF
:101640004A424A41D1B20DE0800C0020020C002039
:10165000510C0020600300207E540000E053000085
:10166000230C00202720FFF743FB237900215B0692
:1016700006D50F23E17B994330394A424A41D1B222
:101680002820FFF735FBE3780021DB0606D50F2382
:10169000E17B994340394A424A41D1B22920FFF7C0
:1016A00027FB237900217F2B06D90F23E17B994368
:1016B00040394A424A41D1B22A20FFF719FBE37868
:1016C00000219B0706D50F23E17B994340394A420D
:1016D0004A41D1B22B20FFF70BFB237900215B0697
:1016E00006D50F23E17B994340394A424A41D1B2A2
:1016F0002C20FFF7FDFAE3780021DB0606D50F2347
:10170000E17B994350394A424A41D1B22D20FFF73B
:10171000EFFA237900217F2B06D90F23E17B994330
:1017200050394A424A41D1B22E20FFF7E1FAE3781C
:1017300000219B0706D50F23E17B994350394A428C
:101740004A41D1B22F20FFF7D3FA237900215B065B
:1017500006D50F23E17B994350394A424A41D1B221
:101760003020FFF7C5FAE3780021DB0606D50F230A
:10177000E17B994360394A424A41D1B23120FFF7B7
:10178000B7FA237900217F2B06D90F23E17B9943F8
:1017900060394A424A41D1B23220FFF7A9FAE378D0
:1017A00000219B0706D50F23E17B994360394A420C
:1017B0004A41D1B23320FFF79BFA237900215B061F
:1017C00006D50F23E17B994360394A424A41D1B2A1
:1017D0003420FFF78DFAE3780021DB0606D50F23CE
:1017E000E17B994370394A424A41D1B23520FFF733
:1017F0007FFAC44C002123797F2B06D90F23E17B8C
:10180000994370394A424A41D1B23620FFF770FA03
:10181000E37800219B0706D50F23E17B99437039BC
:101820004A424A41D1B23720FFF762FA23790021B8
:101830005B0606D50F23E17B994370394A424A4142
:10184000D1B23820FFF754FAE3780021DB0606D541
:101850000F23E17B994380394A424A41D1B2392072
:10186000FFF746FA237900217F2B06D90F23E17B6E
:10187000994380394A424A41D1B23A20FFF738FAB7
:10188000E37800219B0706D50F23E17B994380393C
:101890004A424A41D1B23B20FFF72AFA237900217C
:1018A0005B0606D50F23E17B994380394A424A41C2
:1018B000D1B23C20FFF71CFAE3780021DB0606D505
:1018C0000F23E17B994390394A424A41D1B23D20EE
:1018D000FFF70EFA237900217F2B06D90F23E17B36
:1018E000994390394A424A41D1B23E20FFF700FA6B
:1018F000E37800219B0706D50F23E17B99439039BC
:101900004A424A41D1B23F20FFF7F2F92379002140
:101910005B0606D50F23E17B994390394A424A4141
:10192000D1B24020FFF7E4F9E3780021DB0606D5C9
:101930000F23E17B9943A0394A424A41D1B2412069
:10194000FFF7D6F9237900217F2B06D90F23E17BFE
:101950009943A0394A424A41D1B24220FFF7C8F91F
:10196000E37800219B0706D50F23E17B9943A0393B
:101970004A424A41D1B24320FFF7BAF92379002104
:101980005B0606D50F23E17B9943A0394A424A41C1
:10199000D1B24420FFF7ACF9E3780021DB0606D58D
:1019A0000F23E17B9943B0394A424A41D1B24520E5
:1019B000FFF79EF9237900217F2B06D90F23E17BC6
:1019C0009943B0394A424A41D1B24620FFF790F9D3
:1019D000E37800219B0706D50F23E17B9943B039BB
:1019E0004A424A41D1B24720FFF782F923790021C8
:1019F0005B0606D50F23E17B9943B0394A424A4141
:101A0000D1B24820FFF774F9E3780021DB0606D550
:101A10000F23E17B9943C0394A424A41D1B2492060
:101A2000FFF766F9237900217F2B06D90F23E17B8D
:101A30009943C0394A424A41D1B24A20FFF758F986
:101A4000E37800219B0706D50F23E17B9943C0393A
:101A50004A424A41D1B24B20FFF74AF9237900218B
:101A60005B0606D50F23E17B9943C0394A424A41C0
:101A7000D1B24C20FFF73CF921790E208907C90F1C
:101A8000FFF736F90F23A27B1F4D1340022B10D115
:101A90006379002B0DD100231C49EB560A78D3182B
:101AA000FF2B01DDFF2302E0DA43D21713400B7056
:101AB0000CE029781120C909FFF71AF900216956AD
:101AC0001220CB17591AC90FFFF712F90F23A27B67
:101AD0001A406379012A02D0022A04D018E0A179C1
:101AE000D843C9430BE0FF20084A98431278FF2AE5
:101AF00002D0013250430012FF21A3799943FFF72E
:101B00003DF90AE0020C0020230C00209001002087
:101B1000A179D843C943FFF719F90F23E27B0021CC
:101B20001340012B03D12279520993431900152048
:101B3000FFF7DEF80F23E27B00211340022B03D1D5
:101B4000237901315B0999431620FFF7D1F80F2360
:101B5000E27B00211340032B03D1237901315B0980
:101B600099431720FFF7C4F80F23E27B00211340AD
:101B7000042B03D1237901315B0999431820FFF726
:101B8000B7F80F23E27B00211340052B03D1237903
:101B900001315B0999431920FFF7AAF80F23E27B73
:101BA00000211340062B03D1237901315B099943AE
:101BB0001A20FFF79DF80F23764C0021E27B13409B
:101BC000072B03D1237901315B0999431B20FFF7D0
:101BD0008FF80F23E27B00211340082B03D12379D8
:101BE00001315B0999431C20FFF782F80F23E27B48
:101BF00000211340092B03D1237901315B0999435B
:101C00001D20FFF775F80F23E27B002113400A2BFC
:101C100003D1237901315B0999431E20FFF768F84E
:101C20000F23E27B002113400B2B03D123790131D9
:101C30005B0999431F20FFF75BF80F23E27B00212C
:101C400013400C2B03D1237901315B0999432020E8
:101C500097E0514C514F0200210000233800FEF75D
:101C600085FE0720FFF7CEF8FFF79EFA4C4B0125C3
:101C70009878FEF705FF32003870412321003800C4
:101C8000FEF774FE1E23207801211840FFF790F81C
:101C900021780D202940FFF72BF8414BD878FEF72B
:101CA000EFFE32003300387021003800FEF75EFE90
:101CB00021780B202940FFF71BF82178052089089F
:101CC0002940FFF715F821780E20C9082940FFF7B1
:101CD0000FF82178062009092940FFF709F8304B51
:101CE0001879FEF7CDFE4423320038702100380009
:101CF000FEF73CFE21780F202940FEF7F9FF2178FE
:101D00000920E9402940FEF7F3FF21780A208908DD
:101D10002940FEF7EDFF21780820C9082940FEF789
:101D2000E7FF2178072009092940FEF7E1FF1C4A57
:101D30001B4B90795B7900021843FEF7B5FE082330
:101D40003200387021003800FEF710FE2178102094
:101D50002940FEF7CDFF21782800E9402940FEF711
:101D6000C7FF2178300089082940FEF7C1FF21789C
:101D70000320C9082940FEF7BBFF04202178090988
:101D80002940FEF7B5FF00210800FEF7C5FF00F06F
:101D90000EFCC046020C0020240C0020780C002011
:101DA000510C00200F250127E14C21222100E148A0
:101DB000FEF714FEFFF7F8F96078FFF723F8A07834
:101DC00000212840FEF7F4FFA1780120C909FEF7A1
:101DD0008FFFA178022089093940FEF789FFA17899
:101DE000300049093940FEF783FFA1780420090932
:101DF0003940FEF77DFFE1780520C909FEF778FF3D
:101E0000E178062089093940FEF772FFE178072062
:101E100049093940FEF76CFFE1780920890839400B
:101E2000FEF766FFE3780021DB0605D5E17BA943D9
:101E300010394A424A41D1B20820FEF759FF2379AE
:101E400000217F2B06D90F23E17B994310394A42A9
:101E50004A41D1B21320FEF74BFFE37800219B07E4
:101E600006D50F23E17B994310394A424A41D1B24A
:101E70000A20FEF73DFF237900215B0606D50F23DC
:101E8000E17B994310394A424A41D1B21420FEF70E
:101E90002FFFE3780021DB0606D50F23E17B994372
:101EA00020394A424A41D1B22120FEF721FF23794D
:101EB00000217F2B06D90F23E17B994320394A4229
:101EC0004A41D1B22220FEF713FFE37800219B079D
:101ED00006D50F23E17B994320394A424A41D1B2CA
:101EE0002320FEF705FF237900215B0606D50F238B
:101EF000E17B994320394A424A41D1B22420FEF77E
:101F0000F7FEE3780021DB0606D50F23E17B99433A
:101F100030394A424A41D1B22520FEF7E9FE237901
:101F200000217F2B06D90F23E17B994330394A42A8
:101F30004A41D1B22620FEF7DBFEE37800219B0761
:101F400006D50F23E17B994330394A424A41D1B249
:101F50002720FEF7CDFE237900215B0606D50F234F
:101F6000E17B994330394A424A41D1B22820FEF7F9
:101F7000BFFEE3780021DB0606D50F23E17B994302
:101F800040394A424A41D1B22920FEF7B1FE2379B5
:101F900000217F2B06D90F23E17B994340394A4228
:101FA0004A41D1B22A20FEF7A3FEE37800219B0725
:101FB00006D50F23E17B994340394A424A41D1B2C9
:101FC0002B20FEF795FE237900215B0606D50F2313
:101FD000E17B994340394A424A41D1B22C20FEF775
:101FE00087FEE3780021DB0606D50F23E17B9943CA
:101FF00050394A424A41D1B22D20FEF779FE237969
:1020000000217F2B06D90F23E17B994350394A42A7
:102010004A41D1B22E20FEF76BFEE37800219B07E8
:1020200006D50F23E17B994350394A424A41D1B248
:102030002F20FEF75DFE237900215B0606D50F23D6
:10204000E17B994350394A424A41D1B23020FEF7F0
:102050004FFEE3780021DB0606D50F23E17B994391
:1020600060394A424A41D1B23120FEF741FE23791C
:1020700000217F2B06D90F23E17B994360394A4227
:102080004A41D1B23220FEF733FEE37800219B07AC
:1020900006D50F23E17B994360394A424A41D1B2C8
:1020A0003320FEF725FE237900215B0606D50F239A
:1020B000E17B994360394A424A41D1B23420FEF76C
:1020C00017FEE3780021DB0606D50F23E17B994359
:1020D00070394A424A41D1B23520FEF709FE2379D0
:1020E00000217F2B06D90F23E17B994370394A42A7
:1020F0004A41D1B23620FEF7FBFDE37800219B0771
:1021000006D50F23E17B994370394A424A41D1B247
:102110003720FEF7EDFD237900215B060CD50F2358
:10212000E17B994370394A424A41D1B204E0C0464A
:10213000260C0020E10B00203820FEF7D9FDE378C3
:102140000021DB0606D50F23E17B994380394A4203
:102150004A41D1B23920FEF7CBFD237900217F2BF4
:1021600006D90F23E17B994380394A424A41D1B2D3
:102170003A20FEF7BDFDE37800219B0706D50F232B
:10218000E17B994380394A424A41D1B23B20FEF774
:10219000AFFDA34C002123795B0606D50F23E17B1D
:1021A000994380394A424A41D1B23C20FEF7A0FD12
:1021B000E3780021DB0606D50F23E17B99439039B4
:1021C0004A424A41D1B23D20FEF792FD23790021D7
:1021D0007F2B06D90F23E17B994390394A424A412C
:1021E000D1B23E20FEF784FDE37800219B0706D59F
:1021F0000F23E17B994390394A424A41D1B23F20B3
:10220000FEF776FD237900215B0606D50F23E17BDF
:10221000994390394A424A41D1B24020FEF768FDC5
:10222000E3780021DB0606D50F23E17B9943A03933
:102230004A424A41D1B24120FEF75AFD237900219A
:102240007F2B06D90F23E17B9943A0394A424A41AB
:10225000D1B24220FEF74CFDE37800219B0706D562
:102260000F23E17B9943A0394A424A41D1B243202E
:10227000FEF73EFD237900215B0606D50F23E17BA7
:102280009943A0394A424A41D1B24420FEF730FD79
:10229000E3780021DB0606D50F23E17B9943B039B3
:1022A0004A424A41D1B24520FEF722FD237900215E
:1022B0007F2B06D90F23E17B9943B0394A424A412B
:1022C000D1B24620FEF714FDE37800219B0706D526
:1022D0000F23E17B9943B0394A424A41D1B24720AA
:1022E000FEF706FD237900215B0606D50F23E17B6F
:1022F0009943B0394A424A41D1B24820FEF7F8FC2E
:10230000E3780021DB0606D50F23E17B9943C03932
:102310004A424A41D1B24920FEF7EAFC2379002122
:102320007F2B06D90F23E17B9943C0394A424A41AA
:10233000D1B24A20FEF7DCFCE37800219B0706D5EA
:102340000F23E17B9943C0394A424A41D1B24B2025
:10235000FEF7CEFC237900215B0606D50F23E17B37
:102360009943C0394A424A41D1B201254C20FEF777
:10237000BFFC21790C2089082940FEF7B9FC21799E
:102380000E20E9402940FEF7B3FCE1780F20C90890
:102390002940FEF7ADFCE17810202940FEF7A8FCAB
:1023A00007210F2361561F4D2970A27B1340022B7A
:1023B0000ED16379002B0BD11B4A13785918FF29D2
:1023C00001DDFF2102E0CB43DB17194011700BE068
:1023D000C90F1120FEF78CFC002169561220CB1783
:1023E000591AC90FFEF784FC0F23A27B1A406379A8
:1023F000012A02D0022A04D018E0A179D843C943A7
:102400000BE0FF20084A98431278FF2A02D00132DD
:1024100050430012FF21A3799943FEF7AFFC0AE075
:10242000260C0020230C002090010020A179D84325
:10243000C943FEF78BFC0F23E27B00211340012BE5
:1024400003D122795209934319001520FEF750FC5D
:102450000F23E27B00211340022B03D123790131AA
:102460005B0999431620FEF743FC0F23E27B002112
:102470001340032B03D1237901315B0999431720C2
:10248000FEF736FC0F23E27B00211340042B03D11F
:10249000237901315B0999431820FEF729FC0F23AA
:1024A000E27B00211340052B03D1237901315B0925
:1024B00099431920FEF71CFC0F23E27B00211340F7
:1024C000062B03D1237901315B0999431A20FEF7CA
:1024D0000FFC0F23E27B00211340072B03D123794C
:1024E00001315B0999431B20FEF702FC0F23E27BBD
:1024F00000211340082B03D1237901315B09994353
:102500001C20FEF7F5FB0F23E27B00211340092B73
:1025100003D1237901315B0999431D20FEF7E8FBC4
:102520000F23E27B002113400A2B03D123790131D1
:102530005B0999431E20FEF7DBFB0F23E27B0021A2
:1025400013400B2B03D1237901315B0999431F20E1
:10255000FEF7CEFB0F23E27B002113400C2B03D1AF
:10256000237901315B0999432020FEF7C1FB00214B
:102570000800FEF7D1FB424C42492000FEF729F843
:102580000025414B1022E95C2000FEF726F80135BA
:102590003E492000FEF71DF8212DF2D1200001F068
:1025A000F3FA04E0FEF742FC0A2000F0D5F900F04F
:1025B000AFF9374E336898425DD3C41A354968463F
:1025C00001F0CCFB694604A801F002FC210004A83C
:1025D00001F089FC2A4D01002800FEF7D3FA04A877
:1025E00001F078FB684601F075FB2B4B9C4237D914
:1025F0002A49684601F0B2FB694604A801F0E8FBED
:1026000000F086F93368C11A04A801F06CFC0100DF
:102610002800FEF7B7FA04A801F05CFB684601F059
:1026200059FBFDF725FF1E49684601F097FB6946F7
:1026300004A801F0CDFB00F06BF93368C11A04A8BF
:1026400001F051FC01002800FEF79CFA04A801F0FB
:1026500041FB684601F03EFB00F05AF930600AE0A9
:10266000104904A801F07AFB04A92800FEF78AFAB1
:1026700004A801F02FFBFEF70BFE09B0F0BDC04629
:102680006003002086540000260C0020E053000068
:10269000D40B00208E540000871300009F540000CC
:1026A000B8540000D2540000B22070B5800001F090
:1026B00050FCB223050004009B00C618200008341B
:1026C000FDF742FFB442F9D1024B03481D60FDF70C
:1026D0003BFF70BD740C0020480C00201B4B1C4AB3
:1026E00019781C4B082901D1002102E00A2903D1E5
:1026F0002E311160132206E00C2901D1283100E0AF
:102700003C21116012221A60134B1A78134B002AD5
:1027100001D0002200E001221A60114B1A78114BFF
:10272000012A01D880220CE0042A01D8842208E082
:10273000082A01D8852204E0102A01D8862200E068
:1027400087221A600122084B1A70704791010020FD
:1027500008B003400CB00340890C002020B00340B7
:102760009201002024B00340880C002070B5802521
:102770008026ED02F6000B4C23682B4201D000F0BE
:10278000C7FB2368334201D000F078F923681B05AA
:1027900001D500F0DFF92368DB04ECD500F046FA40
:1027A000E9E7C0463480044010B5FFF7DFFFFFFFC4
:1027B0000022014B1A607047008104407047FFFF00
:1027C0000A49030010B50868002B0DD06A46084C72
:1027D000C3181219934206D301F040FD0C23036085
:1027E0000120404200E00B6010BDC0469401002073
:1027F00000FEFFFFF8B506000D00170000243900A9
:10280000300001F0F7FC0B003733DBB2092901D8A7
:102810003031CBB230002B55390001F065FC061E7B
:1028200001D00134EBE72B1958702B005A1B94424E
:1028300006DD1A78295D19702A550133013CF5E748
:102840002800F8BD10B50C00002802DBFFF7D2FF0E
:1028500006E02D2340420B700131FFF7CBFF200033
:1028600010BDFFFF10B51A2818D80C2358430C4A86
:10287000835810181C7D027A224205D0002901D00D
:102880001A710BE01A7209E043681A68002902D035
:1028900003210A4301E002218A431A6010BDC046A9
:1028A000E4540000F0B51A282FD80C221700474333
:1028B000164CE5196B682600012901D0042911D1B5
:1028C000504334583018257D027A20202A4322753F
:1028D000A22252001A601A68042901D1024313E0AF
:1028E000824311E038592C7A027DA243027580227E
:1028F000002908D0022902D10422FF3204E000227C
:10290000032901D1812252001A60F0BDE454000075
:1029100072B60C4B1A680C4B18680C4B1B6862B6ED
:102920005B0104D5322393429B415B42C018084BA4
:102930009A1A084B5A43FA239B005843920D1018D9
:102940007047C04618E000E08C0C002004ED00E069
:10295000BF5D0000ABAA020070B50400FFF7D8FF0E
:102960000500002C0FD0FFF7D3FF074B401B984208
:1029700006D9013C002C06D0FA239B00ED18F2E7A3
:1029800001F010FBEFE770BDE703000080221E4B53
:10299000D20510B51A608022002012061A601B4B67
:1029A0001B4918601B4B1C4A1960282313601B4AE3
:1029B0001B4C13601B4A13601B4A13601B4A1360B5
:1029C0001B4A1360092222601A4C20601A4C2160B5
:1029D0001A4C23601A4C23601A4C22601A4C206057
:1029E0001A4801601A490B601A490B601A4B1A60A9
:1029F000FFF774FE1920FFF7AFFF00F077FD1420FA
:102A0000FF30FFF7A9FF10BD00E100E004800340A4
:102A1000FFBF0000088003400C8003401480034087
:102A2000008003401C800340248003402C8003402E
:102A30003480034004900340089003400C9003400E
:102A4000149003400090034004A0034008A00340FA
:102A50000CA0034014A0034000A00340054B1878CD
:102A6000054BC0B21A78D3B2984200D24030C01A97
:102A70007047C046130D0020910C002030B5234A4A
:102A800013799B0611D5224BD4791878190001309F
:102A9000E4B200233F2800DC03001E480078834294
:102AA00003D01D48C454DBB20B70D1781748C9B2AB
:102AB0004BB2002B17DA03795BB2002B13DA174BFA
:102AC000174C1D782378DBB29D4202D16C23C37072
:102AD00009E001333F2B00D900231248C05CDBB270
:102AE000C0B2D0712370402319420ED0117919421F
:102AF0000BD000210C4B19700C4B1B688B4202D081
:102B00000B49097819722C23D37030BD00A0064000
:102B1000130D0020910C0020D20C00201C0D002071
:102B2000140D0020920C0020900C0020180D0020A5
:102B3000120D0020054B1878054BC0B21A78D3B29D
:102B4000984200D24030C01A7047C046880D00201D
:102B50001E0D002030B5234A13799B0611D5224B58
:102B6000D479187819000130E4B200233F2800DC42
:102B700003001E480078834203D01D48C454DBB2D2
:102B80000B70D1781748C9B24BB2002B17DA037912
:102B90005BB2002B13DA174B174C1D782378DBB28E
:102BA0009D4202D16C23C37009E00133272B00D969
:102BB00000231248C05CDBB2C0B2D0712370402346
:102BC00019420ED0117919420BD000210C4B19700B
:102BD0000C4B1B688B4202D00B49097819722C23CD
:102BE000D37030BD00B00640880D00201E0D0020BF
:102BF000470D0020900D0020890D00201F0D0020A2
:102C00001D0D00208C0D0020870D0020054B18782D
:102C1000054BC0B21A78D3B2984200D24030C01AE5
:102C20007047C046040E0020990D002030B52C4A94
:102C300013799B0623D52B4BD479187819000130D2
:102C4000E4B200233F2800DC0300274800788342D9
:102C500003D02648C454D8B2087025490868002813
:102C60000DD024490978C9B28B4201D35B1A01E027
:102C70005B1A4033272B02DD1F4B1B780371D17881
:102C80001748C9B24BB2002B17DA03795BB2002B9D
:102C900013DA1A4B174C1D782378DBB29D4202D110
:102CA0006C23C37009E00133272B00D9002314489B
:102CB000C05CDBB2C0B2D0712370402319420ED089
:102CC000117919420BD000210E4B19700E4B1B6865
:102CD0008B4202D00D49097819722C23D37030BD74
:102CE00000C00640040E0020990D0020C30D0020F6
:102CF000940D0020050E0020C20D00200C0E0020B7
:102D00009A0D0020980D0020080E0020030E0020D0
:102D100030B585B072B670224121154B1A70154A34
:102D20001170154A3239117080221A701A7852B215
:102D3000002AFBDA114B186862B6114B984201D891
:102D40000A23584301AC0A222100FFF753FD002358
:102D50000C48E15C0500002905D05A0082180133B7
:102D600051800A2BF5D101335B002B7005B030BDCB
:102D70000000024007000240060002400800024036
:102D80007F969800380300200223F0B50A4A0B4EC4
:102D90001478C8272343DB00F518686008480578D5
:102DA000002D00D1403F09040F43F75001235D403F
:102DB0005C4005701470F0BD840E002000F8FF1F09
:102DC000040F0020431E10B50020042B0ED872B64D
:102DD000074A99008858002807D044685B008C5047
:102DE000044904885A5A121B5A5262B610BDC04692
:102DF000700E0020A40F0020431E0020042B09D8D1
:102E000072B6054A9B009B58002B02D001305B68CC
:102E1000FAE762B67047C046C80E0020F8B572B631
:102E20000123174A082594461E00164964465A1E77
:102E3000A25C2A421AD05F017C589A00002C05D16E
:102E4000CB1908305860104BCB5109E03243D20007
:102E50005458002C0AD18B18083058600B4B8B50FB
:102E60000B4A1378013B137062B608E00133062B5E
:102E7000DCD162B60022064B1A7000F0ADFBF8BD43
:102E80002856000000F8FF1F88004000C8004000DE
:102E9000FA0E0020421E10B5042A30D8022380000A
:102EA0001843174BC0001B1872B6164CA05C0328C1
:102EB0000BD801F005F916040207052012E00833CB
:102EC00002200FE0083304200CE00F489200145851
:102ED0000E4B002C01D1115001E0985841609950DF
:102EE0000CE00320A0540A0008325A60C8221807D8
:102EF00000D4403A098809040A431A6062B610BD3A
:102F000000F8FF1F280E0020C80E0020DC0E002055
:102F1000F7B5B64B1C781D000423E4B21C421DD04B
:102F2000B34B1B78002B16D0B24A1378DBB2002BC0
:102F300005D0013BDBB21370002B00D100BEAE4ABE
:102F40001378DBB2002B06D0013BDBB21370002BF1
:102F500001D100F0A9FC0422A44B1A7008222240DF
:102F600000D159E2A54BA64F1B78DBB29C08E400C8
:102F70001D093C19002D00D0DFE12268636890062E
:102F8000000F01380C2800D9D3E101F0A3F8960115
:102F90009601D201D201D201D201D201D201AF01F8
:102FA000D201D201D2010D001A68964E5B68964993
:102FB000736000230B600121944832602060944CC0
:102FC00092B22170934C3B61BB610190A24218D830
:102FD000D020C000824200D3E7E08120400082423E
:102FE00000D1C4E006D8802A00D1A9E0822A00D10D
:102FF000ABE0F7E0884B9A4200D1C7E0FF33FF33E4
:103000001AE08648824200D154E110D888231B017F
:103010009A4200D18EE080339A4200D0E2E03C0038
:103020003D00B278724B20341A70C03508E07C49FC
:103030008A4200D1CEE07B4B9A4200D114E1D1E02C
:1030400080222368134203D06068083800F0C4FA75
:103050000834AC42F4D100242500734BE05800281A
:1030600005D04368009300F0B7FA0098F7E76E4B7D
:1030700018516E4BE0506E4BE058002805D0436865
:10308000009300F0A9FA0098F7E7694B694A1851D4
:10309000694BE0506B00D052684BE85C0238032863
:1030A00007D801F00DF802040204002200E001221A
:1030B0005A5501350434052DCFD100230124604D2C
:1030C0002B70604B6049621EE3188A5C9B001A708B
:1030D00008231A4220D000F061FA6301002805D0CD
:1030E000FA1808305060594AFA5003E0F8502B782B
:1030F00001332B7000F052FA0122A3001343DB00CE
:10310000002805D0FA1808305060019AFA5003E000
:10311000F8502B789B182B7002210023A20011433A
:10312000C9007B5003210A438A400134BB50062C5E
:10313000C7D19AE02E4B464C1B7823700B0095E0CC
:10314000434C23706370022390E07F22B0880240DA
:10315000052A47D83E4C9200237063703D4BD2182D
:10316000022312781A4200D180E021707EE07F2392
:10317000B2881A40052A35D87388002B32D1022034
:103180003449920052181178814329E07F23B28894
:103190001A40052A26D87388002B23D102202D49F6
:1031A00092005218117801431AE07288B1882A4BB4
:1031B0005C68002C16D01888904209D15888884243
:1031C00006D1120A032A01D123784FE01B894DE072
:1031D0000C33EDE7214A1168214A1160B178214A88
:1031E000117042E00F221B4B1A7063E080200740F1
:1031F000030F0020850E0020050F002090200740BF
:1032000000F8FF1FF00E0020100E0020C800400044
:10321000040F0020810600000203000021200000AE
:103220002122000021230000700E0020140E002037
:10323000C80E0020A40F0020DC0E0020280E002065
:10324000FA0E002030C80110285600008800400007
:10325000FB0E0020C0200740305600008C0C0020E0
:10326000B80F0020140F002000231C00F5889D4299
:1032700000D91D002E00402D00D94026200031002D
:10328000FFF782FDA419AD1B03D12F00402E04D0FF
:1032900010E04027AF4200D92F0020003900FFF78F
:1032A00073FDE419ED1B01D1402F03D1764B1C6057
:1032B000764B1D800122764B3AE07649764A0988A2
:1032C000914210D100227549985C88540132072A36
:1032D000FAD10B68862B02D1714B08321A7000218B
:1032E0000800FFF751FD6F4B236022E0664F3E68F8
:1032F000002E13D0654B1C882500402C00D940259A
:1033000029003000FFF740FD641B604BA4B21C8015
:10331000002C01D1402D00D174193C60A0225D4BDE
:10332000D2001988914204D100225A709A785E4BDB
:103330001A700122564B1A706AE008226068013D3B
:103340000838EDB2134037D000F046F95749A800CD
:103350004258574B002A1CD0566846501100585D01
:103360000831616003280BD800F0AAFE02040608A9
:10337000032104E0022102E0052100E00421595567
:103380000821C8230C4200D1403B12881204134389
:103390003DE0585D032808D800F092FE3A3A020456
:1033A000002200E001225A5532E008221440621E39
:1033B000944102345C552BE02268110C8AB20280E1
:1033C00000291ED03B4943804360AB005F583A4E12
:1033D000002F01D1585001E0F158486037496D0085
:1033E000F0506B5AD2186A5200F0D8F8002802D078
:1033F0000830606005E0324A2060137801331370B2
:1034000006E008231C4201D12E4B00E0254B23602F
:1034100008222D4B1A707CE5012004421ED00223A5
:103420001B49284C0B70294B294E1A70294B1C60E4
:103430009C60294C1A61DC600D249A615E60274B08
:103440001C70FF23264C2370174C2B702270254ACA
:1034500013709F22244B1A70087013E063B2002B84
:1034600004DA0D221D4B1A7080232B7002221442A5
:1034700004D01B490B78DBB20B702A7010231C425E
:1034800000D02B70F7BDC046100E0020F80E0020B3
:1034900094200740F00E002021200000B00F0020F3
:1034A000850E0020C800400098200740C80E00206C
:1034B000280E0020700E0020140E0020A40F002003
:1034C000FA0E00208800400080200740840E002073
:1034D000300E002000F8FF1F880E0020C02007409B
:1034E000882007408C2007408420074010B5FFF754
:1034F0000FFC002211001B4BD1509818083241607C
:10350000782AF9D180201849C0020A6802430A606B
:103510001A0A1649D2B20A701A0C1549D2B20A70A8
:10352000144A1B0E1370FF23134A00201370134A12
:1035300013491370134A137001220A70124908705C
:1035400012490A70124A116899430B0070210B430B
:10355000136080220F4B52041A6010220E4B1A7017
:1035600010BDC04600F8FF1F348004409C20074077
:10357000B0200740B4200740802007408820074043
:103580009420074010200740002107408420074076
:1035900018E400E000E100E00821074070B572B6D1
:1035A0000B4D2C68200000F02BFE172802DD62B6C0
:1035B00000200CE080231B06C3409C432C6062B6B5
:1035C00048235843034B181800230360436070BD21
:1035D00050030020C0F9FF1F10B504000E48482119
:1035E000201A00F081FD172814D80C4B1B78002BF3
:1035F00007D00B4B1B78002B03D02000FFF70EFCED
:1036000008E072B680231B06C340064A11680B43CC
:10361000136062B610BDC046C0F9FF1FFA0E00204D
:10362000030F00205003002070B5114D2B68002BB4
:103630000CD0286843885A1CC3181C7A03889A4205
:1036400012D3FFF7C9FF00232B600EE0094B1B7854
:10365000002B02D10120404208E00320FFF7B2FB1B
:1036600028600028E5D1F5E74280200070BDC04603
:10367000100F0020030F002010B50D4C2368002B05
:1036800003D02268002A0ED103E00A4B1B78002BDE
:1036900002D10120404209E00320FFF793FB2060A4
:1036A0000028EED1F5E75388D318187A10BDC0462C
:1036B000100F0020030F0020054B9888054B1A6857
:1036C000002A03D0138852889B1AC0187047C0463E
:1036D000A40F0020100F002010B50A4B1B78002B00
:1036E0000FD0094C2068002803D0FFF775FF002396
:1036F00023600320FFF766FB002802D0FFF76CFF72
:10370000F7E710BD030F0020100F0020314A0123FE
:10371000F0B50C00170085B001900291137003936F
:10372000002C53D02C4D2B68002B25D12B4E2C4B2D
:103730001B78DBB2002B01D13B7017E00420FFF7B0
:103740005BFB072809D86B461B7B3B70FFF726FF06
:10375000214B186000280FD13870013E214B002EFC
:1037600002D01A78002A04D001221A7001204042A7
:103770002EE000F017FCDAE700221A4B29681A70D5
:1037800040234A88981A2300844200D90300080085
:1037900008308018D2184A800022E41A934204D0DC
:1037A000019EB65C86540132F8E7019AD318019362
:1037B0004B883F2B06D9402304200B80FFF76AFB80
:1037C00000232B600522084B1A70A9E702983C7071
:1037D00005B0F0BD060F0020080F0020A54700002F
:1037E000030F00200C0F0020050F002007B56B46CB
:1037F000D871073301211800FFF788FF0EBDFFFFC6
:10380000012370B50E4C0F4D23702B68002B10D187
:103810000D4B1B78002B02D1002020700FE00420FC
:10382000FFF7EAFA0728F7D8FFF7B8FE2860002864
:10383000F2D02B6858884023181A0023237070BDDB
:10384000060F0020080F0020030F0020F7B5124BD1
:103850001B78002B1FD00126104F114B3C681E70A7
:103860000193104D002C09D000262E706388210092
:1038700023800420FFF70EFB3E6009E0FFF78EFE79
:10388000011E04D004202C70FFF704FB00E02E7012
:103890000023019A1370F7BD030F0020080F0020CA
:1038A000060F0020050F002070B50E4B1C78E4B207
:1038B000002C15D10C4D2968002906D04B88042016
:1038C0000B80FFF7E7FA2C600AE0FFF767FE011EA6
:1038D00003D00420FFF7DEFA02E00122034B1A7046
:1038E00070BDC046060F0020080F0020050F002005
:1038F0008021184AF8B5136849040B43012113606D
:10390000154A164D13680B431360154B2E681C683F
:10391000002C12D0237A002B0DD0236820001B68C6
:103920002F6898472B68E188DB1B1B099AB2A2809D
:103930008B4200D9E2806469EAE72B68094A9B1B45
:103940001B0999B21180084A1088834200D911805E
:10395000F8BDC046FCED00E0001000E0041000E0FF
:10396000180F00201E0F00201C0F0020EFF3108006
:1039700072B643425841C0B27047002800D062B6C8
:103980007047FFFF10B5FFF7F1FF0C4A1468002CD9
:1039900010D063691360002B02D000229A6101E00D
:1039A000074A1360FFF7E9FF002320006377A3684D
:1039B0009847E8E7FFF7E1FF10BDC046200F002061
:1039C000240F002010B5FFF7DDFF10BD164930B5FC
:1039D0000B68002B02D18360C36009E004681A6899
:1039E000944207D20025121B8360C560D8601A601C
:1039F000086016E002681C689968121B02600029C2
:103A00000CD00C680B00A242F4D28160C968A21AE3
:103A1000C160D860C16888601A6002E08160C360DC
:103A200098600223037530BD280F002070B5174D34
:103A30002C68002C19D02368002B02D0013B236096
:103A400013E0A268002A00D0D360002120692A6018
:103A5000036821751B68220098476368002BE7D034
:103A600023602000FFF7B2FFE2E7FFF77FFF0022AD
:103A7000074B1C681A60FFF780FF002C05D0A56873
:103A80002000FFF7A3FF2C00F7E770BD280F0020F0
:103A9000380F002010B5034A136801331360FFF795
:103AA000C5FF10BD8C0C00207047704770477047F1
:103AB000026830B5002A1ED00F4B1049D3181B11D5
:103AC0000F4D9C006550002191600E4AFF31D1548A
:103AD000117853780C4C0D4A994205D82368090493
:103AE0001A400A43226004E021681B040A40134381
:103AF00023600023036030BD008FFCBF580300200B
:103B0000AF3A00005403002014E400E0FFFF00FF80
:103B1000094B10B51A68002A04D001221A60074B1D
:103B20001B689847064B1A68002A04D001221A60C5
:103B3000024B5B68984710BD0C710340580300208E
:103B40001C710340F0B5002506000F008DB08C6895
:103B50000195002C14D021222B0003A9380000F07D
:103B6000D6F92200202C00D92022336803A95B68F3
:103B70003000AD18A41A9847019B1B180193E8E781
:103B800001980DB0F0BDFFFF37B5022504002A00F3
:103B9000054901A800F04AFE23682A005B6801A9D4
:103BA000200098473EBDC046A8560000F0B50D0065
:103BB0000F2185B09446134A6944ACB22F0C574389
:103BC00001345443BBB2260C1C19A4193B0C240C21
:103BD000DB19E3180A245B085C432D1B30350139DF
:103BE0000D701D1EE9D16346002B02D02D23013933
:103BF0000B70CA4304ABD21803685B68984705B0E2
:103C0000F0BDC0463333000037B50F2502AB0A00C4
:103C10002A401400013B3734092A01D830321400FD
:103C20001C700909F3D1016802AA4C68D21A190064
:103C3000A0473EBD10B5012488B008AB0A00224061
:103C4000013B30321A704908F8D1016808AA4C6863
:103C5000D21A1900A04708B010BDF0B51524050010
:103C60000F00160087B06C443100380000F03CFAB9
:103C700001007143791AC9B20B003733013CDBB242
:103C8000092901D83031CBB22370071EECD106AB25
:103C90001A1B2B68033A5B6821002800984707B07D
:103CA000F0BD10B50400FFF703FF200010BDFFFFBB
:103CB000002310B50448054A0360054980330371A9
:103CC00000F0BCFA10BDC0463C0F00208000002070
:103CD000A33C000010B50400006800F0F3FA2000D7
:103CE00010BD70B504000D000068013100F072FED7
:103CF000031E01D0012028C470BD436810B5040024
:103D00008B4208D2FFF7EDFF002805D0A368002BF7
:103D100001D122681370012010BDF8B504000F0016
:103D2000151E05D10368002B00D01A7000230CE08B
:103D30001100FFF7E2FF061E09D12068002802D01B
:103D400000F0C0FA266000236360A36004E0A56071
:103D50003900206801F04AF82000F8BD002370B552
:103D600004000D000360436083600373994207D031
:103D7000080001F043F8290002002000FFF7CDFF02
:103D8000200070BD70B5050008000C0001F036F889
:103D9000210002002800FFF7C0FF70BD13B500230B
:103DA00004000A2223606360A3602373080001A952
:103DB00001F0D8F801A92000FFF7E4FF200016BDAC
:103DC00010B5884203D08A680968FFF7A6FF10BDC6
:103DD000002310B504000360436083600373FFF7A2
:103DE000EFFF200010BDF7B51700002203680400A4
:103DF0000E00856800928B4206D85A19914203D270
:103E0000CB1A019301230093002F1AD0ED1929003A
:103E10002000FFF772FF002813D0009BA0682168E4
:103E2000002B09D0019B08183A00C91800F0FEFCCD
:103E300000232268535503E00818310000F0D6FF34
:103E4000A5602000FEBD1FB504000A22080001A9DC
:103E5000FEF7F8FC01A800F0D1FF01A90200200044
:103E6000FFF7C1FF200004B010BD1FB504000A22F7
:103E7000080001A9FEF7E6FC01A800F0BFFF01A9B8
:103E800002002000FFF7AFFF200004B010BD1FB5F7
:103E900004000A22080001A9FEF7ACFC01A800F00A
:103EA000ADFF01A902002000FFF79DFF200004B034
:103EB00010BD70B505000C1E07D0080000F09EFF75
:103EC000210002002800FFF78EFF280070BD10B50A
:103ED0000400FFF7B8FF200010BD10B50400FFF785
:103EE000C4FF200010BD10B50400FFF7D0FF200074
:103EF00010BD826800238A4203D902689A4200D02A
:103F0000535C1800704710B5FFF7F3FF10BD70B594
:103F10000D00002A14D0002912D08168994202D8DD
:103F200000232B700CE0541EC91A8C4200D90C00DF
:103F300001682200C918280000F094FF00232B55C7
:103F400070BD10B5FCF79AFFFDF7A8F900F02AF84C
:103F5000FAE710B500F0ACF910BD10B5FFF7BCFBE7
:103F600010BD10B5FFF788FB10BD10B5FFF75CFB67
:103F700010BD10B5FFF7A0FB10BD10B5FFF766FC34
:103F800010BD10B5FFF73CFC10BD10B508001100C6
:103F9000FFF7BCFB10BD10B50800FFF727FC10BDF4
:103FA0007047FFFF70B5234C2378002B40D10133BD
:103FB0002370FFF781FB002801D0FFF7F1FFFEF728
:103FC0004DFD002801D0FFF76FFDFEF7B3FD00287F
:103FD00001D0FFF76AFDFEF719FE002801D0FFF7B8
:103FE00065FD00232370EFF30583002B20D1EFF351
:103FF000108272B6104D2868002803D00F4C21782B
:10400000002903D0002A13D162B611E001232370E6
:1040100043692B60002B01D0996101E008490B60D6
:10402000002A00D162B6002583684577984725703D
:1040300070BDC046450F0020300F0020340F002017
:104040002C0F00208021154AC90313680B4313600D
:104050005022134BDA7000229A701B78114B1B7898
:10406000DA0703D49021104A890002E080210F4A28
:104070008900116080229200990701D40C4900E068
:104080000C490A605B0703D490220B4B920002E0BC
:1040900080220A4B92001A607047C0463480044068
:1040A00000600740440F002018B0044008C00440DE
:1040B0001CB004400CC0044014B0044004C00440D0
:1040C00002B4714649084900095C49008E4402BCAB
:1040D0007047C04603B47146490840004900095A78
:1040E00049008E4403BC7047002243088B4274D3BE
:1040F00003098B425FD3030A8B4244D3030B8B42E9
:1041000028D3030C8B420DD3FF22090212BA030CF1
:104110008B4202D31212090265D0030B8B4219D3D2
:1041200000E0090AC30B8B4201D3CB03C01A5241F2
:10413000830B8B4201D38B03C01A5241430B8B423A
:1041400001D34B03C01A5241030B8B4201D30B0323
:10415000C01A5241C30A8B4201D3CB02C01A52414A
:10416000830A8B4201D38B02C01A5241430A8B420D
:1041700001D34B02C01A5241030A8B4201D30B02F6
:10418000C01A5241CDD2C3098B4201D3CB01C01A10
:10419000524183098B4201D38B01C01A524143091A
:1041A0008B4201D34B01C01A524103098B4201D308
:1041B0000B01C01A5241C3088B4201D3CB00C01A75
:1041C000524183088B4201D38B00C01A52414308ED
:1041D0008B4201D34B00C01A5241411A00D2014612
:1041E000524110467047FFE701B5002000F006F885
:1041F00002BDC0460029F7D076E770477047C04639
:104200001C2101231B04984201D3000C10391B0A06
:10421000984201D3000A08391B09984201D30009CA
:10422000043902A2105C40187047C0460403020221
:104230000101010100000000000000000B0010B5AA
:104240000100180000F002F810BDC04610B51300C0
:104250000A000100022000F089FE10BD014B186821
:104260007047C0469807002070B50D4E0D4D0024D4
:10427000AD1BAD1005D0A300F35801349847A542FB
:10428000F9D101F03DFA084E084D0024AD1BAD10E8
:1042900005D0A300F35801349847A542F9D170BD69
:1042A0000C5700000C5700000C570000205700006E
:1042B00010B5034B0100186800F00EF810BDC046A1
:1042C0009807002010B5034B0100186800F036FF76
:1042D00010BDC04698070020F0B55F464D465646D3
:1042E0004446F0B40D000B3583B00700162D00D8FE
:1042F000A8E007239D4300D5CEE0A94200D9CBE03A
:1043000000F064FBF823FF339D4200D884E26B0A7F
:1043100000D1C5E0042B00D96CE13823A9099C46E3
:1043200001339846884443468C445900C94E89005D
:1043300071180839CC68A14217D0032362689A43E8
:104340001300521B0F2A00DDB0E00320002A09DB16
:104350008DE0636883435A1B0F2A00DDA6E0002A24
:1043600000DB84E0E468A142F3D1434600933200CD
:1043700034690832944200D18FE103236168994384
:104380000B00481B0F2800DD76E1726132610028C6
:1043900071DAB14A914200D934E10123C808821090
:1043A000934072681A43C3009B1998687260E36077
:1043B000A0609C601300C460012000998A109040A6
:1043C000984200D975E003420CD1032291430A1DA3
:1043D00040000092034205D1009A4000043200924E
:1043E0000342F9D003239846009AD3009946B1447A
:1043F000CC4692466346DC68A44507D14FE1002ACB
:1044000000DB5FE1E468A44500D148E1424663680F
:1044100093435A1B0F2AF2DD012163190D43656096
:10442000E068A5680836E86011438560F360B36012
:104430003800DE609E6059609A5000F0C9FA200092
:10444000083022E0102927D8380000F0BFFA1025E4
:10445000062302217F4E9B00F3181A005C68083A7D
:10446000944200D127E1032362689A431300E26873
:10447000A168CA6091600122E318596838000A43B4
:104480005A6000F0A5FA2000083003B03CBC90460A
:104490009946A246AB46F0BD0C2300203B60F4E7F2
:1044A00040239846013B80219C463FE763460093AA
:1044B0005DE70323B46862689A439046AA4203D337
:1044C000521B0F2A00DD87E023004344634A019317
:1044D000634B93461B681268EB18013200D157E119
:1044E000604A944663441B0B1B03009300993800F9
:1044F00000F06AFC03008146013361D0019B8342D6
:1045000000D9FDE0584B009A9A461B689C465346DA
:1045100062441A60019B11004B4500D143E15B46A8
:104520001B68013300D14FE14B46019A9B1A591881
:104530005346196007234A46134000D117E108216A
:1045400089464A49D21A9144C91A009B38004B4403
:104550001B051B0DCB1A19009B4600F035FC431CB4
:1045600000D135E14B46C01A012358441843534645
:104570001B685B441900534619604B46B360586092
:10458000B44213D043460F2B00D8E1E04346072244
:1045900060680C3B9343063A024005201A43626070
:1045A000E218506090600F2B00D915E1304B1A686B
:1045B000914200D919602F4B1A68914200D91960B5
:1045C0000323B46862689A431300521B9D4200D9CA
:1045D000C1E00F2A00DCBEE0012329006519194360
:1045E000134361603800B5606B6000F0F1F92000A2
:1045F00008304AE7142B74D9542B00D9B0E0290BAA
:104600006E238CE64A0A042A74D9142A00D9C2E01F
:1046100010005C325B305200082149428C46920007
:10462000B2189444624692680B318846944500D192
:10463000A0E0414650688843834202D29268944584
:10464000F7D1D3689C4673686146A260E1608C60D4
:10465000D460B1E69C070020FF010000A80B0020F9
:10466000580F00200F1000005C0F00200810000001
:10467000540F0020500F0020012163190D43014306
:10468000656073613361DA609A6059601850380070
:1046900000F09EF920000830F7E673688CE60823E6
:1046A0009B46073BDC449B46DA4443465246134252
:1046B00000D09FE633E0DC688A1C0092A34200D160
:1046C00055E6D0E60122E318596838000A435A60DB
:1046D000E368A268D3609A6000F07AF9200008309D
:1046E000D3E65B2294460132904698449C4443466C
:1046F00059001BE68A0910003932383052008BE726
:10470000B44200D05CE7FDE6009B013B0093082328
:104710005B429C46E1444B469B6899457AD14346AF
:10472000009A1342F0D1736883437360400098424B
:1047300000D9BEE6002800D1BBE6034270D1524644
:104740000092009A4000043200920342F9D04BE6F6
:1047500001234A465360380000F03AF9002094E6FD
:10476000AA22520093420DD8E90B7723D7E5802186
:104770004901EAE6012380108340726813437360A5
:10478000624661E7284A934218D8A90C7C23C6E503
:1047900010330093AAE6542A26D80A0B10006F3271
:1047A0006E30520038E71B0500D0B8E6009BB268B7
:1047B00043441800012303435360F7E67F239846E0
:1047C000013BFE219C46B1E55B464A461A60B1E6D4
:1047D000002301209B46CAE621003800083100F082
:1047E000ADFC53461968E1E6AA204000824205D894
:1047F000CA0B10007832773052000DE70A48824227
:1048000005D88A0C10007D327C30520004E7FE226D
:104810007E2001E7736889E7E9084B1C5B0019E615
:1048200053460093E0E5C0465405000070B50F2ADA
:1048300032D90C0004430B00A40731D11500040049
:10484000103D2D0901352D0149191E6826605E684D
:1048500066609E68A660DE681033E6601034994298
:10486000F3D10F2345191340032B1BD91C1F002321
:10487000A4080134A400CE58EE5004339C42FAD16F
:1048800003232D1909191A4005D00023CC5CEC54E0
:1048900001339A42FAD170BD0500002AF5D1FAE73A
:1048A0000500F2E71A00F8E770B588420BD98B18BB
:1048B000984208D2991A531E002A03D0CA5CC254E7
:1048C000013BFBD270BD0F2A09D80500002AF9D0A0
:1048D0000023CC5CEC5401339A42FAD1F2E70C008D
:1048E00004430B00A40726D115000400103D2D0938
:1048F00001352D0149191E6826605E6866609E6854
:10490000A660DE681033E66010349942F3D10F24BC
:1049100045191440032C10D90023043CA408013489
:10492000A400CE58EE5004339C42FAD103232D1933
:1049300009191A40CAE70500CAE72200C6E7C046BF
:1049400070B583073FD0541E002A3BD0CEB203007F
:10495000032503E0621E002C34D0140001335A1EDC
:1049600016702B42F6D1032C24D9FF250D402A02C4
:1049700015432A0415430F2C11D92600103E360981
:10498000013636011A009B19156055609560D56097
:1049900010329342F8D10F221440032C0AD9261F5B
:1049A000B6080136B6001A009B1920C29342FCD10A
:1049B00003221440002C05D0C9B21C191970013310
:1049C0009C42FBD170BD14000300CCE77047C04689
:1049D0007047C04610B5044B0A001B680100180060
:1049E00000F004F810BDC04698070020F0B5564608
:1049F0004D4644465F46F0B4804685B00E1E914653
:104A000000D1CBE03700083FFFF7E0FF7A684D4662
:104A1000032314000B35BA469C43162D4AD81023A5
:104A20001025A9454AD89C427BDAD34938198968B0
:104A30000190884200D1ECE0406801000290012022
:104A40000390080001218843019984468B46DC4489
:104A5000614601204968014200D17CE001211142F8
:104A600031D049464046FFF737FC8146002800D147
:104A70009CE1012302007968083A99437F18BA4201
:104A800000D13CE1221F242A00D929E10300132A86
:104A900000D90BE1320011681960516859609268C1
:104AA0009A603100404600F049FB4046FFF790FF16
:104AB000484649E004339D432B1EB2DA0C2342469C
:104AC0000020136040E03A68BA1A93465946032220
:104AD000496891430A00A21801929A42C1DB5B46E1
:104AE0005A465F469268DB680837D3609A60221F97
:104AF000242A00D910E13B00132A09D95B4631680A
:104B000099607168D9601B2A00D921E110330836F9
:104B10003268DA461A607268019C5A60B2683E00D8
:104B20009A60631B0F2B24D85346012152465B68C1
:104B30000B40234353602200524453681943516091
:104B40004046FFF745FF300005B03CBC9046994613
:104B5000A246AB46F0BD032102988C46884301195A
:104B600099421FDB019A0C00D3689268D3609A6067
:104B7000D7E752465046511901224068104005437C
:104B80005046456018001043CB18486058680831FB
:104B900002435A60404600F0D1FAD1E71100FFF716
:104BA0009BFBD1E70120104200D05AE760463A68EB
:104BB000BA1A93465268824389180291994200DAE0
:104BC00089E7019A5F46D36892680837D3609A6094
:104BD0005B465A46DB689268D3609A60221F242A9B
:104BE00000D991E03B00132A09D95B4631689960EE
:104BF0007168D9601B2A00D996E0103308363268F4
:104C0000029C1A607268DA465A60B2683E009A6086
:104C100087E70320019984464968814328000919E0
:104C20001030019081424BDAD20700D519E7604677
:104C30003A68BA1A93465268824301985118029111
:104C4000884200DD47E75B465A465F469268DB686C
:104C50000837D3609A60221F242A00D997E03B00CE
:104C6000132A09D95B46316899607168D9601B2A9B
:104C700000D991E01033083632681A6072685A60C1
:104C8000B2689A605B4659193B4B40469960029B5B
:104C90005A1B01231A434A605A46526813401D4367
:104CA0005B465D60FFF794FE38004DE731680160B8
:104CB000716841601B2A17D8320008330832EAE6CF
:104CC0002D4B7A199A600123491B194351607A6868
:104CD000404613401D437D60FFF77AFE300033E706
:104CE0003100FFF7E1FDDCE6B16803008160F168A7
:104CF000C160242A22D0320010331032CBE6536830
:104D000003229343E4180CE731003800FFF7CCFD91
:104D10003E00029CDA4604E731003800FFF7C4FD8C
:104D20003E00019CDA46FCE65B46B1681961F16819
:104D30005961242A16D01833103660E7326903000F
:104D40000261010032007069183318324861A2E62E
:104D50005B46B1681961F1685961242A0ED0183395
:104D60001036D5E65B4632699A615A46716920333E
:104D7000D161183643E7C0469C0700205B46326984
:104D80009A615A4671692033D1611836C0E6310004
:104D90003800FFF789FD75E75B46B1681961F16876
:104DA0005961242A07D01833103665E74046FFF7CB
:104DB0000FFE0020C8E65B4632699A615A46716967
:104DC0002033D161183657E7002370B5064C050033
:104DD00008002360FDF7F4FC431C00D070BD23687D
:104DE000002BFBD02B60F9E7BC0F0020031C0A78D6
:104DF00001311A700133002AF9D1704710B58307C9
:104E000027D00378002B26D00300032102E01A7874
:104E1000002A1CD001330B42F9D119680F4A104CFB
:104E20008A188A4322420FD1043319680B4A8A1820
:104E30008A43224208D104331968084A8A188A43EF
:104E40002242F1D000E001331A78002AFBD1181A6F
:104E500010BD0300E1E70020FAE7C046FFFEFEFEBA
:104E6000808080800B00034370B505009B0701D153
:104E7000032A15D8002A12D04C1C0978013A6B1C61
:104E8000297000291BD0210007E00C7801335D1E3A
:104E9000013A2C700131002C11D0002AF5D170BDDF
:104EA0000B4E0C680B4BE318A3433342E4D104359B
:104EB0002B1F043A04311C60032AF2D8DAE79C184D
:104EC0000021002AEBD019700133A342FBD1E6E7A1
:104ED00080808080FFFEFEFEF0B5574645464E4678
:104EE000E0B48AB090466A461D4B0D00060013CB15
:104EF00013C213CB13C213CB13C21B78EA46137031
:104F00004346023B2F000024222B01D924E04C46CB
:104F1000631C300041469946FFF76CF953465B5CD1
:104F200030003B704146FFF7DFF80137061EEED137
:104F30004B46E8540023002C07D0EA5C295DE95475
:104F40002A550133013CA342F7DB28000AB01CBC00
:104F500090469946A246F0BD2C700020F6E7C04668
:104F6000D856000010B5FFF7B7FF10BDF8B544469E
:104F70005F4656464D469B462F4BF0B41C68A42313
:104F80005B000500E0580E00904600284BD04368B7
:104F90001F2B0DDC5C1C002D21D102339B004460D3
:104FA0001E5000203CBC90469946A246AB46F8BD38
:104FB000224B002B3CD0C8204000FFF779F9002895
:104FC00036D0A42200235200A15843600160A050B3
:104FD00040328350043283500124002DDDD09A00EA
:104FE00091468144424688214F467A50C42252005D
:104FF0009046804442468739994012688A460A435F
:105000009446424661461160842249465F465200FA
:105010008F50022DC1D1020055468D32FF321168EA
:105020000D431560B9E720004D30FF30E050AEE78A
:1050300001204042B6E7C046D4560000B14200000D
:10504000034B10B5002B02D0024800F005F810BD4C
:10505000000000006950000010B50100002300228C
:105060000020FFF783FF10BD70B5094B094CE41A0F
:10507000A41009D0084AA518AD00ED182B68013C12
:105080009847043D002CF9D100F04AFB70BDC046A2
:105090000000000000000000FFFFFF3FF8B50C001B
:1050A0000600FFF793FC204FBB685D6803239D4318
:1050B0001E4B2C1B9C466444240B1D4B013C2403BB
:1050C0009C4207DD00213000FFF77EFEBB685B19C4
:1050D000984204D03000FFF77BFC0020F8BD61420D
:1050E0003000FFF771FE431C0DD001232D1BBA6861
:1050F0001D43104B55601A683000141B1C60FFF7ED
:1051000067FC0120EAE700213000FFF75DFEBB6885
:10511000C21A0F2ADEDD08490968401A05490860ED
:1051200001210A435A60D5E79C070020EF0F0000D9
:10513000FF0F00005C0F0020A80B0020F0B54746D1
:10514000050080B40C1E3ED0FFF740FC0123210077
:10515000984608394E684246330003209343CC18E2
:105160006268824360488768BC425AD047466260A2
:1051700037420BD10827BC460E688444891B9B1913
:105180008E68664566D0CF68F760BE600126A718B6
:105190007F68374236D0554A1E434E60CB5093420B
:1051A00014D8DB08FF3A9C10FF3AA2404468DB00A9
:1051B0002243426018188368C8608B608160D960A0
:1051C0002800FFF705FC04BC9046F0BD5A0A042AEB
:1051D0004FD89C092600393438366400A4000419DD
:1051E000083CA268032794424AD05068B8438342DF
:1051F00002D292689442F8D1D468CC608A60A160EF
:10520000D160DDE79B183A4FA268BA4240D0E4680B
:105210001E43D460A260354A4E60CB509342D5D82D
:10522000BFE79B184246324206D10A68891A8C6849
:105230009B18CA68E260946001242E4A1C431268DD
:105240004C6081609342BBD32B4B28001968FFF759
:1052500025FFB5E74646A018406830423ED1A06819
:10526000D318E268C260906042461A434A60CB504D
:10527000A6E7142A14D816005C325B365400ADE75A
:105280000123B610B3404268134343602200B4E7E1
:105290001E43D1609160CA608A604E60CB508FE738
:1052A000542A05D81C0B26006F346E36640095E72F
:1052B000AA246400A24205D8DC0B26007834773695
:1052C00064008BE70D4CA24205D89C0C26007D346F
:1052D0007C36640082E7FE247E267FE742461A433E
:1052E0004A60CB506CE7C0469C070020FF010000DD
:1052F000A4070020A40B0020580F00205405000034
:105300004669727374627974653A20006373773A00
:10531000206661737420666F727761726420746FA7
:10532000206E657874207472616E73616374696F46
:105330006E006373773A20666C757368696E6720D8
:105340006275666665722026206661737420666FDA
:10535000727761726420746F206E65787420747245
:10536000616E73616374696F6E005265616C696729
:105370006E696E672E2E2E00736561726368696EAA
:10538000673A206E65787420627974653A20006D02
:10539000636C3A204661737420466F727761726461
:1053A00020746F206E657874207472616E7361630F
:1053B00074696F6E0044657465637465642070720F
:1053C0006F746F636F6C3A20006373773A20646187
:1053D0007461206E6F7420616C6C69676E65642007
:1053E0003A00426164204352433A200020213D208C
:1053F0000002FF00FFFFFF04FFFFFFFFFFFFFF06AC
:105400000006FF02FFFFFF044D4355205265616413
:105410007900636865636B20666F722061637469ED
:10542000766520636F6E6E656374696F6E2E2E2EC7
:105430000048494420646973706C61793A200048DF
:1054400049442072756D626C65733A200048494486
:10545000206C6564732020203A20005B215D204889
:10546000494420556E6B6E6F776E2066726F6D20AB
:1054700000202873697A653A0029203A20004353B6
:10548000575F494E3A004D434C5F494E3A007573A1
:1054900062206C6F6F702074696D65203A20007512
:1054A0007362206C6F6F702074696D652070726517
:1054B0002073656E643A2000757362206C6F6F70A4
:1054C0002074696D6520706F73742073656E643A23
:1054D0002000736B697070696E67207265706F72FF
:1054E0007400FFFF420000F840A0044001000000EB
:1054F000420000F844A0044002000000C00000F890
:1055000000C0044001000000000000F804900440C6
:1055100002000000000000F80890044004000000B1
:10552000C00000F81CC0044080000000C00000F86B
:1055300010C0044010000000C00000F808C0044083
:1055400004000000C00000F80CC004400800000087
:10555000800000F80CB0044008000000800000F853
:1055600010B0044010000000800000F818B00440A3
:1055700040000000800000F81CB0044080000000E3
:10558000800000F814B0044020000000C00000F8C3
:1055900004C0044002000000800000F800B0044095
:1055A00001000000400000F800A0044001000000DD
:1055B000400000F804A0044002000000400000F891
:1055C0000CA0044008000000400000F808A00440BF
:1055D00004000000C00000F814C0044020000000D7
:1055E000C00000F818C0044040000000800000F82F
:1055F00004B0044002000000800000F808B004403D
:1056000004000000020100F850D004401000000027
:10561000020100F854D0044020000000030100F80B
:1056200078D00440400000001D15191515FFFFFF3C
:10563000000100009801002012000000000200009C
:10564000FA0100206B00000000220000650200202B
:105650008F000000002100004E0200200900000021
:1056600000030000340300200000000001030904CF
:10567000EA0100200000000002030904F4020020F7
:1056800000000000030309043803002000000000AC
:1056900004030904AA01002000000000000000002B
:1056A00000000000000000000D0AFFFF00000000E5
:1056B00000000000973F00008B3F0000833F000088
:1056C0007B3F0000733F00006B3F0000633F000022
:1056D0005B3F000070030020303132333435363701
:1056E00038396162636465666768696A6B6C6D6EA0
:1056F0006F707172737475767778797A0000000034
:10570000F8B5C046F8BC08BC9E4670474150000042
:1057100039040000610B0000A9260000B13C000024
:04572000F8B5C046D2
:1057240000000000005EBCE2613FDD83C29C7E207D
:10573400A3FD1F419DC3217FFCA2401E5F01E3BD69
:105744003E6082DC237D9FC1421CFEA0E1BF5D035D
:1057540080DE3C62BEE0025CDF81633D7C22C09E51
:105764001D43A1FF4618FAA427799BC584DA38663D
:10577400E5BB5907DB856739BAE406581947A5FB29
:105784007826C49A653BD987045AB8E6A7F91B451D
:10579400C6987A24F8A6441A99C7257B3A6486D811
:1057A4005B05E7B98CD2306EEDB3510F4E10F2ACFD
:1057B4002F7193CD114FADF3702ECC92D38D6F31E9
:1057C400B2EC0E50AFF1134DCE90722C6D33D18FDD
:1057D4000C52B0EE326C8ED0530DEFB1F0AE4C12D1
:1057E40091CF2D73CA947628ABF517490856B4EABD
:1057F4006937D58B5709EBB536688AD495CB2977A9
:10580400F4AA4816E9B7550B88D6346A2B7597C99C
:105814004A14F6A8742AC896154BA9F7B6E80A5490
:10582400D7896B3506040002050701030500000053
:10583400FF0A0400C00F002012010002EF02014021
:105844000912A0DA0C0101020301400346004100E1
:105854004E004100540045004300200043006C000A
:1058640075006200530070006F0072007400200025
:1058740057006800650065006C002000420061006C
:1058840073006500200056003200100346006100DA
:105894006E00610074006500630009026B0003017F
:1058A40000C03209040000020300000409211101B0
:1058B4002101228F0007058103200002070501034F
:1058C400080002080B01020202010409040100019C
:1058D4000202010005240010010524010101042431
:1058E400020605240601020705820310004009048C
:1058F4000200020A00000007050302400000070539
:10590400840240000005010904A1010509190129C7
:1059140058150025017501955881020501093009C2
:105924003109330934150026FF00750895048102F6
:1059340005010939150025073500463B0165147535
:105944000495018142952175048101050A09011517
:10595400002501A1020508094B750195019102C0BA
:105964000902A1020508094B750195019102C009BC
:1059740003A1020508094B750195019102C00904B0
:10598400A1020508094B750195019102C0950D7599
:10599400049101C04003460041004E004100540000
:1059A40045004300200043006C0075006200530072
:1059B40070006F00720074002000570068006500DA
:1059C40065006C0020004200610073006500200047
:1059D40056003200040309040C0300000000000018
:1059E40000000000000000000000000000000000B3
:1059F400FFFFFFFFFFFF0000AF3A0000AF3A0000D7
:105A0400B456000000000000E8030000000000009D
:105A1400000000005C060020C40600202C070020C3
:105A24000000000000000000000000000000000072
:105A34000000000000000000000000000000000062
:105A44000000000000000000000000000000000052
:105A54000000000000000000000000000000000042
:105A64000000000000000000000000000000000032
:105A74000000000000000000000000000000000022
:105A84000000000000000000000000000000000012
:105A94000000000000000000000000000000000002
:105AA40000000000000000000000000000000000F2
:105AB40000000000000000000100000000000000E1
:105AC4000E33CDAB34126DE6ECDE05000B000000A6
:105AD40000000000000000000000000000000000C2
