:1000000000180020C100000009220000CD210000DE
:10001000CD210000CD210000CD210000CD21000028
:10002000CD210000CD210000CD21000009220000DB
:1000300009220000CD210000D5310000A5320000CA
:100040000922000009220000092200000922000004
:1000500009220000092200000922000009220000F4
:1000600009220000092200000922000009220000E4
:10007000BD240000952500006D2600000922000027
:1000800009220000092200000922000009220000C4
:10009000092200000922000021330000092200008B
:1000A000592900000922000009220000092200004D
:1000B000092200000131000009220000092200008D
:1000C000F8B502F0A5F80821474A484B1A60484A9B
:1000D000484B1A60484A494B1A60494B1A780A4201
:1000E00002D01A780A431A702A22464B46481A70E0
:1000F00000234649464C1A188A4203D2E558043375
:100100001560F8E70021434B434A934201D202C3F2
:10011000FBE70023414A424958589446985004331B
:10012000C02BF9D100210326FF2580248A083D4BEE
:100130009200D2180B002F003340DB009F40106864
:100140000131B84307002000984003003B4313608F
:100150002029EBD16246344B1A608A22334B1A7045
:10016000334B663A5A707C321A709E3A9979114232
:10017000FCD0102299791142FCD10C209A792C499B
:100180000240082AFAD1053A0A713D324A71203AF2
:1001900099791142FCD0402299791142FCD0C021BA
:1001A000244A890511602021214A117014399A7955
:1001B0000A400C2AFBD1204A204B1A60204A214BCE
:1001C0001A600022204B1A60204B07321A60204A26
:1001D000204B1A6062B602F0F9F803F0B3FA02F0AD
:1001E0001DF803F03FF9FEE7300004F034800440CE
:1001F000823F0000388004400100000F3C80044032
:1002000002D0074000E00740800000205C0B002087
:10021000A84900005C0B0020200F002000F9FF1F00
:100220000000000000E400E008ED00E0005006409F
:100230000040064044800440C0000505048004409E
:10024000BF5D000014E000E018E000E010E000E016
:100250000000202020ED00E0FFFFFFFFFFFFFFFF79
:10026000FFFFFFFFFFFFFFFFFFFFFFFFFFFFFFFF9E
:10027000FFFFFFFFFFFFFFFFFFFFFFFFFFFFFFFF8E
:10028000FFFFFFFFFFFFFFFFFFFFFFFFFFFFFFFF7E
:10029000FFFFFFFFFFFFFFFFFFFFFFFFFFFFFFFF6E
:1002A000FFFFFFFFFFFFFFFFFFFFFFFFFFFFFFFF5E
:1002B000FFFFFFFFFFFFFFFFFFFFFFFFFFFFFFFF4E
:1002C000FFFFFFFFFFFFFFFFFFFFFFFFFFFFFFFF3E
:1002D000FFFFFFFFFFFFFFFFFFFFFFFFFFFFFFFF2E
:1002E000FFFFFFFFFFFFFFFFFFFFFFFFFFFFFFFF1E
:1002F000FFFFFFFFFFFFFFFFFFFFFFFFFFFFFFFF0E
:10030000FFFFFFFFFFFFFFFFFFFFFFFFFFFFFFFFFD
:10031000FFFFFFFFFFFFFFFFFFFFFFFFFFFFFFFFED
:10032000FFFFFFFFFFFFFFFFFFFFFFFFFFFFFFFFDD
:10033000FFFFFFFFFFFFFFFFFFFFFFFFFFFFFFFFCD
:10034000FFFFFFFFFFFFFFFFFFFFFFFFFFFFFFFFBD
:10035000FFFFFFFFFFFFFFFFFFFFFFFFFFFFFFFFAD
:10036000FFFFFFFFFFFFFFFFFFFFFFFFFFFFFFFF9D
:10037000FFFFFFFFFFFFFFFFFFFFFFFFFFFFFFFF8D
:10038000FFFFFFFFFFFFFFFFFFFFFFFFFFFFFFFF7D
:10039000FFFFFFFFFFFFFFFFFFFFFFFFFFFFFFFF6D
:1003A000FFFFFFFFFFFFFFFFFFFFFFFFFFFFFFFF5D
:1003B000FFFFFFFFFFFFFFFFFFFFFFFFFFFFFFFF4D
:1003C000FFFFFFFFFFFFFFFFFFFFFFFFFFFFFFFF3D
:1003D000FFFFFFFFFFFFFFFFFFFFFFFFFFFFFFFF2D
:1003E000FFFFFFFFFFFFFFFFFFFFFFFFFFFFFFFF1D
:1003F000FFFFFFFFFFFFFFFFFFFFFFFFFFFFFFFF0D
:10040000FFFFFFFFFFFFFFFFFFFFFFFFDEF9FFFF23
:1004100010B5064C2378002B07D1054B002B02D0DA
:10042000044800E000BF0123237010BD5C0B0020D6
:1004300000000000A8490000084B10B5002B03D0B5
:100440000749084800E000BF07480368002B00D1B7
:1004500010BD064B002BFBD09847F9E700000000C9
:10046000600B0020A84900005C0B00200000000089
:1004700070B5174C174B01201B78002B25D002F0CC
:10048000DBF9154E022803D9013C002C13D115E0ED
:1004900002F0AAFD051EF7D00024347020260F4973
:1004A0003200083003F030FC01202E80290002F0D9
:1004B00015FA20000AE03378002B03D00123012035
:1004C000337002E002F0DCFFD4E7404270BDC0466A
:1004D000B51E00007B0E0020780B0020F80E0020D7
:1004E000F0B507000C00164E85B033680293029BEE
:1004F0000193144B01201B78002B1AD002F082F9D3
:10050000051E0BD13368019A0393039B9B1AA342E8
:1005100011D8002C10D002F0B3FFEAE70100082246
:100520000831380003F0F0FB280002F07BFD0820C2
:1005300003E0404201E000E0200005B0F0BDC0460D
:10054000380C00207B0E00200023322203608280C2
:10055000837170478180704713B583798B420DD0CA
:10056000074A046813680093009B1B1B8488A342FE
:1005700004D3136881710193019B0360807916BDD8
:10058000380C002010B5084C2368002B08D072B638
:10059000064A246813682340054C2360136062B642
:1005A000044BD870597010BDBC0E002080E100E0F3
:1005B000C00E002000600740044B98711A7852B2B8
:1005C000002AFBDA014B9879C0B2704700600740FF
:1005D000044B1B68002B03D0034B1A68034B1A60B3
:1005E0007047C046BC0E0020C00E002000E100E0B5
:1005F00003004118FF2010B5044C8B4204D01A7838
:1006000001335040205CF8E710BDC0468400002054
:10061000F8B502242B4B59781878FFF7B3FF002167
:100620000A2001F03FFE284B1B68DB0001D0013B94
:10063000FDD10020FFF7C0FF0500522807D120267A
:100640000020013EFFF7B8FF002EF9D129E0D228A3
:1006500007D13F260020013EFFF7AEFF002EF9D163
:100660001FE0E0281DD000281BD0232700260020F3
:10067000FFF7A2FFA52E02D109280CD103E0522ECC
:1006800009D1842807D11F250020013DFFF794FFE1
:10069000002DF9D104E0013F0600002FE7D100E072
:1006A000350001210A2001F0FDFDFFF791FF5023E5
:1006B000013BFDD1013C002CACD10A2001F06CFEC5
:1006C0002800F8BD7A0B00208C01002010B50C4CDE
:1006D0002378002B12D1FFF79BFF0323A5280CD012
:1006E00002D8522806D007E0D22803D00223E028FF
:1006F00003D001E0012300E000232370207810BD27
:10070000790B0020F7B5561E07000C00F1B20192DC
:10071000FFF76EFF7B1CD8771A4B002559781878A5
:10072000FFF730FF00210A2001F0BCFD019B9D4234
:1007300005DA785DFFF740FF60550135F6E70121E6
:100740000A2001F0AFFDFFF743FF7F23227813401B
:10075000522B0ED123001A1B964207DD1A78510046
:100760005A78D2090A431A700133F4E7A35D5B009B
:10077000A355012223789343A42B02D00022024BDD
:100780001A70F7BD7A0B0020790B0020F7B5060030
:100790000F000225019243700024154B59781878F8
:1007A000FFF7F0FE00210A2001F07CFD114B1B68D1
:1007B000DB00A34201D0013BFDD1019B9C4205DA45
:1007C000305DFFF7F9FE38550134F6E701210A20C4
:1007D000013D01F067FDFFF7FBFE002DDCD17378D2
:1007E000002B04D13B78E02B01D0034B1D70F7BDEB
:1007F0007A0B00208C010020790B0020F8B50E0048
:10080000511E0500C9B21700FFF7F2FE6B1CD87726
:100810000F4B002459781878FFF7B4FE00210A2006
:1008200001F040FDBC4205DA285DFFF7C5FE3055FA
:100830000134F7E701210A2001F034FDFFF7C8FE7B
:100840003378A52B02D00022024B1A70F8BDC046A7
:100850007A0B0020790B00200100002270B51000F7
:10086000C9430125054C0B001341165D2B40B340D5
:1008700001321843C0B2082AF5D170BD84010020AE
:10088000C0225200FF23104200D0103B60221042D1
:1008900000D0AF231822104200D0BF2306221042FE
:1008A00000D0FE23C20700D5AE2318007047030016
:1008B0005220502B2DD014D829380F2B29D006D8F0
:1008C0002838062B25D00630834222D020E0002095
:1008D0003F2B1ED003304F2B1BD02530392B17D187
:1008E00017E005206D2B14D009D803385B2B10D0EE
:1008F0000230662B0DD04A30542B09D109E0062076
:100900007D2B06D002307F2B03D001306F2B00D01F
:100910000A20704710B501210A2001F0E3FC0121F3
:100920000A2001F0BFFC02F0FBFD2022014B5A70AF
:1009300010BDC04600600740502200215420054BE6
:100940001A70403A59709A70034B187059709A7027
:100950007047C0467A0B00207D0B00200139C9B2D8
:1009600010B5572900D99FE0504B4F290CD90120D1
:1009700050398840002A03D09A7A104398728DE04B
:100980009A7A82439A7289E0012047290BD9483923
:100990008840002A03D05A7A104358727EE05A7A6F
:1009A00082435A727AE03F290BD940398840002AA5
:1009B00003D01A7A1043187270E01A7A82431A72BE
:1009C0006CE037290BD938398840002A03D0DA790E
:1009D0001043D87162E0DA798243DA715EE02F2940
:1009E0000BD930398840002A03D09A791043987186
:1009F00054E09A7982439A7150E027290BD928391B
:100A00008840002A03D05A791043587146E05A7939
:100A100082435A7142E01F290BD920398840002AAD
:100A200003D01A791043187138E01A7982431A7189
:100A300034E017290BD918398840002A03D0DA7816
:100A40001043D8702AE0DA788243DA7026E00F2962
:100A50000BD910398840002A03D09A781043987037
:100A60001CE09A7882439A7018E007290CD901207B
:100A700008398840002A03D05A78104358700DE096
:100A80005A7882435A7009E08840002A03D01A78C5
:100A90001043187002E01A7882431A70044B1B78D6
:100AA000002B01D1FFF7E4FC10BDC046F80E00207A
:100AB000900B0020074A10B5C30004001068C0184E
:100AC000FFF74AFD421E90412100C2B20248FFF7E3
:100AD00045FF10BD240C0020010C0020802370B5C0
:100AE000181A094B7F31094A0D001978D072160087
:100AF0001C00002901D1FFF7BBFC23783573002BC4
:100B000001D1FFF7B5FC70BD900B0020F80E00205E
:100B100070B5094B094A0D001978507316001C0076
:100B2000002901D1FFF7A4FC2378B573002B01D174
:100B3000FFF79EFC70BDC046900B0020F80E002011
:100B40000A4B70B51D00814200D201005973084B59
:100B50001A781C00002A01D1FFF78AFC0023AB732E
:100B60002378002B01D1FFF783FC70BDF80E002025
:100B7000900B002010B50C00C1B20E48FFF7ECFC42
:100B8000002C05D00238C0B20B4B0E2805D906E068
:100B90000138C0B2072802D8084B1B5601E00123D8
:100BA0005B42074AD373074B1B78002B01D1FFF739
:100BB0005FFC10BDB40B00206847000077470000C1
:100BC000F80E0020900B0020064B10B5C0B25870F4
:100BD000054B5877054B1B78002B01D1FFF748FCDC
:100BE00010BDC046020C0020F80E0020900B002023
:100BF00010B50020FFF7E8FF00210800FFF76EFFA7
:100C000000210800FFF7B6FF00210800FFF780FF72
:100C10000124E0B200210134FFF74CFF262CF8D16B
:100C2000FF22044B1A70044BFE3A1A700022034B49
:100C30001A6010BD90010020350C0020280C002007
:100C400073B5FFF767FE32211C48FFF783FC1C4C8D
:100C50001E21206821268830FFF77CFC20681E2199
:100C60009030FFF777FC0122164B1A70FFF7C0FF98
:100C7000154D32002800002103F0D0F80222002197
:100C8000124803F0CBF8124C32000021200003F090
:100C9000C5F8A52300222B7023700E4B1A7001F0AB
:100CA00057FB0D4B18600D4B1B680193019A0C4BC1
:100CB0001A6001F04DFB0B4B186073BDB40B0020A4
:100CC000240C0020900B0020020C0020330C00208C
:100CD000910B0020800B00208C0B0020380C002092
:100CE000880B0020840B002037B593781400012B6B
:100CF00035D1D378022B23D1254B1B78002B3FD144
:100D0000FFF7E4FC03280FD1224D11236B702079EB
:100D1000FFF7CDFDA8706079FFF7C9FDE870A079F5
:100D2000FFF7C5FD28712BE01B4B1C4D5B78092B91
:100D3000EBD02379AB706379EB70A3792B711FE053
:100D4000032B1DD1154B5A78042A19D0124A527818
:100D5000092A15D02279DA7162791A7210E0082B0B
:100D60000ED10E4A5378042B0AD00B4B5B78092B1B
:100D700006D0E37821791B020B4353711B0A937150
:100D8000074B1B680193019A064B1A6037BDC0469A
:100D9000350C0020910B0020BC0B0020020C002021
:100DA000380C0020880B0020F0B5314A87B013784A
:100DB000002B5AD02F4E304F3568002D3BD1FFF716
:100DC00085FC032807D12D4B02A8D97F02F02AFB0E
:100DD0002B4C112309E02B4C02A8E17F02F022FBEF
:100DE0006378294C092B1BD108336370073BA37030
:100DF000E3702371290002A802F030FBA070049B6D
:100E0000012B04D9012102A802F028FBE070049B09
:100E1000022B08D9022102A802F020FB207102E077
:100E2000A570E570257102A802F0ACFA3B68029348
:100E3000029B336019E03B680193019B5D1B134BE0
:100E40009D4212D900200A23112110700C4A5170C2
:100E50009370D370137150720A4A5278092A04D1E0
:100E6000094A51709370D370137107B0F0BDC0463A
:100E7000350C0020280C0020380C0020E00B00204E
:100E8000910B0020BC0B0020020C00209F0F0000E3
:100E900010B5012001F080FA10BDFFFFF8B5E64C57
:100EA00000212000FFF71CFB81B2002903D02200A3
:100EB0000120FFF719FFFFF709FC0400022801D108
:100EC00000F07AFC032801D100F01EFD012801D0BA
:100ED00001F0FFF8D94D21222900D948FFF712FC73
:100EE000FFF762FF6878FFF76FFEA9796879FFF76F
:100EF000F5FDA9782000C909FFF7DCFDA9780220DB
:100F000089092140FFF7D6FDA9780320490921402E
:100F1000FFF7D0FDA978042009092140FFF7CAFD99
:100F2000E9780520C909FFF7C5FDE9780620890998
:100F30002140FFF7BFFDE978072049092140FFF76D
:100F4000B9FDE978092089082140FFF7B3FD297927
:100F50000B20C9082140FFF7ADFD29790C20890835
:100F60002140FFF7A7FDE9780F20C9082140FFF7CE
:100F7000A1FDE97810202140FFF79CFDEB79B14EEF
:100F800033706B78092B29D0E978082009092140B2
:100F9000FFF790FDE9780A2049082140FFF78AFD14
:100FA00029790D2049082140FFF784FD29790E2079
:100FB00049092140FFF77EFD0021715611200131C2
:100FC0004B425941C9B2FFF775FD002171561220FD
:100FD00001394B425941C9B2FFF76CFD02226B78CF
:100FE0009343042B6ED10124297A1320C908214090
:100FF000FFF760FD297A142009092140FFF75AFD07
:10100000297A152049092140FFF754FDA97A1620B5
:101010002140FFF74FFDA97A1720E1402140FFF75B
:1010200049FDA97A182089082140FFF743FDA97AD4
:101030001920C9082140FFF73DFDA97A1A200909A6
:101040002140FFF737FDA97A1B2049092140FFF70E
:1010500031FDA97A1C2089092140FFF72BFDA97ACF
:101060001D20C909FFF726FDE97A1E202140FFF760
:1010700021FDE97A1F20E1402140FFF71BFDE97ABD
:10108000202089082140FFF715FDE97A2120C908B1
:101090002140FFF70FFDE97A222009092140FFF7DF
:1010A00009FDE97A232049092140FFF703FDE97A88
:1010B000242089092140FFF7FDFCE97A2520C90990
:1010C000FFF7F8FC6B78062B05D1697A2620090713
:1010D000C90FFFF7EFFC0F24A87800212040FFF78D
:1010E00049FD6B78092B01D000F0F8FFEB78002167
:1010F000DB0605D5E97BA14310394B425941C9B202
:101100000820FFF7D7FC2B7900217F2B06D90F236E
:10111000E97B994310394B425941C9B21320FFF77B
:10112000C9FCEB7800219B0706D50F23E97B994387
:1011300010394B425941C9B20A20FFF7BBFC2B7949
:1011400000215B0606D50F23E97B994310394B42FA
:101150005941C9B21420FFF7ADFCEB780021DB0642
:1011600006D50F23E97B994320394B425941C9B237
:101170002120FFF79FFC2B7900217F2B06D90F231D
:10118000E97B994320394B425941C9B22220FFF7EC
:1011900091FCEB7800219B0706D50F23E97B99434F
:1011A00020394B425941C9B22320FFF783FC2B79E8
:1011B00000215B0606D50F23E97B994320394B427A
:1011C0005941C9B22420FFF775FCEB780021DB06FA
:1011D00006D50F23E97B994330394B425941C9B2B7
:1011E0002520FFF767FC2B7900217F2B06D90F23E1
:1011F000E97B994330394B425941C9B22620FFF768
:1012000059FCEB7800219B0706D50F23E97B994316
:1012100030394B425941C9B22720FFF74BFC2B799B
:1012200000215B0610D50F23E97B994330394B42EF
:101230005941C9B208E0C0462C0C0020BC0B00206C
:10124000020C0020DD0B00202820FFF733FCEB7898
:101250000021DB0606D50F23E97B994340394B4239
:101260005941C9B22920FFF725FC2B7900217F2B9A
:1012700006D90F23E97B994340394B425941C9B202
:101280002A20FFF717FCEB7800219B0706D50F23D8
:10129000E97B994340394B425941C9B22B20FFF7B2
:1012A00009FC2B7900215B0606D50F23E97B9943C6
:1012B00040394B425941C9B22C20FFF7FBFBEB7878
:1012C0000021DB0606D50F23E97B994350394B42B9
:1012D0005941C9B22D20FFF7EDFB2B7900217F2B5F
:1012E00006D90F23E97B994350394B425941C9B282
:1012F0002E20FFF7DFFBEB7800219B0706D50F239D
:10130000E97B994350394B425941C9B22F20FFF72D
:10131000D1FB2B7900215B0606D50F23E97B99438E
:1013200050394B425941C9B23020FFF7C3FBEB782B
:101330000021DB0606D50F23E97B994360394B4238
:101340005941C9B23120FFF7B5FB2B7900217F2B22
:1013500006D90F23E97B994360394B425941C9B201
:101360003220FFF7A7FBEB7800219B0706D50F2360
:10137000E97B994360394B425941C9B23320FFF7A9
:1013800099FB2B7900215B0606D50F23E97B994356
:1013900060394B425941C9B23420FFF78BFBEB78DF
:1013A0000021DB0606D50F23E97B994370394B42B8
:1013B0005941C9B23520FFF77DFB2B7900217F2BE6
:1013C00006D90F23E97B994370394B425941C9B281
:1013D0003620FFF76FFBEB7800219B0706D50F2324
:1013E000E97B994370394B425941C9B23720FFF725
:1013F00061FBB64C002123795B0606D50F23E17B08
:10140000994370394B425941C9B23820FFF752FB1A
:10141000E3780021DB0606D50F23E17B9943803971
:101420004B425941C9B23920FFF744FB23790021CF
:101430007F2B06D90F23E17B994380394B425941D9
:10144000C9B23A20FFF736FBE37800219B0706D5A7
:101450000F23E17B994380394B425941C9B23B206C
:10146000FFF728FB237900215B0606D50F23E17BDC
:10147000994380394B425941C9B23C20FFF71AFBCE
:10148000E3780021DB0606D50F23E17B99439039F1
:101490004B425941C9B23D20FFF70CFB2379002193
:1014A0007F2B06D90F23E17B994390394B42594159
:1014B000C9B23E20FFF7FEFAE37800219B0706D56C
:1014C0000F23E17B994390394B425941C9B23F20E8
:1014D000FFF7F0FA237900215B0606D50F23E17BA5
:1014E000994390394B425941C9B24020FFF7E2FA83
:1014F000E3780021DB0606D50F23E17B9943A03971
:101500004B425941C9B24120FFF7D4FA2379002157
:101510007F2B06D90F23E17B9943A0394B425941D8
:10152000C9B24220FFF7C6FAE37800219B0706D52F
:101530000F23E17B9943A0394B425941C9B2432063
:10154000FFF7B8FA237900215B0606D50F23E17B6C
:101550009943A0394B425941C9B24420FFF7AAFA36
:10156000E3780021DB0606D50F23E17B9943B039F0
:101570004B425941C9B24520FFF79CFA237900211B
:101580007F2B06D90F23E17B9943B0394B42594158
:10159000C9B24620FFF78EFAE37800219B0706D5F3
:1015A0000F23E17B9943B0394B425941C9B24720DF
:1015B000FFF780FA237900215B0606D50F23E17B34
:1015C0009943B0394B425941C9B24820FFF772FAEA
:1015D000E3780021DB0606D50F23E17B9943C03970
:1015E0004B425941C9B24920FFF764FA23790021DF
:1015F0007F2B06D90F23E17B9943C0394B425941D8
:10160000C9B24A20FFF756FAE37800219B0706D5B6
:101610000F23E17B9943C0394B425941C9B24B205A
:10162000FFF748FA237900215B0606D50F23E17BFB
:101630009943C0394B425941C9B24C20FFF73AFA9D
:1016400021790E208907C90FFFF734FA0F23A27BF7
:101650001F4D1340022B10D16379002B0DD10023B5
:101660001C49EB560A78D318FF2B01DDFF2302E05B
:10167000DA43D21713400B700CE029781120C90906
:10168000FFF718FA002169561220CB17591AC90F13
:10169000FFF710FA0F23A27B1A406379012A02D0C8
:1016A000022A04D018E0A179D843C9430BE0FF20F7
:1016B000084A98431278FF2A02D0013250430012A0
:1016C000FF21A3799943FFF73BFA0AE0BC0B002006
:1016D000DD0B002090010020A179D843C943FFF71A
:1016E00017FA0F23E27B00211340012B03D122794B
:1016F0005209934319001520FFF7DCF90F23E27B11
:1017000000211340022B03D1237901315B09994356
:101710001620FFF7CFF90F23E27B00211340032BA4
:1017200003D1237901315B0999431720FFF7C2F9EF
:101730000F23E27B00211340042B03D123790131D5
:101740005B0999431820FFF7B5F90F23E27B0021CD
:101750001340052B03D1237901315B0999431920EB
:10176000FFF7A8F90F23E27B00211340062B03D1DA
:10177000237901315B0999431A20FFF79BF90F2365
:10178000E27B00211340072B03D1237901315B0950
:1017900099431B20FFF78EF90F23E27B00211340B2
:1017A000082B03D1237901315B0999431C20FFF7F2
:1017B00081F9514C00F059FC504D514F0200290065
:1017C00000233800FEF7E2FF0720FFF7FDF9FFF7DF
:1017D000EBFA4C4B01269878FFF73EF82200387060
:1017E000412329003800FEF7D1FF1E23287801216C
:1017F0001840FFF7BFF929780D203140FFF75AF95B
:10180000404BD878FFF728F82200230038702900D1
:101810003800FEF7BBFF29780B203140FFF74AF96B
:101820002978052089083140FFF744F929780E20EE
:10183000C9083140FFF73EF92978062009093140EF
:10184000FFF738F92F4B1879FFF706F844232200E9
:10185000387029003800FEF799FF29780F203140B1
:10186000FFF728F929780920F1403140FFF722F9E4
:1018700029780A2089083140FFF71CF929780820C7
:10188000C9083140FFF716F92978072009093140C6
:10189000FFF710F91B4A1B4B90795B790002184344
:1018A000FEF7EEFF08232200387029003800FEF70B
:1018B0006DFF297810203140FFF7FCF829783000BF
:1018C000F1403140FFF7F6F82978200089083140CF
:1018D000FFF7F0F829780320C9083140FFF7EAF84C
:1018E0000420297809093140FFF7E4F800210800B5
:1018F000FFF7F4F8F2E3C046BC0B0020DE0B00203B
:10190000330C0020020C00200F260127E14D21227C
:101910002900E148FEF772FFFFF746FA6878FFF703
:1019200053F9A87800213040FFF724F9A978012065
:10193000C909FFF7BFF8A978022089093940FFF7E4
:10194000B9F8A978200049093940FFF7B3F8A97818
:10195000042009093940FFF7ADF8E9780520C909E5
:10196000FFF7A8F8E978062089093940FFF7A2F8BF
:10197000E978072049093940FFF79CF8E978092000
:1019800089083940FFF796F8EB782C000021DB0638
:1019900005D5E97BB14310394B425941C9B2082002
:1019A000FFF788F8237900217F2B06D90F23E17BED
:1019B000994310394B425941C9B21320FFF77AF8C5
:1019C000E37800219B0706D50F23E17B994310396B
:1019D0004B425941C9B20A20FFF76CF82379002124
:1019E0005B0606D50F23E17B994310394B425941E1
:1019F000C9B21420FFF75EF8E3780021DB0606D5B4
:101A00000F23E17B994320394B425941C9B2212030
:101A1000FFF750F8237900217F2B06D90F23E17BB4
:101A2000994320394B425941C9B22220FFF742F86D
:101A3000E37800219B0706D50F23E17B99432039EA
:101A40004B425941C9B22320FFF734F823790021D2
:101A50005B0606D50F23E17B994320394B42594160
:101A6000C9B22420FFF726F8E3780021DB0606D56B
:101A70000F23E17B994330394B425941C9B22520AC
:101A8000FFF718F8237900217F2B06D90F23E17B7C
:101A9000994330394B425941C9B22620FFF70AF821
:101AA000E37800219B0706D50F23E17B994330396A
:101AB0004B425941C9B22720FEF7FCFF2379002190
:101AC0005B0606D50F23E17B994330394B425941E0
:101AD000C9B22820FEF7EEFFE3780021DB0606D529
:101AE0000F23E17B994340394B425941C9B2292028
:101AF000FEF7E0FF237900217F2B06D90F23E17B3E
:101B0000994340394B425941C9B22A20FEF7D2FFCE
:101B1000E37800219B0706D50F23E17B99434039E9
:101B20004B425941C9B22B20FEF7C4FF2379002153
:101B30005B0606D50F23E17B994340394B4259415F
:101B4000C9B22C20FEF7B6FFE3780021DB0606D5EC
:101B50000F23E17B994350394B425941C9B22D20A3
:101B6000FEF7A8FF237900217F2B06D90F23E17B05
:101B7000994350394B425941C9B22E20FEF79AFF82
:101B8000E37800219B0706D50F23E17B9943503969
:101B90004B425941C9B22F20FEF78CFF2379002117
:101BA0005B0606D50F23E17B994350394B425941DF
:101BB000C9B23020FEF77EFFE3780021DB0606D5B0
:101BC0000F23E17B994360394B425941C9B231201F
:101BD000FEF770FF237900217F2B06D90F23E17BCD
:101BE000994360394B425941C9B23220FEF762FF36
:101BF000E37800219B0706D50F23E17B99436039E9
:101C00004B425941C9B23320FEF754FF23790021DA
:101C10005B0606D50F23E17B994360394B4259415E
:101C2000C9B23420FEF746FFE3780021DB0606D573
:101C30000F23E17B994370394B425941C9B235209A
:101C4000FEF738FF237900217F2B06D90F23E17B94
:101C5000994370394B425941C9B23620FEF72AFFE9
:101C6000E37800219B0706D50F23E17B9943703968
:101C70004B425941C9B23720FEF71CFF237900219E
:101C80005B060BD50F23E17B994370394B425941D9
:101C9000C9B203E0E00B0020910B00203820FEF7D2
:101CA00009FFE3780021DB0606D50F23E17B99438A
:101CB00080394B425941C9B23920FEF7FBFE2379E6
:101CC00000217F2B06D90F23E17B994380394B42BA
:101CD0005941C9B23A20FEF7EDFEE37800219B0797
:101CE00006D50F23E17B994380394B425941C9B254
:101CF0003B20FEF7DFFEA34C002123795B0606D5CF
:101D00000F23E17B994380394B425941C9B23C20B2
:101D1000FEF7D0FEE3780021DB0606D50F23E17B3A
:101D2000994390394B425941C9B23D20FEF7C2FE5A
:101D3000237900217F2B06D90F23E17B994390392A
:101D40004B425941C9B23E20FEF7B4FEE378002170
:101D50009B0706D50F23E17B994390394B425941AC
:101D6000C9B23F20FEF7A6FE237900215B0606D507
:101D70000F23E17B994390394B425941C9B240202E
:101D8000FEF798FEE3780021DB0606D50F23E17B02
:101D90009943A0394B425941C9B24120FEF78AFE0E
:101DA000237900217F2B06D90F23E17B9943A039AA
:101DB0004B425941C9B24220FEF77CFEE378002134
:101DC0009B0706D50F23E17B9943A0394B4259412C
:101DD000C9B24320FEF76EFE237900215B0606D5CB
:101DE0000F23E17B9943A0394B425941C9B24420AA
:101DF000FEF760FEE3780021DB0606D50F23E17BCA
:101E00009943B0394B425941C9B24520FEF752FEC1
:101E1000237900217F2B06D90F23E17B9943B03929
:101E20004B425941C9B24620FEF744FEE3780021F7
:101E30009B0706D50F23E17B9943B0394B425941AB
:101E4000C9B24720FEF736FE237900215B0606D58E
:101E50000F23E17B9943B0394B425941C9B2482025
:101E6000FEF728FEE3780021DB0606D50F23E17B91
:101E70009943C0394B425941C9B24920FEF71AFE75
:101E8000237900217F2B06D90F23E17B9943C039A9
:101E90004B425941C9B24A20FEF70CFEE3780021BB
:101EA0009B0706D50F23E17B9943C0394B4259412B
:101EB000C9B24B20FEF7FEFD237900215B0606D553
:101EC0000F23E17B9943C0394B425941C9B20125E7
:101ED0004C20FEF7EFFD21790C2089082940FEF700
:101EE000E9FD21790E20E9402940FEF7E3FDE17884
:101EF0000F20C9082940FEF7DDFDE17810202940B8
:101F0000FEF7D8FD07210F2361561F4D2970A27BD4
:101F10001340022B0ED16379002B0BD11B4A13788F
:101F20005918FF2901DDFF2102E0CB43DB171940DF
:101F300011700BE0C90F1120FEF7BCFD002169569E
:101F40001220CB17591AC90FFEF7B4FD0F23A27B3D
:101F50001A406379012A02D0022A04D018E0A1793C
:101F6000D843C9430BE0FF20084A98431278FF2A60
:101F700002D0013250430012FF21A3799943FEF7AA
:101F8000DFFD0AE0E00B0020DD0B002090010020C7
:101F9000A179D843C943FEF7BBFD0F23E27B0021A3
:101FA0001340012B03D122795209934319001520C4
:101FB000FEF780FD0F23E27B00211340022B03D1AB
:101FC000237901315B0999431620FEF773FD0F2336
:101FD000E27B00211340032B03D1237901315B09FC
:101FE00099431720FEF766FD0F23E27B0021134083
:101FF000042B03D1237901315B0999431820FEF7A3
:1020000059FD0F23E27B00211340052B03D12379D7
:1020100001315B0999431920FEF74CFD0F23E27B48
:1020200000211340062B03D1237901315B09994329
:102030001A20FEF73FFD0F23E27B00211340072B00
:1020400003D1237901315B0999431B20FEF732FD4F
:102050000F23E27B00211340082B03D123790131A8
:102060005B0999431C20FEF725FD0F23E27B00212D
:102070001340092B03D1237901315B0999431D20BA
:10208000FEF718FD0F23E27B002113400A2B03D13A
:10209000237901315B0999431E20FEF70BFD0F23C5
:1020A000E27B002113400B2B03D1237901315B0923
:1020B00099431F20FEF7FEFC0F23E27B0021134013
:1020C0000C2B03D1237901315B0999432020FFF7C1
:1020D0000BFCFEF78DFD0A2000F05EF900F038F9E8
:1020E000074C2368984208D3C01A064B984204D97B
:1020F000FEF7BEF900F02CF92060FEF7C9FEF8BD2E
:10210000840B002087130000B22070B5800001F01E
:10211000B1F9B223050004009B00C6182000083462
:10212000FEF712FAB442F9D1024B03481D60FEF7E4
:102130000BFA70BD240C0020B40B00201B4B1C4A72
:1021400019781C4B082901D1002102E00A2903D18A
:102150002E311160132206E00C2901D1283100E054
:102160003C21116012221A60134B1A78134B002A7B
:1021700001D0002200E001221A60114B1A78114BA5
:10218000012A01D880220CE0042A01D8842208E028
:10219000082A01D8852204E0102A01D8862200E00E
:1021A00087221A600122084B1A70704791010020A3
:1021B00008B003400CB00340370C002020B00340AF
:1021C0009201002024B00340360C002070B5802519
:1021D0008026ED02F6000B4C23682B4201D000F064
:1021E000BBFB2368334201D000F068F923681B056C
:1021F00001D500F0CFF92368DB04ECD500F036FA06
:10220000E9E7C0463480044010B5FFF7DFFFFFFF69
:102210000022014B1A607047008104407047FFFFA5
:102220000A49030010B50868002B0DD06A46084C17
:10223000C3181219934206D301F07EFA0C230360EF
:102240000120404200E00B6010BDC0469401002018
:1022500000FEFFFFF8B506000D001700002439004E
:10226000300001F035FA0B003733DBB2092901D811
:102270003031CBB230002B55390001F0A3F9061EE6
:1022800001D00134EBE72B1958702B005A1B9442F4
:1022900006DD1A78295D19702A550133013CF5E7EE
:1022A0002800F8BD10B51A2818D80C2358430C4A3A
:1022B000835810181C7D027A224205D0002901D0D3
:1022C0001A710BE01A7209E043681A68002902D0FB
:1022D00003210A4301E002218A431A6010BDC0466F
:1022E00080470000F0B51A282FD80C22170047436A
:1022F000164CE5196B682600012901D0042911D17B
:10230000504334583018257D027A20202A43227504
:10231000A22252001A601A68042901D1024313E074
:10232000824311E038592C7A027DA2430275802243
:10233000002908D0022902D10422FF3204E0002241
:10234000032901D1812252001A60F0BD80470000AC
:1023500072B60C4B1A680C4B18680C4B1B6862B6B3
:102360005B0104D5322393429B415B42C018084B6A
:102370009A1A084B5A43FA239B005843920D10189F
:102380007047C04618E000E0380C002004ED00E083
:10239000BF5D0000ABAA020070B50400FFF7D8FFD4
:1023A0000500002C0FD0FFF7D3FF074B401B9842CE
:1023B00006D9013C002C06D0FA239B00ED18F2E769
:1023C00001F05EF8EFE770BDE703000080221E4BCE
:1023D000D20510B51A608022002012061A601B4B2D
:1023E0001B4918601B4B1C4A1960282313601B4AA9
:1023F0001B4C13601B4A13601B4A13601B4A13607B
:102400001B4A1360092222601A4C20601A4C21607A
:102410001A4C23601A4C23601A4C22601A4C20601C
:102420001A4801601A490B601A490B601A4B1A606E
:10243000FFF784FE1920FFF7AFFF00F07FFD1420A7
:10244000FF30FFF7A9FF10BD00E100E0048003406A
:10245000FFBF0000088003400C800340148003404D
:10246000008003401C800340248003402C800340F4
:102470003480034004900340089003400C900340D4
:10248000149003400090034004A0034008A00340C0
:102490000CA0034014A0034000A00340054B187893
:1024A000054BC0B21A78D3B2984200D24030C01A5D
:1024B0007047C046BF0C00203D0C002030B5234AB9
:1024C00013799B0611D5224BD47918781900013065
:1024D000E4B200233F2800DC03001E48007883425A
:1024E00003D01D48C454DBB20B70D1781748C9B271
:1024F0004BB2002B17DA03795BB2002B13DA174BC0
:10250000174C1D782378DBB29D4202D16C23C37037
:1025100009E001333F2B00D900231248C05CDBB235
:10252000C0B2D0712370402319420ED011791942E4
:102530000BD000210C4B19700C4B1B688B4202D046
:102540000B49097819722C23D37030BD00A00640C6
:10255000BF0C00203D0C00207E0C0020C80C002089
:10256000C00C00203E0C00203C0C0020C40C0020BD
:10257000BE0C0020054B1878054BC0B21A78D3B2B8
:10258000984200D24030C01A7047C046340D002037
:10259000CA0C002030B5234A13799B0611D5224B73
:1025A000D479187819000130E4B200233F2800DC08
:1025B00003001E480078834203D01D48C454DBB298
:1025C0000B70D1781748C9B24BB2002B17DA0379D8
:1025D0005BB2002B13DA174B174C1D782378DBB254
:1025E0009D4202D16C23C37009E00133272B00D92F
:1025F00000231248C05CDBB2C0B2D071237040230C
:1026000019420ED0117919420BD000210C4B1970D0
:102610000C4B1B688B4202D00B49097819722C2392
:10262000D37030BD00B00640340D0020CA0C00202D
:10263000F30C00203C0D0020350D0020CB0C0020B9
:10264000C90C0020380D0020330D0020054B1878F0
:10265000054BC0B21A78D3B2984200D24030C01AAB
:102660007047C046B00D0020450D002030B52C4A03
:1026700013799B0623D52B4BD47918781900013098
:10268000E4B200233F2800DC03002748007883429F
:1026900003D02648C454D8B20870254908680028D9
:1026A0000DD024490978C9B28B4201D35B1A01E0ED
:1026B0005B1A4033272B02DD1F4B1B780371D17847
:1026C0001748C9B24BB2002B17DA03795BB2002B63
:1026D00013DA1A4B174C1D782378DBB29D4202D1D6
:1026E0006C23C37009E00133272B00D90023144861
:1026F000C05CDBB2C0B2D0712370402319420ED04F
:10270000117919420BD000210E4B19700E4B1B682A
:102710008B4202D00D49097819722C23D37030BD39
:1027200000C00640B00D0020450D00206F0D0020B8
:10273000400D0020B10D00206E0D0020B80D0020CE
:10274000460D0020440D0020B40D0020AF0D0020E8
:1027500030B585B072B670224121154B1A70154AFA
:102760001170154A3239117080221A701A7852B2DB
:10277000002AFBDA114B186862B6114B984201D857
:102780000A23584301AC0A222100FFF763FD00230E
:102790000C48E15C0500002905D05A00821801337D
:1027A00051800A2BF5D101335B002B7005B030BD91
:1027B00000000240070002400600024008000240FC
:1027C0007F969800F80200200223F0B50A4A0B4ECB
:1027D0001478C8272343DB00F5186860084805789B
:1027E000002D00D1403F09040F43F75001235D4005
:1027F0005C4005701470F0BD140E002000F8FF1F3F
:102800007C0E0020431E10B50020012B0ED872B69E
:10281000074A99008858002807D044685B008C500C
:10282000044904885A5A121B5A5262B610BDC04657
:102830000C0E0020180F0020431E0020012B09D889
:1028400072B6054A9B009B58002B02D001305B6892
:10285000FAE762B67047C046580E002010B572B64F
:10286000194B1A4A1978090706D519490C6A002C20
:1028700013D0896A002918D059780823194206D044
:1028800013490C6C002C09D08B6C002B0FD062B656
:102890000023137000F0C6FB15E004230C49DB0095
:1028A0000830CC1860600B4808E0052300E00923DD
:1028B0000749DB000830CC1860600748585013788F
:1028C000013B137062B610BDC4480000720E0020B8
:1028D00000F8FF1F88004000C8004000421E10B5ED
:1028E000012A30D8022380001843174BC0001B1860
:1028F00072B6164CA05C03280BD800F04FFE1604ED
:102900000207052012E0083302200FE008330420FC
:102910000CE00F48920014580E4B002C01D11150BE
:1029200001E09858416099500CE00320A0540A003F
:1029300008325A60C822180700D4403A09880904AE
:102940000A431A6062B610BD00F8FF1FC80D0020D0
:10295000580E0020600E0020F7B5B84B1C781D0003
:102960000423E4B21C421DD0B54B1B78002B16D0BB
:10297000B44A1378DBB2002B05D0013BDBB21370F5
:10298000002B00D100BEB04A1378DBB2002B06D07A
:10299000013BDBB21370002B01D100F095FB042248
:1029A000A64B1A700822224000D15EE2A74BA84C29
:1029B0001B78DBB29D081E09ED00002E00D0E4E17B
:1029C00065192A686B689006000F01380C2800D939
:1029D000D7E100F0EDFD94019401D601D601D601B6
:1029E000D601D601D601B301D601D601D6010D001C
:1029F0001A68984F5B6898497B6000230B6001213F
:102A000096483A602860964D92B22970954D2361A0
:102A1000A3610090AA4218D8D020C000824200D3FF
:102A2000F2E081204000824200D1CEE006D8802A28
:102A300000D1B3E0822A00D1B5E0FAE08A4B9A4295
:102A400000D1D1E0FF33FF3313E090231B019A4202
:102A500013D009D8803B9A4200D0EAE0784B834CEF
:102A60001B7823700B0023E1814B9A4200D143E194
:102A7000804B9A4200D119E1DBE025002600BA78AC
:102A80006F4B20351A70603680222B68134203D0BA
:102A90006868083800F0C6FA0835AE42F4D100255F
:102AA0002E00754BE858002805D04368019300F0CC
:102AB000B9FA0198F7E7704B5851704BE850704BDA
:102AC000E858002805D04368019300F0ABFA01985C
:102AD000F7E76B4B6B4A58516B4BE8507300D05281
:102AE0006A4BF05C0238032807D800F057FD020457
:102AF0000204002200E001229A5501360435022E1C
:102B0000CFD10023624D634E2B70634A337813702C
:102B1000082213421AD000F067FA002811D12B784E
:102B2000206201332B7000F05FFA002804D12B786B
:102B3000A06201332B7009E0009B0830E062A362C1
:102B400004E0564B083060622362ECE70023544AED
:102B50002363A36373781370082213421AD000F022
:102B600043FA002811D12B78206401332B7000F038
:102B70003BFA002804D12B78A06401332B7009E0C4
:102B8000009B0830E064A36404E0444B08306064B8
:102B90002364ECE700232365A36588E0334C2370AE
:102BA0006370022384E07F22B8880240022A40D862
:102BB0002E4C9200237063703A4BD2180223127885
:102BC0001A4200D174E0217072E07F23BA881A4063
:102BD000022A2ED87B88002B2BD10220314992006B
:102BE0005218117881430DE07F23BA881A40022AD7
:102BF0001FD87B88002B1CD102202A499200521832
:102C000011780143117052E07A88B988264B5C68CC
:102C1000002C0ED01888904209D15888884206D1DD
:102C2000120A032A01D1237842E01B8940E00C33C9
:102C3000EDE70F221B4B1A705EE0C0468020074074
:102C40007B0E0020150E0020880E002090200740EB
:102C500000F8FF1F680E0020BC0D0020C8004000D7
:102C60007C0E00208106000002030000730E00208D
:102C700021090000210A00000C0E0020C00D0020D8
:102C8000580E0020180F0020600E0020C80D0020F4
:102C9000720E0020C4480000C42007408800400095
:102CA000C8200740C0200740C848000000231C007F
:102CB000FD889D4200D91D002E00402D00D94026E0
:102CC00020003100FFF780FDA419AD1B03D12F00B8
:102CD000402E04D010E04027AF4200D92F00200042
:102CE0003900FFF771FDE419ED1B01D1402F03D12D
:102CF000794B1C60794B1D800122794B40E0794A69
:102D000079491068884216D1784952688A4212D1AE
:102D10001A78A92A0FD15A78452A0CD19A78C22A52
:102D200009D1DB786B2B06D10021714BBD3A08002D
:102D30001A70FFF749FD6F4B2B6022E0664F3E682B
:102D4000002E13D0654B1C882500402C00D940254F
:102D500029003000FFF738FD641B604BA4B21C80D3
:102D6000002C01D1402D00D174193C60A0225D4B94
:102D7000D2001988914204D100225A709A785E4B91
:102D80001A700122564B1A706BE0082264196068B1
:102D9000013E0838F6B2134037D000F043F95749E6
:102DA000B0004258564B002A1CD0556845501100BF
:102DB000985D0831616003280BD800F0EFFB020436
:102DC0000608032104E0022102E0052100E00421BD
:102DD00099550821C8230C4200D1403B12881204A7
:102DE00013433DE0985D032808D800F0D7FB3A3A3A
:102DF0000204002200E001229A5532E00822144029
:102E0000651EAC4102349C552BE02268110C8AB23D
:102E1000028000291ED03B4943804360B3005F58C5
:102E2000394D002F01D1585001E0E9584860374929
:102E30007600E850735AD218725200F0D5F8002884
:102E400002D00830606005E0314A20601378013319
:102E5000137006E008231C4201D12E4B00E0254BE5
:102E6000236008222C4B1A7077E5012004421ED003
:102E700002231B49274C0B70284B294E1A70294BF3
:102E80001C609C60284C1A61DC600D249A615E60B5
:102E9000264B1C70FF23264C2370174C2B7022707E
:102EA000244A13709F22244B1A70087013E063B2F7
:102EB000002B04DA0D221D4B1A7080232B70022286
:102EC000144204D01A490B78DBB20B702A7010231D
:102ED0001C4200D02B70F7BDBC0D0020700E0020EE
:102EE00094200740680E002021090003010004001F
:102EF000150E0020C800400098200740580E002002
:102F0000C80D00200C0E0020C00D0020180F00205E
:102F1000720E00208800400080200740140E002020
:102F2000CC0D002000F8FF1F180E0020C020074025
:102F3000882007408C2007408420074010B5FFF709
:102F400007FC002280241A4B1A481A609A601A6102
:102F50000168E40221435A60DA605A610160190A8B
:102F60001548C9B20170190C1448C9B2017014494E
:102F70001B0E0B70FF23134913480B7013490B7082
:102F800013490B700121017012480270124A11702E
:102F9000124A116899430B0070210B431360802281
:102FA0000F4B52041A6010220E4B1A7010BDC0460F
:102FB00000F8FF1F348004409C200740B0200740E9
:102FC000B420074080200740942007408820074015
:102FD00010200740002107408420074018E400E04B
:102FE00000E100E00821074070B572B60B4D2C6877
:102FF000200000F073FB172802DD62B600200CE011
:1030000080231B06C3409C432C6062B64823584370
:10301000034B181800230360436070BD10030020A9
:10302000C0F9FF1F10B504000E484821201A00F017
:10303000C9FA172814D80C4B1B78002B07D00B4B60
:103040001B78002B03D02000FFF708FC08E072B6C5
:1030500080231B06C340064A11680B43136062B607
:1030600010BDC046C0F9FF1F720E00207B0E00206D
:103070001003002070B5124C2368002B04D0206888
:1030800042880188130010E00E4B1B78002B03D000
:103090000220FFF7B7FB20602568002DEFD10CE080
:1030A000C618367A002E03D001339D1A8B42F7DB07
:1030B000002D02D1FFF7B6FF2560280070BDC04685
:1030C000840E00207B0E002010B50B4B1B78DBB26A
:1030D000002B0FD1094C21684A883F2A03DC88184D
:1030E00003720132F9E7402301200B80FFF7F6FB62
:1030F0000023236010BDC0467D0E0020800E0020FE
:103100008021184AF8B5136849040B430121136064
:10311000154A164D13680B431360154B2E681C6837
:10312000002C12D0237A002B0DD0236820001B68BE
:103130002F6898472B68E188DB1B1B099AB2A28095
:103140008B4200D9E2806469EAE72B68094A9B1B3D
:103150001B0999B21180084A1088834200D9118056
:10316000F8BDC046FCED00E0001000E0041000E0F7
:103170008C0E0020920E0020900E0020EFF31080A5
:1031800072B643425841C0B27047002800D062B6C0
:103190007047FFFF10B5FFF7F1FF0C4A1468002CD1
:1031A00010D063691360002B02D000229A6101E005
:1031B000074A1360FFF7E9FF002320006377A36845
:1031C0009847E8E7FFF7E1FF10BDC046940E0020E6
:1031D000980E002010B5FFF7DDFF10BD164930B581
:1031E0000B68002B02D18360C36009E004681A6891
:1031F000944207D20025121B8360C560D8601A6014
:10320000086016E002681C689968121B02600029B9
:103210000CD00C680B00A242F4D28160C968A21ADB
:10322000C160D860C16888601A6002E08160C360D4
:1032300098600223037530BD9C0E002070B5174DB9
:103240002C68002C19D02368002B02D0013B23608E
:1032500013E0A268002A00D0D360002120692A6010
:10326000036821751B68220098476368002BE7D02C
:1032700023602000FFF7B2FFE2E7FFF77FFF0022A5
:10328000074B1C681A60FFF780FF002C05D0A5686B
:103290002000FFF7A3FF2C00F7E770BD9C0E002075
:1032A000AC0E002010B5034A136801331360FFF71A
:1032B000C5FF10BD380C002070477047704770473D
:1032C000026830B5002A1ED00F4B1049D3181B11CD
:1032D0000F4D9C006550002191600E4AFF31D15482
:1032E000117853780C4C0D4A994205D8236809048B
:1032F0001A400A43226004E021681B040A40134379
:1033000023600023036030BD008FFCBF1803002042
:10331000BF3200001403002014E400E0FFFF00FFB0
:10332000094B10B51A68002A04D001221A60074B15
:103330001B689847064B1A68002A04D001221A60BD
:10334000024B5B68984710BD0C71034018030020C6
:103350001C71034010B50400FFF7B2FF200010BD40
:10336000002310B50448054A036005498033037102
:1033700000F0D2F910BDC046B00E00208000002041
:103380005533000010B50400006800F009FA200071
:1033900010BD70B504000D000068013100F088FD1B
:1033A000031E01D0012028C470BD436810B504007D
:1033B0008B4208D2FFF7EDFF002805D0A368002B51
:1033C00001D122681370012010BDF8B504000F0070
:1033D000151E05D10368002B00D01A7000230CE0E5
:1033E0001100FFF7E2FF061E09D12068002802D075
:1033F00000F0D6F9266000236360A36004E0A560B6
:103400003900206800F060FF2000F8BD70B50500AD
:1034100008000C0000F060FF210002002800FFF708
:10342000D4FF70BD13B5002304000A22236063603B
:10343000A3602373080001A900F0C8FF01A92000C0
:10344000FFF7E4FF200016BD826800238A4203D9FB
:1034500002689A4200D0535C1800704710B5FFF71D
:10346000F3FF10BD10B5FDF7EBFBFDF717FD00F006
:1034700007F8FAE710B500F089F910BD7047FFFFB3
:1034800070B5234C2378002B40D101332370FFF714
:10349000F1FD002801D0FFF7F1FFFEF7FFFF002844
:1034A00001D0FFF709FFFFF765F8002801D0FFF70B
:1034B00004FFFFF7CBF8002801D0FFF7FFFE002341
:1034C0002370EFF30583002B20D1EFF3108272B647
:1034D000104D2868002803D00F4C2178002903D014
:1034E000002A13D162B611E00123237043692B60D7
:1034F000002B01D0996101E008490B60002A00D13E
:1035000062B60025836845779847257070BDC04630
:10351000B90E0020A40E0020A80E0020A00E00204E
:103520008021154AC90313680B4313605022134BC3
:10353000DA7000229A701B78114B1B78DA0703D4DB
:103540009021104A890002E080210F4A8900116011
:1035500080229200990701D40C4900E00C490A60CE
:103560005B0703D490220B4B920002E080220A4BAF
:1035700092001A607047C0463480044000600740E3
:10358000B80E002018B0044008C004401CB004402D
:103590000CC0044014B0044004C0044002B471469E
:1035A00049084900095C49008E4402BC7047C04686
:1035B00003B47146490840004900095A49008E4445
:1035C00003BC7047002243088B4274D303098B422B
:1035D0005FD3030A8B4244D3030B8B4228D3030CE3
:1035E0008B420DD3FF22090212BA030C8B4202D385
:1035F0001212090265D0030B8B4219D300E0090AAD
:10360000C30B8B4201D3CB03C01A5241830B8B42B5
:1036100001D38B03C01A5241430B8B4201D34B039E
:10362000C01A5241030B8B4201D30B03C01A524103
:10363000C30A8B4201D3CB02C01A5241830A8B4288
:1036400001D38B02C01A5241430A8B4201D34B0271
:10365000C01A5241030A8B4201D30B02C01A5241D5
:10366000CDD2C3098B4201D3CB01C01A5241830989
:103670008B4201D38B01C01A524143098B4201D3C3
:103680004B01C01A524103098B4201D30B01C01AEE
:103690005241C3088B4201D3CB00C01A5241830868
:1036A0008B4201D38B00C01A524143088B4201D395
:1036B0004B00C01A5241411A00D2014652411046F5
:1036C0007047FFE701B5002000F006F802BDC046D4
:1036D0000029F7D076E770477047C0461C210123C8
:1036E0001B04984201D3000C10391B0A984201D3E5
:1036F000000A08391B09984201D30009043902A2C3
:10370000105C40187047C046040302020101010129
:1037100000000000000000000B0010B501001800C0
:1037200000F002F810BDC04610B513000A000100F9
:10373000022000F04FFE10BD014B18687047C046D4
:103740004807002070B50D4E0D4D0024AD1BAD1087
:1037500005D0A300F35801349847A542F9D101F0F0
:1037600011F9084E084D0024AD1BAD1005D0A30083
:10377000F35801349847A542F9D170BD9049000033
:103780009049000090490000A449000010B5034B87
:103790000100186800F00EF810BDC0464807002070
:1037A00010B5034B0100186800F0FCFE10BDC046C8
:1037B00048070020F0B55F464D4656464446F0B4F3
:1037C0000D000B3583B00700162D00D8A8E00723A5
:1037D0009D4300D5CEE0A94200D9CBE000F064FBC8
:1037E000F823FF339D4200D884E26B0A00D1C5E084
:1037F000042B00D96CE13823A9099C460133984673
:10380000884443468C445900C94E890071180839D0
:10381000CC68A14217D0032362689A431300521B5D
:103820000F2A00DDB0E00320002A09DB8DE0636889
:1038300083435A1B0F2A00DDA6E0002A00DB84E048
:10384000E468A142F3D14346009332003469083260
:10385000944200D18FE10323616899430B00481B18
:103860000F2800DD76E172613261002871DAB14A19
:10387000914200D934E10123C80882109340726854
:103880001A43C3009B1998687260E360A0609C6053
:103890001300C460012000998A109040984200D91A
:1038A00075E003420CD1032291430A1D40000092AF
:1038B000034205D1009A4000043200920342F9D03D
:1038C00003239846009AD3009946B144CC469246C9
:1038D0006346DC68A44507D14FE1002A00DB5FE1C5
:1038E000E468A44500D148E14246636893435A1B0B
:1038F0000F2AF2DD012163190D436560E068A568B8
:103900000836E86011438560F360B3603800DE601C
:103910009E6059609A5000F0C9FA2000083022E0F9
:10392000102927D8380000F0BFFA102506230221FD
:103930007F4E9B00F3181A005C68083A944200D14D
:1039400027E1032362689A431300E268A168CA6012
:1039500091600122E318596838000A435A6000F068
:10396000A5FA2000083003B03CBC90469946A24618
:10397000AB46F0BD0C2300203B60F4E740239846A3
:10398000013B80219C463FE7634600935DE70323AC
:10399000B46862689A439046AA4203D3521B0F2A26
:1039A00000DD87E023004344634A0193634B934661
:1039B0001B681268EB18013200D157E1604A944647
:1039C00063441B0B1B0300930099380000F06AFC52
:1039D00003008146013361D0019B834200D9FDE0A1
:1039E000584B009A9A461B689C46534662441A609C
:1039F000019B11004B4500D143E15B461B6801333D
:103A000000D14FE14B46019A9B1A59185346196051
:103A100007234A46134000D117E1082189464A4945
:103A2000D21A9144C91A009B38004B441B051B0D48
:103A3000CB1A19009B4600F035FC431C00D135E140
:103A40004B46C01A01235844184353461B685B4435
:103A50001900534619604B46B3605860B44213D006
:103A600043460F2B00D8E1E04346072260680C3B39
:103A70009343063A024005201A436260E218506000
:103A800090600F2B00D915E1304B1A68914200D994
:103A900019602F4B1A68914200D919600323B4684A
:103AA00062689A431300521B9D4200D9C1E00F2A5D
:103AB00000DCBEE00123290065191943134361604E
:103AC0003800B5606B6000F0F1F9200008304AE77B
:103AD000142B74D9542B00D9B0E0290B6E238CE63B
:103AE0004A0A042A74D9142A00D9C2E010005C32B0
:103AF0005B305200082149428C469200B21894442F
:103B0000624692680B318846944500D1A0E0414658
:103B100050688843834202D292689445F7D1D368B3
:103B20009C4673686146A260E1608C60D460B1E637
:103B30004C070020FF010000580B0020CC0E002095
:103B40000F100000D00E002008100000C80E00204A
:103B5000C40E0020012163190D43014365607361A8
:103B60003361DA609A6059601850380000F09EF9AD
:103B700020000830F7E673688CE608239B46073B75
:103B8000DC449B46DA4443465246134200D09FE64B
:103B900033E0DC688A1C0092A34200D155E6D0E6EF
:103BA0000122E318596838000A435A60E368A268A2
:103BB000D3609A6000F07AF920000830D3E65B22E7
:103BC00094460132904698449C44434659001BE673
:103BD0008A0910003932383052008BE7B44200D0E5
:103BE0005CE7FDE6009B013B009308235B429C469B
:103BF000E1444B469B6899457AD14346009A13426B
:103C0000F0D17368834373604000984200D9BEE6E8
:103C1000002800D1BBE6034270D152460092009AC0
:103C20004000043200920342F9D04BE601234A4699
:103C30005360380000F03AF9002094E6AA225200BE
:103C400093420DD8E90B7723D7E580214901EAE6B5
:103C5000012380108340726813437360624661E7FA
:103C6000284A934218D8A90C7C23C6E51033009348
:103C7000AAE6542A26D80A0B10006F326E30520082
:103C800038E71B0500D0B8E6009BB2684344180033
:103C9000012303435360F7E67F239846013BFE214F
:103CA0009C46B1E55B464A461A60B1E60023012016
:103CB0009B46CAE621003800083100F073FC5346E9
:103CC0001968E1E6AA204000824205D8CA0B10001C
:103CD0007832773052000DE70A48824205D88A0CC4
:103CE00010007D327C30520004E7FE227E2001E786
:103CF000736889E7E9084B1C5B0019E6534600939B
:103D0000E0E5C0465405000070B50F2A32D90C001A
:103D100004430B00A40731D115000400103D2D0908
:103D200001352D0149191E6826605E6866609E682F
:103D3000A660DE681033E66010349942F3D10F2399
:103D400045191340032B1BD91C1F0023A408013461
:103D5000A400CE58EE5004339C42FAD103232D190F
:103D600009191A4005D00023CC5CEC5401339A4267
:103D7000FAD170BD0500002AF5D1FAE70500F2E797
:103D80001A00F8E770B588420BD98B18984208D210
:103D9000991A531E002A03D0CA5CC254013BFBD2BD
:103DA00070BD0F2A09D80500002AF9D00023CC5C89
:103DB000EC5401339A42FAD1F2E70C0004430B00B1
:103DC000A40726D115000400103D2D0901352D0151
:103DD00049191E6826605E6866609E68A660DE6897
:103DE0001033E66010349942F3D10F244519144082
:103DF000032C10D90023043CA4080134A400CE589D
:103E0000EE5004339C42FAD103232D1909191A40AC
:103E1000CAE70500CAE72200C6E7C04670B58307B7
:103E20003FD0541E002A3BD0CEB20300032503E04E
:103E3000621E002C34D0140001335A1E16702B421F
:103E4000F6D1032C24D9FF250D402A0215432A045C
:103E500015430F2C11D92600103E360901363601C4
:103E60001A009B19156055609560D5601032934219
:103E7000F8D10F221440032C0AD9261FB6080136A8
:103E8000B6001A009B1920C29342FCD103221440B1
:103E9000002C05D0C9B21C19197001339C42FBD10A
:103EA00070BD14000300CCE77047C0467047C046A1
:103EB00010B5044B0A001B680100180000F004F85C
:103EC00010BDC04648070020F0B556464D46444652
:103ED0005F46F0B4804685B00E1E914600D1CBE01F
:103EE0003700083FFFF7E0FF7A684D4603231400D0
:103EF0000B35BA469C43162D4AD810231025A945E8
:103F00004AD89C427BDAD3493819896801908842A3
:103F100000D1ECE04068010002900120039008000D
:103F200001218843019984468B46DC446146012087
:103F30004968014200D17CE00121114231D049465B
:103F40004046FFF737FC8146002800D19CE1012361
:103F500002007968083A99437F18BA4200D13CE1DF
:103F6000221F242A00D929E10300132A00D90BE1DA
:103F70003200116819605168596092689A60310086
:103F8000404600F00FFB4046FFF790FF484649E0EF
:103F900004339D432B1EB2DA0C23424600201360EB
:103FA00040E03A68BA1A9346594603224968914359
:103FB0000A00A21801929A42C1DB5B465A465F464C
:103FC0009268DB680837D3609A60221F242A00D9E0
:103FD00010E13B00132A09D95B463168996071688A
:103FE000D9601B2A00D921E1103308363268DA463D
:103FF0001A607268019C5A60B2683E009A60631B46
:104000000F2B24D85346012152465B680B402343B3
:104010005360220052445368194351604046FFF7F1
:1040200045FF300005B03CBC90469946A246AB46E1
:10403000F0BD032102988C468843011999421FDB89
:10404000019A0C00D3689268D3609A60D7E7524611
:1040500050465119012240681040054350464560C2
:1040600018001043CB1848605868083102435A6062
:10407000404600F097FAD1E71100FFF79BFBD1E72C
:104080000120104200D05AE760463A68BA1A9346B7
:104090005268824389180291994200DA89E7019AAD
:1040A0005F46D36892680837D3609A605B465A4689
:1040B000DB689268D3609A60221F242A00D991E0BD
:1040C0003B00132A09D95B46316899607168D96051
:1040D0001B2A00D996E0103308363268029C1A6019
:1040E0007268DA465A60B2683E009A6087E7032039
:1040F00001998446496881432800091910300190CC
:1041000081424BDAD20700D519E760463A68BA1AFD
:10411000934652688243019851180291884200DD0B
:1041200047E75B465A465F469268DB680837D360CC
:104130009A60221F242A00D997E03B00132A09D94C
:104140005B46316899607168D9601B2A00D991E09B
:104150001033083632681A6072685A60B2689A6022
:104160005B4659193B4B40469960029B5A1B012301
:104170001A434A605A46526813401D435B465D60CD
:10418000FFF794FE38004DE73168016071684160C7
:104190001B2A17D8320008330832EAE62D4B7A1969
:1041A0009A600123491B194351607A6840461340C5
:1041B0001D437D60FFF77AFE300033E73100FFF7E3
:1041C000E1FDDCE6B16803008160F168C160242A8A
:1041D00022D0320010331032CBE6536803229343CF
:1041E000E4180CE731003800FFF7CCFD3E00029CDC
:1041F000DA4604E731003800FFF7C4FD3E00019CB9
:10420000DA46FCE65B46B1681961F1685961242A17
:1042100016D01833103660E73269030002610100DE
:1042200032007069183318324861A2E65B46B16803
:104230001961F1685961242A0ED018331036D5E679
:104240005B4632699A615A4671692033D1611836EA
:1042500043E7C0464C0700205B4632699A615A46E4
:1042600071692033D1611836C0E631003800FFF79C
:1042700089FD75E75B46B1681961F1685961242AC7
:1042800007D01833103665E74046FFF70FFE0020D1
:10429000C8E65B4632699A615A4671692033D1613A
:1042A000183657E7002370B5064C05000800236058
:1042B000FDF7B6FF431C00D070BD2368002BFBD078
:1042C0002B60F9E71C0F0020031C0A7801311A70DB
:1042D0000133002AF9D1704710B5830727D003783E
:1042E000002B26D00300032102E01A78002A1CD0FC
:1042F00001330B42F9D119680F4A104C8A188A43CE
:1043000022420FD1043319680B4A8A188A43224289
:1043100008D104331968084A8A188A432242F1D026
:1043200000E001331A78002AFBD1181A10BD0300EF
:10433000E1E70020FAE7C046FFFEFEFE80808080B5
:10434000F0B5574645464E46E0B48AB090466A46B8
:104350001D4B0D00060013CB13C213CB13C213CB9E
:1043600013C21B78EA4613704346023B2F00002419
:10437000222B01D924E04C46631C3000414699466B
:10438000FFF7A6F953465B5C30003B704146FFF7F0
:1043900019F90137061EEED14B46E8540023002CD4
:1043A00007D0EA5C295DE9542A550133013CA34258
:1043B000F7DB28000AB01CBC90469946A246F0BD27
:1043C0002C700020F6E7C0465C49000010B5FFF7EE
:1043D000B7FF10BDF8B544465F4656464D469B466E
:1043E0002F4BF0B41C68A4235B000500E0580E00BE
:1043F000904600284BD043681F2B0DDC5C1C002D21
:1044000021D102339B0044601E5000203CBC9046EA
:104410009946A246AB46F8BD224B002B3CD0C820A3
:104420004000FFF7B3F9002836D0A4220023520041
:10443000A15843600160A050403283500432835041
:104440000124002DDDD09A00914681444246882106
:104450004F467A50C42252009046804442468739E3
:10446000994012688A460A43944642466146116062
:10447000842249465F4652008F50022DC1D102006E
:1044800055468D32FF3211680D431560B9E72000A3
:104490004D30FF30E050AEE701204042B6E7C04665
:1044A000584900008D370000034B10B5002B02D097
:1044B000024800F005F810BD00000000D1440000E3
:1044C00010B50100002300220020FFF783FF10BD7C
:1044D00070B5094B094CE41AA41009D0084AA51874
:1044E000AD00ED182B68013C9847043D002CF9D134
:1044F00000F058FA70BDC046000000000000000047
:10450000FFFFFF3FF8B50C000600FFF7CDFC204F82
:10451000BB685D6803239D431E4B2C1B9C46644473
:10452000240B1D4B013C24039C4207DD002130007D
:10453000FFF7B8FEBB685B19984204D03000FFF764
:10454000B5FC0020F8BD61423000FFF7ABFE431C14
:104550000DD001232D1BBA681D43104B55601A68FE
:104560003000141B1C60FFF7A1FC0120EAE70021CA
:104570003000FFF797FEBB68C21A0F2ADEDD08493C
:104580000968401A0549086001210A435A60D5E7C5
:104590004C070020EF0F0000FF0F0000D00E00209E
:1045A000580B0020F0B54746050080B40C1E3ED0E5
:1045B000FFF77AFC01232100984608394E684246ED
:1045C000330003209343CC186268824360488768B5
:1045D000BC425AD04746626037420BD10827BC46DE
:1045E0000E688444891B9B198E68664566D0CF6827
:1045F000F760BE600126A7187F68374236D0554A5B
:104600001E434E60CB50934214D8DB08FF3A9C10F7
:10461000FF3AA2404468DB002243426018188368D6
:10462000C8608B608160D9602800FFF73FFC04BC44
:104630009046F0BD5A0A042A4FD89C092600393406
:1046400038366400A4000419083CA2680327944289
:104650004AD05068B843834202D292689442F8D15B
:10466000D468CC608A60A160D160DDE79B183A4FC6
:10467000A268BA4240D0E4681E43D460A260354AC2
:104680004E60CB509342D5D8BFE79B18424632428A
:1046900006D10A68891A8C689B18CA68E26094601F
:1046A00001242E4A1C4312684C6081609342BBD3A4
:1046B0002B4B28001968FFF725FFB5E74646A018E1
:1046C000406830423ED1A068D318E268C260906072
:1046D00042461A434A60CB50A6E7142A14D8160063
:1046E0005C325B365400ADE70123B610B34042683C
:1046F000134343602200B4E71E43D1609160CA6057
:104700008A604E60CB508FE7542A05D81C0B2600D8
:104710006F346E36640095E7AA246400A24205D87F
:10472000DC0B26007834773664008BE70D4CA24210
:1047300005D89C0C26007D347C36640082E7FE247C
:104740007E267FE742461A434A60CB506CE7C0465C
:104750004C070020FF01000054070020540B0020EC
:10476000CC0E00205405000002FF00FFFFFF04FFF5
:10477000FFFFFFFFFFFF060006FF02FFFFFF04FF32
:10478000420000F840A0044001000000420000F890
:1047900044A0044002000000C00000F800C0044033
:1047A00001000000000000F8049004400200000036
:1047B000000000F80890044004000000C00000F869
:1047C0001CC0044080000000C00000F810C004407D
:1047D00010000000C00000F808C004400400000001
:1047E000C00000F80CC0044008000000800000F881
:1047F0000CB0044008000000800000F810B0044035
:1048000010000000800000F818B0044040000000D4
:10481000800000F81CB0044080000000800000F818
:1048200014B0044020000000C00000F804C00440A0
:1048300002000000800000F800B004400100000009
:10484000400000F800A0044001000000400000F813
:1048500004A0044002000000400000F80CA0044046
:1048600008000000400000F808A004400400000018
:10487000C00000F814C0044020000000C00000F890
:1048800018C0044040000000800000F804B004405C
:1048900002000000800000F808B00440040000009E
:1048A000020100F850D0044010000000020100F89E
:1048B00054D0044020000000030100F878D00440E8
:1048C000400000001D15FFFF0001000098010020BE
:1048D0001200000000020000DA0100204900000080
:1048E000002201002302002021000000002101001D
:1048F000EC0100200900000000220000440200201A
:104900008F000000002100000C02002009000000C0
:1049100000030000F402002000000000010309046D
:10492000CA0100200000000002030904D402002094
:104930000000000003030904F8020020000000004A
:1049400004030904AA010020000000000000000088
:10495000000000000000000020030020303132334E
:104960003435363738396162636465666768696A09
:104970006B6C6D6E6F707172737475767778797A0F
:1049800000000000F8B5C046F8BC08BC9E46704761
:10499000A944000039040000390900000921000081
:0449A000613300007F
:0449A400F8B5C0465C
:1049A80000000000005EBCE2613FDD83C29C7E2007
:1049B800A3FD1F419DC3217FFCA2401E5F01E3BDF3
:1049C8003E6082DC237D9FC1421CFEA0E1BF5D03E7
:1049D80080DE3C62BEE0025CDF81633D7C22C09EDB
:1049E8001D43A1FF4618FAA427799BC584DA3866C7
:1049F800E5BB5907DB856739BAE406581947A5FBB3
:104A08007826C49A653BD987045AB8E6A7F91B45A6
:104A1800C6987A24F8A6441A99C7257B3A6486D89A
:104A28005B05E7B98CD2306EEDB3510F4E10F2AC86
:104A38002F7193CD114FADF3702ECC92D38D6F3172
:104A4800B2EC0E50AFF1134DCE90722C6D33D18F66
:104A58000C52B0EE326C8ED0530DEFB1F0AE4C125A
:104A680091CF2D73CA947628ABF517490856B4EA46
:104A78006937D58B5709EBB536688AD495CB297732
:104A8800F4AA4816E9B7550B88D6346A2B7597C926
:104A98004A14F6A8742AC896154BA9F7B6E80A541A
:104AA800D7896B35060400020507010305000000DD
:104AB800FF0A0400200F002012010002EF0201404B
:104AC8000912A0DA0C0101020301200343006C0063
:104AD80075006200530070006F00720074002000BF
:104AE80057006800650065006C001003460061000F
:104AF8006E0061007400650063000902490001014D
:104B080000C032090401000203000000092111015C
:104B18000001222100070581034000010705020367
:104B28002000020904000002030000040921110109
:104B38000001228F000705810320000507050103F6
:104B480008001006C9FF0904A15C7508150026FFB6
:104B5800009540097581029520097691029504090E
:104B680076B102C005010904A101050919012958F6
:104B78001500250175019558810205010930093193
:104B880009330934150026FF0075089504810205CC
:104B9800010939150025073500463B0165147504E0
:104BA80095018142952175048101050A09011500C5
:104BB8002501A1020508094B750195019102C0095B
:104BC80002A1020508094B750195019102C009036C
:104BD800A1020508094B750195019102C00904A1BC
:104BE800020508094B750195019102C0950D7504E0
:104BF8009101C000200343006C007500620053005F
:104C080070006F0072007400200057006800650093
:104C180065006C00040309040C0300000000000098
:104C2800000000000000000000000000000000007C
:104C3800FFFFFFFFFFFF0000BF320000BF32000090
:104C4800000000000C06002074060020DC0600208E
:104C5800000000000000000000000000000000004C
:104C6800000000000000000000000000000000003C
:104C7800000000000000000000000000000000002C
:104C8800000000000000000000000000000000001C
:104C9800000000000000000000000000000000000C
:104CA80000000000000000000000000000000000FC
:104CB80000000000000000000000000000000000EC
:104CC80000000000000000000000000000000000DC
:104CD80000000000000000000000000000000000CC
:104CE80000000000000000000100000000000000BB
:104CF8000E33CDAB34126DE6ECDE05000B00000080
:104D0800000000000000000000000000000000009B
:104D1800000000000000000000000000000000008B
:104D2800000000000000000000000000000000007B
:104D3800000000000000000000000000000000006B
:1050680000000000000000002003002000000000F5
:10507800000000004C0700204C07002054070020C7
:10508800540700205C0700205C070020640700200C
:10509800640700206C0700206C07002074070020BC
:1050A800740700207C0700207C070020840700206C
:1050B800840700208C0700208C070020940700201C
:1050C800940700209C0700209C070020A4070020CC
:1050D800A4070020AC070020AC070020B40700207C
:1050E800B4070020BC070020BC070020C40700202C
:1050F800C4070020CC070020CC070020D4070020DC
:10510800D4070020DC070020DC070020E40700208B
:10511800E4070020EC070020EC070020F40700203B
:10512800F4070020FC070020FC07002004080020EA
:10513800040800200C0800200C0800201408002097
:10514800140800201C0800201C0800202408002047
:10515800240800202C0800202C08002034080020F7
:10516800340800203C0800203C08002044080020A7
:10517800440800204C0800204C0800205408002057
:10518800540800205C0800205C0800206408002007
:10519800640800206C0800206C08002074080020B7
:1051A800740800207C0800207C0800208408002067
:1051B800840800208C0800208C0800209408002017
:1051C800940800209C0800209C080020A4080020C7
:1051D800A4080020AC080020AC080020B408002077
:1051E800B4080020BC080020BC080020C408002027
:1051F800C4080020CC080020CC080020D4080020D7
:10520800D4080020DC080020DC080020E408002086
:10521800E4080020EC080020EC080020F408002036
:10522800F4080020FC080020FC08002004090020E5
:10523800040900200C0900200C0900201409002092
:10524800140900201C0900201C0900202409002042
:10525800240900202C0900202C09002034090020F2
:10526800340900203C0900203C09002044090020A2
:10527800440900204C0900204C0900205409002052
:10528800540900205C0900205C0900206409002002
:10529800640900206C0900206C09002074090020B2
:1052A800740900207C0900207C0900208409002062
:1052B800840900208C0900208C0900209409002012
:1052C800940900209C0900209C090020A4090020C2
:1052D800A4090020AC090020AC090020B409002072
:1052E800B4090020BC090020BC090020C409002022
:1052F800C4090020CC090020CC090020D4090020D2
:10530800D4090020DC090020DC090020E409002081
:10531800E4090020EC090020EC090020F409002031
:10532800F4090020FC090020FC090020040A0020E0
:10533800040A00200C0A00200C0A0020140A00208D
:10534800140A00201C0A00201C0A0020240A00203D
:10535800240A00202C0A00202C0A0020340A0020ED
:10536800340A00203C0A00203C0A0020440A00209D
:10537800440A00204C0A00204C0A0020540A00204D
:10538800540A00205C0A00205C0A0020640A0020FD
:10539800640A00206C0A00206C0A0020740A0020AD
:1053A800740A00207C0A00207C0A0020840A00205D
:1053B800840A00208C0A00208C0A0020940A00200D
:1053C800940A00209C0A00209C0A0020A40A0020BD
:1053D800A40A0020AC0A0020AC0A0020B40A00206D
:1053E800B40A0020BC0A0020BC0A0020C40A00201D
:1053F800C40A0020CC0A0020CC0A0020D40A0020CD
:10540800D40A0020DC0A0020DC0A0020E40A00207C
:10541800E40A0020EC0A0020EC0A0020F40A00202C
:10542800F40A0020FC0A0020FC0A0020040B0020DB
:10543800040B00200C0B00200C0B0020140B002088
:10544800140B00201C0B00201C0B0020240B002038
:10545800240B00202C0B00202C0B0020340B0020E8
:10546800340B00203C0B00203C0B0020440B002098
:0C547800440B002000000200FFFFFFFFBB
:00000001FF
